{
  "_format": "hh-sol-artifact-1",
  "contractName": "MaticFund",
  "sourceName": "contracts/MaticFund.sol",
  "abi": [
    {
      "inputs": [
        {
          "internalType": "address payable",
          "name": "marketingAddr",
          "type": "address"
        },
        {
          "internalType": "address payable",
          "name": "projectAddr",
          "type": "address"
        },
        {
          "internalType": "address payable",
          "name": "devAddr",
          "type": "address"
        },
        {
          "internalType": "address payable",
          "name": "_defaultAdress",
          "type": "address"
        },
        {
          "internalType": "address payable",
          "name": "_nAddress1",
          "type": "address"
        },
        {
          "internalType": "address payable",
          "name": "_nAddress2",
          "type": "address"
        },
        {
          "internalType": "address payable",
          "name": "_priceFeedAddress",
          "type": "address"
        }
      ],
      "stateMutability": "nonpayable",
      "type": "constructor"
    },
    {
      "anonymous": false,
      "inputs": [
        {
          "indexed": true,
          "internalType": "address",
          "name": "user",
          "type": "address"
        },
        {
          "indexed": false,
          "internalType": "uint256",
          "name": "totalAmount",
          "type": "uint256"
        }
      ],
      "name": "FeePayed",
      "type": "event"
    },
    {
      "anonymous": false,
      "inputs": [
        {
          "indexed": true,
          "internalType": "address",
          "name": "user",
          "type": "address"
        },
        {
          "indexed": false,
          "internalType": "uint256",
          "name": "amount",
          "type": "uint256"
        },
        {
          "indexed": false,
          "internalType": "uint256",
          "name": "usdAmount",
          "type": "uint256"
        }
      ],
      "name": "NewDeposit",
      "type": "event"
    },
    {
      "anonymous": false,
      "inputs": [
        {
          "indexed": false,
          "internalType": "address",
          "name": "user",
          "type": "address"
        }
      ],
      "name": "Newbie",
      "type": "event"
    },
    {
      "anonymous": false,
      "inputs": [
        {
          "indexed": true,
          "internalType": "address",
          "name": "referrer",
          "type": "address"
        },
        {
          "indexed": true,
          "internalType": "address",
          "name": "referral",
          "type": "address"
        },
        {
          "indexed": false,
          "internalType": "uint256",
          "name": "amount",
          "type": "uint256"
        }
      ],
      "name": "RefBack",
      "type": "event"
    },
    {
      "anonymous": false,
      "inputs": [
        {
          "indexed": true,
          "internalType": "address",
          "name": "referrer",
          "type": "address"
        },
        {
          "indexed": true,
          "internalType": "address",
          "name": "referral",
          "type": "address"
        },
        {
          "indexed": true,
          "internalType": "uint256",
          "name": "level",
          "type": "uint256"
        },
        {
          "indexed": false,
          "internalType": "uint256",
          "name": "amount",
          "type": "uint256"
        }
      ],
      "name": "RefBonus",
      "type": "event"
    },
    {
      "anonymous": false,
      "inputs": [
        {
          "indexed": true,
          "internalType": "address",
          "name": "referrer",
          "type": "address"
        },
        {
          "indexed": true,
          "internalType": "address",
          "name": "referral",
          "type": "address"
        },
        {
          "indexed": true,
          "internalType": "uint256",
          "name": "level",
          "type": "uint256"
        },
        {
          "indexed": false,
          "internalType": "uint256",
          "name": "amount",
          "type": "uint256"
        }
      ],
      "name": "RefBonusMissed",
      "type": "event"
    },
    {
      "anonymous": false,
      "inputs": [
        {
          "indexed": true,
          "internalType": "address",
          "name": "walletAddress",
          "type": "address"
        },
        {
          "indexed": true,
          "internalType": "address",
          "name": "uplinePartner",
          "type": "address"
        }
      ],
      "name": "UplinePartnerSet",
      "type": "event"
    },
    {
      "anonymous": false,
      "inputs": [
        {
          "indexed": true,
          "internalType": "address",
          "name": "user",
          "type": "address"
        },
        {
          "indexed": false,
          "internalType": "uint256",
          "name": "amount",
          "type": "uint256"
        },
        {
          "indexed": false,
          "internalType": "uint256",
          "name": "usdAmount",
          "type": "uint256"
        }
      ],
      "name": "Withdrawn",
      "type": "event"
    },
    {
      "inputs": [],
      "name": "DEPOSITS_MAX",
      "outputs": [
        {
          "internalType": "uint256",
          "name": "",
          "type": "uint256"
        }
      ],
      "stateMutability": "view",
      "type": "function"
    },
    {
      "inputs": [],
      "name": "Dev_Fee",
      "outputs": [
        {
          "internalType": "uint256",
          "name": "",
          "type": "uint256"
        }
      ],
      "stateMutability": "view",
      "type": "function"
    },
    {
      "inputs": [],
      "name": "INVEST_MAX_AMOUNT",
      "outputs": [
        {
          "internalType": "uint256",
          "name": "",
          "type": "uint256"
        }
      ],
      "stateMutability": "view",
      "type": "function"
    },
    {
      "inputs": [],
      "name": "INVEST_MIN_AMOUNT",
      "outputs": [
        {
          "internalType": "uint256",
          "name": "",
          "type": "uint256"
        }
      ],
      "stateMutability": "view",
      "type": "function"
    },
    {
      "inputs": [],
      "name": "MARKETING_FEE",
      "outputs": [
        {
          "internalType": "uint256",
          "name": "",
          "type": "uint256"
        }
      ],
      "stateMutability": "view",
      "type": "function"
    },
    {
      "inputs": [],
      "name": "MAX_HOLD_PERCENT",
      "outputs": [
        {
          "internalType": "uint256",
          "name": "",
          "type": "uint256"
        }
      ],
      "stateMutability": "view",
      "type": "function"
    },
    {
      "inputs": [],
      "name": "PERCENTS_DIVIDER",
      "outputs": [
        {
          "internalType": "uint256",
          "name": "",
          "type": "uint256"
        }
      ],
      "stateMutability": "view",
      "type": "function"
    },
    {
      "inputs": [],
      "name": "PROJECT_FEE",
      "outputs": [
        {
          "internalType": "uint256",
          "name": "",
          "type": "uint256"
        }
      ],
      "stateMutability": "view",
      "type": "function"
    },
    {
      "inputs": [],
      "name": "TIME_STEP",
      "outputs": [
        {
          "internalType": "uint256",
          "name": "",
          "type": "uint256"
        }
      ],
      "stateMutability": "view",
      "type": "function"
    },
    {
      "inputs": [],
      "name": "contractAddress",
      "outputs": [
        {
          "internalType": "address",
          "name": "",
          "type": "address"
        }
      ],
      "stateMutability": "view",
      "type": "function"
    },
    {
      "inputs": [],
      "name": "contractCreationTime",
      "outputs": [
        {
          "internalType": "uint256",
          "name": "",
          "type": "uint256"
        }
      ],
      "stateMutability": "view",
      "type": "function"
    },
    {
      "inputs": [],
      "name": "contractPercent",
      "outputs": [
        {
          "internalType": "uint256",
          "name": "",
          "type": "uint256"
        }
      ],
      "stateMutability": "view",
      "type": "function"
    },
    {
      "inputs": [],
      "name": "defaultAddress",
      "outputs": [
        {
          "internalType": "address payable",
          "name": "",
          "type": "address"
        }
      ],
      "stateMutability": "view",
      "type": "function"
    },
    {
      "inputs": [],
      "name": "devAdress",
      "outputs": [
        {
          "internalType": "address payable",
          "name": "",
          "type": "address"
        }
      ],
      "stateMutability": "view",
      "type": "function"
    },
    {
      "inputs": [
        {
          "internalType": "address",
          "name": "userAddress",
          "type": "address"
        }
      ],
      "name": "getAccountStats",
      "outputs": [
        {
          "internalType": "uint256",
          "name": "",
          "type": "uint256"
        },
        {
          "internalType": "uint256",
          "name": "",
          "type": "uint256"
        },
        {
          "internalType": "uint256",
          "name": "",
          "type": "uint256"
        },
        {
          "internalType": "uint256",
          "name": "",
          "type": "uint256"
        }
      ],
      "stateMutability": "view",
      "type": "function"
    },
    {
      "inputs": [],
      "name": "getContractAddress",
      "outputs": [
        {
          "internalType": "address",
          "name": "",
          "type": "address"
        }
      ],
      "stateMutability": "view",
      "type": "function"
    },
    {
      "inputs": [],
      "name": "getContractBalance",
      "outputs": [
        {
          "internalType": "uint256",
          "name": "",
          "type": "uint256"
        }
      ],
      "stateMutability": "view",
      "type": "function"
    },
    {
      "inputs": [],
      "name": "getLatestPrice",
      "outputs": [
        {
          "internalType": "int256",
          "name": "",
          "type": "int256"
        }
      ],
      "stateMutability": "view",
      "type": "function"
    },
    {
      "inputs": [],
      "name": "getSiteStats",
      "outputs": [
        {
          "internalType": "uint256",
          "name": "",
          "type": "uint256"
        },
        {
          "internalType": "uint256",
          "name": "",
          "type": "uint256"
        },
        {
          "internalType": "uint256",
          "name": "",
          "type": "uint256"
        },
        {
          "internalType": "uint256",
          "name": "",
          "type": "uint256"
        }
      ],
      "stateMutability": "view",
      "type": "function"
    },
    {
      "inputs": [
        {
          "internalType": "address",
          "name": "userAddress",
          "type": "address"
        }
      ],
      "name": "getTotalDepositAmount",
      "outputs": [
        {
          "internalType": "uint256",
          "name": "",
          "type": "uint256"
        }
      ],
      "stateMutability": "view",
      "type": "function"
    },
    {
      "inputs": [
        {
          "internalType": "address",
          "name": "userAddress",
          "type": "address"
        }
      ],
      "name": "getTotalMissedAmount",
      "outputs": [
        {
          "internalType": "uint256",
          "name": "",
          "type": "uint256"
        }
      ],
      "stateMutability": "view",
      "type": "function"
    },
    {
      "inputs": [],
      "name": "getUplinePartner",
      "outputs": [
        {
          "internalType": "address",
          "name": "",
          "type": "address"
        }
      ],
      "stateMutability": "view",
      "type": "function"
    },
    {
      "inputs": [
        {
          "internalType": "address",
          "name": "userAddress",
          "type": "address"
        }
      ],
      "name": "getUserDepositStats",
      "outputs": [
        {
          "internalType": "uint256",
          "name": "",
          "type": "uint256"
        },
        {
          "internalType": "uint256",
          "name": "",
          "type": "uint256"
        },
        {
          "internalType": "uint256",
          "name": "",
          "type": "uint256"
        },
        {
          "internalType": "uint256",
          "name": "",
          "type": "uint256"
        }
      ],
      "stateMutability": "view",
      "type": "function"
    },
    {
      "inputs": [
        {
          "internalType": "address",
          "name": "userAddress",
          "type": "address"
        },
        {
          "internalType": "uint256",
          "name": "last",
          "type": "uint256"
        },
        {
          "internalType": "uint256",
          "name": "first",
          "type": "uint256"
        }
      ],
      "name": "getUserDeposits",
      "outputs": [
        {
          "internalType": "uint256[]",
          "name": "",
          "type": "uint256[]"
        },
        {
          "internalType": "uint256[]",
          "name": "",
          "type": "uint256[]"
        },
        {
          "internalType": "uint256[]",
          "name": "",
          "type": "uint256[]"
        },
        {
          "internalType": "uint256[]",
          "name": "",
          "type": "uint256[]"
        }
      ],
      "stateMutability": "view",
      "type": "function"
    },
    {
      "inputs": [
        {
          "internalType": "address",
          "name": "userAddress",
          "type": "address"
        }
      ],
      "name": "getUserLastDeposit",
      "outputs": [
        {
          "internalType": "uint256",
          "name": "",
          "type": "uint256"
        }
      ],
      "stateMutability": "view",
      "type": "function"
    },
    {
      "inputs": [
        {
          "internalType": "address",
          "name": "userAddress",
          "type": "address"
        }
      ],
      "name": "getUserReferralsStats",
      "outputs": [
        {
          "internalType": "address",
          "name": "",
          "type": "address"
        },
        {
          "internalType": "uint256",
          "name": "",
          "type": "uint256"
        },
        {
          "internalType": "uint256",
          "name": "",
          "type": "uint256"
        },
        {
          "internalType": "uint256",
          "name": "",
          "type": "uint256"
        },
        {
          "internalType": "uint24[12]",
          "name": "",
          "type": "uint24[12]"
        }
      ],
      "stateMutability": "view",
      "type": "function"
    },
    {
      "inputs": [
        {
          "internalType": "address",
          "name": "userAddress",
          "type": "address"
        }
      ],
      "name": "getUserWithdrawStats",
      "outputs": [
        {
          "internalType": "uint256",
          "name": "",
          "type": "uint256"
        },
        {
          "internalType": "uint256",
          "name": "",
          "type": "uint256"
        }
      ],
      "stateMutability": "view",
      "type": "function"
    },
    {
      "inputs": [
        {
          "internalType": "address payable",
          "name": "userRefAddress",
          "type": "address"
        }
      ],
      "name": "invest",
      "outputs": [],
      "stateMutability": "payable",
      "type": "function"
    },
    {
      "inputs": [
        {
          "internalType": "address",
          "name": "userAddress",
          "type": "address"
        }
      ],
      "name": "isActive",
      "outputs": [
        {
          "internalType": "bool",
          "name": "",
          "type": "bool"
        }
      ],
      "stateMutability": "view",
      "type": "function"
    },
    {
      "inputs": [],
      "name": "marketingAddress",
      "outputs": [
        {
          "internalType": "address payable",
          "name": "",
          "type": "address"
        }
      ],
      "stateMutability": "view",
      "type": "function"
    },
    {
      "inputs": [],
      "name": "nAddress1",
      "outputs": [
        {
          "internalType": "address payable",
          "name": "",
          "type": "address"
        }
      ],
      "stateMutability": "view",
      "type": "function"
    },
    {
      "inputs": [],
      "name": "nAddress2",
      "outputs": [
        {
          "internalType": "address payable",
          "name": "",
          "type": "address"
        }
      ],
      "stateMutability": "view",
      "type": "function"
    },
    {
      "inputs": [],
      "name": "owner",
      "outputs": [
        {
          "internalType": "address",
          "name": "",
          "type": "address"
        }
      ],
      "stateMutability": "view",
      "type": "function"
    },
    {
      "inputs": [],
      "name": "projectAddress",
      "outputs": [
        {
          "internalType": "address payable",
          "name": "",
          "type": "address"
        }
      ],
      "stateMutability": "view",
      "type": "function"
    },
    {
      "inputs": [
        {
          "internalType": "address",
          "name": "addr",
          "type": "address"
        }
      ],
      "name": "setContractAddress",
      "outputs": [],
      "stateMutability": "nonpayable",
      "type": "function"
    },
    {
      "inputs": [],
      "name": "totalInvestAmount",
      "outputs": [
        {
          "internalType": "uint256",
          "name": "",
          "type": "uint256"
        }
      ],
      "stateMutability": "view",
      "type": "function"
    },
    {
      "inputs": [],
      "name": "totalInvestCount",
      "outputs": [
        {
          "internalType": "uint256",
          "name": "",
          "type": "uint256"
        }
      ],
      "stateMutability": "view",
      "type": "function"
    },
    {
      "inputs": [],
      "name": "totalWithdrawn",
      "outputs": [
        {
          "internalType": "uint256",
          "name": "",
          "type": "uint256"
        }
      ],
      "stateMutability": "view",
      "type": "function"
    },
    {
      "inputs": [
        {
          "internalType": "address",
          "name": "",
          "type": "address"
        }
      ],
      "name": "uplinePartners",
      "outputs": [
        {
          "internalType": "address",
          "name": "",
          "type": "address"
        }
      ],
      "stateMutability": "view",
      "type": "function"
    },
    {
      "inputs": [],
      "name": "withdraw",
      "outputs": [],
      "stateMutability": "nonpayable",
      "type": "function"
    }
  ],
  "bytecode": "0x60806040526032600b553480156200001657600080fd5b50604051620050c5380380620050c583398181016040528101906200003c9190620008e5565b86600260006101000a81548173ffffffffffffffffffffffffffffffffffffffff021916908373ffffffffffffffffffffffffffffffffffffffff16021790555085600360006101000a81548173ffffffffffffffffffffffffffffffffffffffff021916908373ffffffffffffffffffffffffffffffffffffffff16021790555084600460006101000a81548173ffffffffffffffffffffffffffffffffffffffff021916908373ffffffffffffffffffffffffffffffffffffffff16021790555042600c8190555083600560006101000a81548173ffffffffffffffffffffffffffffffffffffffff021916908373ffffffffffffffffffffffffffffffffffffffff16021790555082600660006101000a81548173ffffffffffffffffffffffffffffffffffffffff021916908373ffffffffffffffffffffffffffffffffffffffff16021790555081600760006101000a81548173ffffffffffffffffffffffffffffffffffffffff021916908373ffffffffffffffffffffffffffffffffffffffff16021790555033600160006101000a81548173ffffffffffffffffffffffffffffffffffffffff021916908373ffffffffffffffffffffffffffffffffffffffff16021790555060405180606001604052806103e88152602001670de0b6b3a76400008152602001600062ffffff1681525060116000600c81106200024d576200024c62000998565b5b60030201600082015181600001556020820151816001015560408201518160020160006101000a81548162ffffff021916908362ffffff160217905550905050604051806060016040528060c881526020016802b5e3af16b18800008152602001600162ffffff1681525060116001600c8110620002d057620002cf62000998565b5b60030201600082015181600001556020820151816001015560408201518160020160006101000a81548162ffffff021916908362ffffff16021790555090505060405180606001604052806064815260200168056bc75e2d631000008152602001600162ffffff1681525060116002600c811062000353576200035262000998565b5b60030201600082015181600001556020820151816001015560408201518160020160006101000a81548162ffffff021916908362ffffff16021790555090505060405180606001604052806064815260200168056bc75e2d631000008152602001600162ffffff1681525060116003600c8110620003d657620003d562000998565b5b60030201600082015181600001556020820151816001015560408201518160020160006101000a81548162ffffff021916908362ffffff16021790555090505060405180606001604052806064815260200168056bc75e2d631000008152602001600162ffffff1681525060116004600c811062000459576200045862000998565b5b60030201600082015181600001556020820151816001015560408201518160020160006101000a81548162ffffff021916908362ffffff160217905550905050604051806060016040528060648152602001680ad78ebc5ac62000008152602001600662ffffff1681525060116005600c8110620004dc57620004db62000998565b5b60030201600082015181600001556020820151816001015560408201518160020160006101000a81548162ffffff021916908362ffffff160217905550905050604051806060016040528060648152602001681043561a88293000008152602001600762ffffff1681525060116006600c81106200055f576200055e62000998565b5b60030201600082015181600001556020820151816001015560408201518160020160006101000a81548162ffffff021916908362ffffff160217905550905050604051806060016040528060648152602001681b1ae4d6e2ef5000008152602001600862ffffff1681525060116007600c8110620005e257620005e162000998565b5b60030201600082015181600001556020820151816001015560408201518160020160006101000a81548162ffffff021916908362ffffff1602179055509050506040518060600160405280606481526020016828a857425466f800008152602001600962ffffff1681525060116008600c811062000665576200066462000998565b5b60030201600082015181600001556020820151816001015560408201518160020160006101000a81548162ffffff021916908362ffffff1602179055509050506040518060600160405280606481526020016828a857425466f800008152602001600a62ffffff1681525060116009600c8110620006e857620006e762000998565b5b60030201600082015181600001556020820151816001015560408201518160020160006101000a81548162ffffff021916908362ffffff160217905550905050604051806060016040528060648152602001683635c9adc5dea000008152602001600b62ffffff168152506011600a600c81106200076b576200076a62000998565b5b60030201600082015181600001556020820151816001015560408201518160020160006101000a81548162ffffff021916908362ffffff160217905550905050604051806060016040528060648152602001683635c9adc5dea000008152602001600c62ffffff168152506011600b600c8110620007ee57620007ed62000998565b5b60030201600082015181600001556020820151816001015560408201518160020160006101000a81548162ffffff021916908362ffffff160217905550905050806000806101000a81548173ffffffffffffffffffffffffffffffffffffffff021916908373ffffffffffffffffffffffffffffffffffffffff16021790555050505050505050620009c7565b600080fd5b600073ffffffffffffffffffffffffffffffffffffffff82169050919050565b6000620008ad8262000880565b9050919050565b620008bf81620008a0565b8114620008cb57600080fd5b50565b600081519050620008df81620008b4565b92915050565b600080600080600080600060e0888a0312156200090757620009066200087b565b5b6000620009178a828b01620008ce565b97505060206200092a8a828b01620008ce565b96505060406200093d8a828b01620008ce565b9550506060620009508a828b01620008ce565b9450506080620009638a828b01620008ce565b93505060a0620009768a828b01620008ce565b92505060c0620009898a828b01620008ce565b91505092959891949750929550565b7f4e487b7100000000000000000000000000000000000000000000000000000000600052603260045260246000fd5b6146ee80620009d76000396000f3fe60806040526004361061023b5760003560e01c80635c1016931161012e578063a5ece941116100ab578063bc1d720d1161006f578063bc1d720d146108af578063cea3e530146108da578063e262113e14610905578063e956a7c714610930578063f6b4dfb41461096d5761023b565b8063a5ece941146107b1578063a8899d63146107dc578063a992e60a14610819578063aef18c2514610859578063af3e2122146108845761023b565b80638da5cb5b116100f25780638da5cb5b146106b65780638e15f473146106e15780639bb577181461070c5780639c11957d146107375780639f8a13d7146107745761023b565b80635c101693146105cc578063665db73d146105f75780636f9fb98a146106225780637d8cb7a21461064d5780638896337d146106785761023b565b806332e1c733116101bc5780634698b883116101805780634698b883146104e2578063477bddaa1461052257806348d44bd11461054b5780634b319713146105765780635a18719c146105a15761023b565b806332e1c7331461041f5780633ccfd60b1461044a5780633cf96af11461046157806340653d3d1461048c57806344767308146104b75761023b565b806328cdfaeb1161020357806328cdfaeb1461031d5780632ba285e61461035d5780632d369c901461039e57806332a2c5d0146103c957806332bc298c146103f45761023b565b806301c234a81461024057806303f9c7931461026b5780631d47c1a4146102875780631dba5b08146102b257806327f9c4c1146102e0575b600080fd5b34801561024c57600080fd5b50610255610998565b6040516102629190613883565b60405180910390f35b61028560048036038101906102809190613901565b61099e565b005b34801561029357600080fd5b5061029c611870565b6040516102a9919061394f565b60405180910390f35b3480156102be57600080fd5b506102c76118d7565b6040516102d7949392919061396a565b60405180910390f35b3480156102ec57600080fd5b50610307600480360381019061030291906139db565b61192e565b6040516103149190613883565b60405180910390f35b34801561032957600080fd5b50610344600480360381019061033f91906139db565b61197a565b604051610354949392919061396a565b60405180910390f35b34801561036957600080fd5b50610384600480360381019061037f91906139db565b6119b3565b604051610395959493929190613ac2565b60405180910390f35b3480156103aa57600080fd5b506103b3611ad0565b6040516103c09190613b25565b60405180910390f35b3480156103d557600080fd5b506103de611af6565b6040516103eb919061394f565b60405180910390f35b34801561040057600080fd5b50610409611b20565b6040516104169190613883565b60405180910390f35b34801561042b57600080fd5b50610434611b25565b6040516104419190613883565b60405180910390f35b34801561045657600080fd5b5061045f611b2b565b005b34801561046d57600080fd5b50610476612268565b6040516104839190613b25565b60405180910390f35b34801561049857600080fd5b506104a161228e565b6040516104ae9190613b25565b60405180910390f35b3480156104c357600080fd5b506104cc6122b4565b6040516104d99190613883565b60405180910390f35b3480156104ee57600080fd5b5061050960048036038101906105049190613b6c565b6122b9565b6040516105199493929190613c7d565b60405180910390f35b34801561052e57600080fd5b50610549600480360381019061054491906139db565b6125ad565b005b34801561055757600080fd5b50610560612681565b60405161056d9190613883565b60405180910390f35b34801561058257600080fd5b5061058b612687565b6040516105989190613883565b60405180910390f35b3480156105ad57600080fd5b506105b661268d565b6040516105c39190613883565b60405180910390f35b3480156105d857600080fd5b506105e1612692565b6040516105ee9190613b25565b60405180910390f35b34801561060357600080fd5b5061060c6126b8565b6040516106199190613883565b60405180910390f35b34801561062e57600080fd5b506106376126be565b6040516106449190613883565b60405180910390f35b34801561065957600080fd5b506106626126ff565b60405161066f9190613883565b60405180910390f35b34801561068457600080fd5b5061069f600480360381019061069a91906139db565b61270d565b6040516106ad929190613cde565b60405180910390f35b3480156106c257600080fd5b506106cb61272b565b6040516106d8919061394f565b60405180910390f35b3480156106ed57600080fd5b506106f6612751565b6040516107039190613d20565b60405180910390f35b34801561071857600080fd5b50610721612841565b60405161072e9190613883565b60405180910390f35b34801561074357600080fd5b5061075e600480360381019061075991906139db565b612847565b60405161076b9190613883565b60405180910390f35b34801561078057600080fd5b5061079b600480360381019061079691906139db565b612898565b6040516107a89190613d56565b60405180910390f35b3480156107bd57600080fd5b506107c6612981565b6040516107d39190613b25565b60405180910390f35b3480156107e857600080fd5b5061080360048036038101906107fe91906139db565b6129a7565b6040516108109190613883565b60405180910390f35b34801561082557600080fd5b50610840600480360381019061083b91906139db565b6129f3565b604051610850949392919061396a565b60405180910390f35b34801561086557600080fd5b5061086e612a2c565b60405161087b9190613883565b60405180910390f35b34801561089057600080fd5b50610899612a32565b6040516108a69190613883565b60405180910390f35b3480156108bb57600080fd5b506108c4612a38565b6040516108d19190613b25565b60405180910390f35b3480156108e657600080fd5b506108ef612a5e565b6040516108fc9190613883565b60405180910390f35b34801561091157600080fd5b5061091a612a64565b6040516109279190613883565b60405180910390f35b34801561093c57600080fd5b50610957600480360381019061095291906139db565b612a70565b604051610964919061394f565b60405180910390f35b34801561097957600080fd5b50610982612aa3565b60405161098f919061394f565b60405180910390f35b61271081565b60008034905060006109ae612751565b905060006109db836109cd6305f5e10085612ac990919063ffffffff16565b612b2790919063ffffffff16565b905060006109e7611870565b9050600073ffffffffffffffffffffffffffffffffffffffff168173ffffffffffffffffffffffffffffffffffffffff1603610a2e57859450610a2986612ba1565b610a32565b8094505b3273ffffffffffffffffffffffffffffffffffffffff163373ffffffffffffffffffffffffffffffffffffffff1614610aa0576040517f08c379a0000000000000000000000000000000000000000000000000000000008152600401610a9790613dce565b60405180910390fd5b670de0b6b3a76400008210158015610ac2575069d3c21bcecceda10000008211155b610b01576040517f08c379a0000000000000000000000000000000000000000000000000000000008152600401610af890613e60565b60405180910390fd5b6000600f60003373ffffffffffffffffffffffffffffffffffffffff1673ffffffffffffffffffffffffffffffffffffffff168152602001908152602001600020905061012c816000018054905010610b8f576040517f08c379a0000000000000000000000000000000000000000000000000000000008152600401610b8690613ef2565b60405180910390fd5b6000610bba612710610bac61025889612b2790919063ffffffff16565b612ac990919063ffffffff16565b90506000610be7612710610bd96102588a612b2790919063ffffffff16565b612ac990919063ffffffff16565b90506000610c13612710610c0560648b612b2790919063ffffffff16565b612ac990919063ffffffff16565b9050600260009054906101000a900473ffffffffffffffffffffffffffffffffffffffff1673ffffffffffffffffffffffffffffffffffffffff166108fc849081150290604051600060405180830381858888f19350505050158015610c7d573d6000803e3d6000fd5b50600360009054906101000a900473ffffffffffffffffffffffffffffffffffffffff1673ffffffffffffffffffffffffffffffffffffffff166108fc839081150290604051600060405180830381858888f19350505050158015610ce6573d6000803e3d6000fd5b50600460009054906101000a900473ffffffffffffffffffffffffffffffffffffffff1673ffffffffffffffffffffffffffffffffffffffff166108fc829081150290604051600060405180830381858888f19350505050158015610d4f573d6000803e3d6000fd5b503373ffffffffffffffffffffffffffffffffffffffff167f2899dc8c12def1caa9accb64257cf2fd9f960f21bb27a560a757eae3c2ec43c1610dad83610d9f8688612e1890919063ffffffff16565b612e1890919063ffffffff16565b604051610dba9190613883565b60405180910390a260008073ffffffffffffffffffffffffffffffffffffffff168560020160009054906101000a900473ffffffffffffffffffffffffffffffffffffffff1673ffffffffffffffffffffffffffffffffffffffff16148015610e6857506000600f60008c73ffffffffffffffffffffffffffffffffffffffff1673ffffffffffffffffffffffffffffffffffffffff16815260200190815260200160002060000180549050115b8015610ea057503373ffffffffffffffffffffffffffffffffffffffff168a73ffffffffffffffffffffffffffffffffffffffff1614155b15610ee957898560020160006101000a81548173ffffffffffffffffffffffffffffffffffffffff021916908373ffffffffffffffffffffffffffffffffffffffff1602179055505b600560009054906101000a900473ffffffffffffffffffffffffffffffffffffffff1673ffffffffffffffffffffffffffffffffffffffff168560020160009054906101000a900473ffffffffffffffffffffffffffffffffffffffff1673ffffffffffffffffffffffffffffffffffffffff1603610f9057610f896064610f7b60168c612b2790919063ffffffff16565b612ac990919063ffffffff16565b9050611513565b60005b600c811015611511576000610fe0612710610fd2601185600c8110610fbb57610fba613f12565b5b60030201600001548e612b2790919063ffffffff16565b612ac990919063ffffffff16565b9050600073ffffffffffffffffffffffffffffffffffffffff168c73ffffffffffffffffffffffffffffffffffffffff161415801561101f5750600081115b156114f457601182600c811061103857611037613f12565b5b60030201600101546110498d612e76565b101580156110dc5750601182600c811061106657611065613f12565b5b6003020160020160009054906101000a900462ffffff1662ffffff16600f60008e73ffffffffffffffffffffffffffffffffffffffff1673ffffffffffffffffffffffffffffffffffffffff168152602001908152602001600020600c0160009054906101000a900462ffffff1662ffffff1610155b156112c9578b73ffffffffffffffffffffffffffffffffffffffff166108fc829081150290604051600060405180830381858888f19350505050158015611127573d6000803e3d6000fd5b5061117d81600f60008f73ffffffffffffffffffffffffffffffffffffffff1673ffffffffffffffffffffffffffffffffffffffff16815260200190815260200160002060030154612e1890919063ffffffff16565b600f60008e73ffffffffffffffffffffffffffffffffffffffff1673ffffffffffffffffffffffffffffffffffffffff1681526020019081526020016000206003018190555061121881600f60008f73ffffffffffffffffffffffffffffffffffffffff1673ffffffffffffffffffffffffffffffffffffffff16815260200190815260200160002060040154612e1890919063ffffffff16565b600f60008e73ffffffffffffffffffffffffffffffffffffffff1673ffffffffffffffffffffffffffffffffffffffff16815260200190815260200160002060040181905550813373ffffffffffffffffffffffffffffffffffffffff168d73ffffffffffffffffffffffffffffffffffffffff167fd41f7e766eebcc7ff42b11ac8691bdf864db4afc0c55e71d629d54edce460d98846040516112bc9190613883565b60405180910390a4611397565b80836112d59190613f70565b925080600f60008e73ffffffffffffffffffffffffffffffffffffffff1673ffffffffffffffffffffffffffffffffffffffff16815260200190815260200160002060060160008282546113299190613f70565b92505081905550813373ffffffffffffffffffffffffffffffffffffffff168d73ffffffffffffffffffffffffffffffffffffffff167f7b92e1ae99c8d93ece4ef845fd466d392a8ef44005cc85bc06be6c7420b200c38460405161138e9190613883565b60405180910390a45b6001600f60008e73ffffffffffffffffffffffffffffffffffffffff1673ffffffffffffffffffffffffffffffffffffffff168152602001908152602001600020600a0183600c81106113ed576113ec613f12565b5b600a91828204019190066003028282829054906101000a900462ffffff166114159190613fa4565b92506101000a81548162ffffff021916908362ffffff1602179055508a600f60008e73ffffffffffffffffffffffffffffffffffffffff1673ffffffffffffffffffffffffffffffffffffffff16815260200190815260200160002060070160008282546114839190613f70565b92505081905550600f60008d73ffffffffffffffffffffffffffffffffffffffff1673ffffffffffffffffffffffffffffffffffffffff16815260200190815260200160002060020160009054906101000a900473ffffffffffffffffffffffffffffffffffffffff169b50611503565b80836115009190613f70565b92505b508080600101915050610f93565b505b6000811115611608576000611532600283612ac990919063ffffffff16565b9050600660009054906101000a900473ffffffffffffffffffffffffffffffffffffffff1673ffffffffffffffffffffffffffffffffffffffff166108fc829081150290604051600060405180830381858888f1935050505015801561159c573d6000803e3d6000fd5b50600760009054906101000a900473ffffffffffffffffffffffffffffffffffffffff1673ffffffffffffffffffffffffffffffffffffffff166108fc829081150290604051600060405180830381858888f19350505050158015611605573d6000803e3d6000fd5b50505b60008560000180549050036116f9574285600101819055506001600f60008760020160009054906101000a900473ffffffffffffffffffffffffffffffffffffffff1673ffffffffffffffffffffffffffffffffffffffff1673ffffffffffffffffffffffffffffffffffffffff168152602001908152602001600020600c0160008282829054906101000a900462ffffff166116a59190613fa4565b92506101000a81548162ffffff021916908362ffffff1602179055507f9fd565cd14c3c391679eb0cad12a14dcf7534e9d3462bcb9b67a098a9bbbc24a336040516116f0919061394f565b60405180910390a15b846000016040518060c001604052808b81526020016000815260200142815260200189815260200160008152602001600115158152509080600181540180825580915050600190039060005260206000209060060201600090919091909150600082015181600001556020820151816001015560408201518160020155606082015181600301556080820151816004015560a08201518160050160006101000a81548160ff0219169083151502179055505050888560050160008282546117c09190613f70565b92505081905550868560080160008282546117db9190613f70565b9250508190555088600860008282546117f49190613f70565b925050819055506009600081548092919061180e90613fdb565b91905055503373ffffffffffffffffffffffffffffffffffffffff167fa91e0c3165215fe453f5bf3de083d5fd6c4e62c491849155a042a647588c53a08a8960405161185b929190613cde565b60405180910390a25050505050505050505050565b6000601060003373ffffffffffffffffffffffffffffffffffffffff1673ffffffffffffffffffffffffffffffffffffffff16815260200190815260200160002060009054906101000a900473ffffffffffffffffffffffffffffffffffffffff16905090565b600080600080600854600954600d60009054906101000a900473ffffffffffffffffffffffffffffffffffffffff1673ffffffffffffffffffffffffffffffffffffffff1631600b54935093509350935090919293565b6000600f60008373ffffffffffffffffffffffffffffffffffffffff1673ffffffffffffffffffffffffffffffffffffffff168152602001908152602001600020600501549050919050565b60008060008061198985612f60565b6119928661302b565b61199b8761338e565b6119a488613489565b93509350935093509193509193565b6000806000806119c1613847565b6000600f60008873ffffffffffffffffffffffffffffffffffffffff1673ffffffffffffffffffffffffffffffffffffffff16815260200190815260200160002090508060020160009054906101000a900473ffffffffffffffffffffffffffffffffffffffff168160030154826004015483600c0160009054906101000a900462ffffff1684600a018162ffffff16915080600c806020026040519081016040528092919082600c8015611ab5576020028201916000905b82829054906101000a900462ffffff1662ffffff1681526020019060030190602082600201049283019260010382029150808411611a7a5790505b50505050509050955095509550955095505091939590929450565b600760009054906101000a900473ffffffffffffffffffffffffffffffffffffffff1681565b6000600d60009054906101000a900473ffffffffffffffffffffffffffffffffffffffff16905090565b603c81565b60095481565b6000600f60003373ffffffffffffffffffffffffffffffffffffffff1673ffffffffffffffffffffffffffffffffffffffff16815260200190815260200160002090506000611b7933612f60565b90506000806000600290506000611ba46305f5e100611b96612751565b612ac990919063ffffffff16565b905060005b866000018054905081101561214f57611bf88363ffffffff16886000018381548110611bd857611bd7613f12565b5b906000526020600020906006020160000154612b2790919063ffffffff16565b876000018281548110611c0e57611c0d613f12565b5b9060005260206000209060060201600101541015612142578660010154876000018281548110611c4157611c40613f12565b5b9060005260206000209060060201600201541115611d0c57611d05603c611cf7611c9b8a6000018581548110611c7a57611c79613f12565b5b906000526020600020906006020160020154426134d590919063ffffffff16565b611ce9612710611cdb8c8e6000018981548110611cbb57611cba613f12565b5b906000526020600020906006020160000154612b2790919063ffffffff16565b612ac990919063ffffffff16565b612b2790919063ffffffff16565b612ac990919063ffffffff16565b9350611d98565b611d95603c611d87611d2b8a60010154426134d590919063ffffffff16565b611d79612710611d6b8c8e6000018981548110611d4b57611d4a613f12565b5b906000526020600020906006020160000154612b2790919063ffffffff16565b612ac990919063ffffffff16565b612b2790919063ffffffff16565b612ac990919063ffffffff16565b93505b611dd88363ffffffff16886000018381548110611db857611db7613f12565b5b906000526020600020906006020160000154612b2790919063ffffffff16565b611e1285896000018481548110611df257611df1613f12565b5b906000526020600020906006020160010154612e1890919063ffffffff16565b1115611ed457611e91876000018281548110611e3157611e30613f12565b5b906000526020600020906006020160010154611e838563ffffffff168a6000018581548110611e6357611e62613f12565b5b906000526020600020906006020160000154612b2790919063ffffffff16565b6134d590919063ffffffff16565b93506000876000018281548110611eab57611eaa613f12565b5b906000526020600020906006020160050160006101000a81548160ff0219169083151502179055505b6000611ee98386612b2790919063ffffffff16565b9050611f266002896000018481548110611f0657611f05613f12565b5b906000526020600020906006020160030154612b2790919063ffffffff16565b611f60828a6000018581548110611f4057611f3f613f12565b5b906000526020600020906006020160040154612e1890919063ffffffff16565b111561205657611fec611fa460028a6000018581548110611f8457611f83613f12565b5b906000526020600020906006020160030154612b2790919063ffffffff16565b611fde838b6000018681548110611fbe57611fbd613f12565b5b906000526020600020906006020160040154612e1890919063ffffffff16565b6134d590919063ffffffff16565b90506120136120048483612ac990919063ffffffff16565b866134d590919063ffffffff16565b9450600088600001838154811061202d5761202c613f12565b5b906000526020600020906006020160050160006101000a81548160ff0219169083151502179055505b612090858960000184815481106120705761206f613f12565b5b906000526020600020906006020160010154612e1890919063ffffffff16565b8860000183815481106120a6576120a5613f12565b5b9060005260206000209060060201600101819055506121076120d18487612b2790919063ffffffff16565b8960000184815481106120e7576120e6613f12565b5b906000526020600020906006020160040154612e1890919063ffffffff16565b88600001838154811061211d5761211c613f12565b5b906000526020600020906006020160040181905550858561213e9190613f70565b9550505b8080600101915050611ba9565b5060008411612193576040517f08c379a000000000000000000000000000000000000000000000000000000000815260040161218a9061406f565b60405180910390fd5b4286600101819055503373ffffffffffffffffffffffffffffffffffffffff166108fc859081150290604051600060405180830381858888f193505050501580156121e2573d6000803e3d6000fd5b506121f884600a54612e1890919063ffffffff16565b600a819055503373ffffffffffffffffffffffffffffffffffffffff167f92ccf450a286a957af52509bc1c9939d1a6a481783e142e41e2499f0bb66ebc68561224a8488612b2790919063ffffffff16565b604051612258929190613cde565b60405180910390a2505050505050565b600360009054906101000a900473ffffffffffffffffffffffffffffffffffffffff1681565b600460009054906101000a900473ffffffffffffffffffffffffffffffffffffffff1681565b603281565b6060806060806000600f60008973ffffffffffffffffffffffffffffffffffffffff1673ffffffffffffffffffffffffffffffffffffffff1681526020019081526020016000209050600061231788886134d590919063ffffffff16565b9050816000018054905081111561233357816000018054905090505b60008167ffffffffffffffff81111561234f5761234e61408f565b5b60405190808252806020026020018201604052801561237d5781602001602082028036833780820191505090505b50905060008267ffffffffffffffff81111561239c5761239b61408f565b5b6040519080825280602002602001820160405280156123ca5781602001602082028036833780820191505090505b50905060008367ffffffffffffffff8111156123e9576123e861408f565b5b6040519080825280602002602001820160405280156124175781602001602082028036833780820191505090505b50905060008467ffffffffffffffff8111156124365761243561408f565b5b6040519080825280602002602001820160405280156124645781602001602082028036833780820191505090505b5090506000808c90505b8d811115612590578760000160018261248791906140be565b8154811061249857612497613f12565b5b9060005260206000209060060201600001548683815181106124bd576124bc613f12565b5b602002602001018181525050876000016001826124da91906140be565b815481106124eb576124ea613f12565b5b9060005260206000209060060201600101548583815181106125105761250f613f12565b5b6020026020010181815250508760000160018261252d91906140be565b8154811061253e5761253d613f12565b5b90600052602060002090600602016002015483838151811061256357612562613f12565b5b602002602001018181525050818061257a90613fdb565b9250508080612588906140f2565b91505061246e565b50848484849a509a509a509a505050505050505093509350935093565b600160009054906101000a900473ffffffffffffffffffffffffffffffffffffffff1673ffffffffffffffffffffffffffffffffffffffff163373ffffffffffffffffffffffffffffffffffffffff161461263d576040517f08c379a00000000000000000000000000000000000000000000000000000000081526004016126349061418d565b60405180910390fd5b80600d60006101000a81548173ffffffffffffffffffffffffffffffffffffffff021916908373ffffffffffffffffffffffffffffffffffffffff16021790555050565b61025881565b600a5481565b606481565b600560009054906101000a900473ffffffffffffffffffffffffffffffffffffffff1681565b60085481565b6000600d60009054906101000a900473ffffffffffffffffffffffffffffffffffffffff1673ffffffffffffffffffffffffffffffffffffffff1631905090565b69d3c21bcecceda100000081565b60008061271983613534565b612722846135e7565b91509150915091565b600160009054906101000a900473ffffffffffffffffffffffffffffffffffffffff1681565b60008060008060008060008054906101000a900473ffffffffffffffffffffffffffffffffffffffff1673ffffffffffffffffffffffffffffffffffffffff1663feaf968c6040518163ffffffff1660e01b815260040160a060405180830381865afa1580156127c5573d6000803e3d6000fd5b505050506040513d601f19601f820116820180604052508101906127e99190614230565b9450945094509450945060008211612836576040517f08c379a000000000000000000000000000000000000000000000000000000000815260040161282d906142f7565b60405180910390fd5b839550505050505090565b600b5481565b600080600f60008473ffffffffffffffffffffffffffffffffffffffff1673ffffffffffffffffffffffffffffffffffffffff16815260200190815260200160002090508060010154915050919050565b600080600f60008473ffffffffffffffffffffffffffffffffffffffff1673ffffffffffffffffffffffffffffffffffffffff168152602001908152602001600020905060008160000180549050118015612979575061293c6002826000016001846000018054905061290b91906140be565b8154811061291c5761291b613f12565b5b906000526020600020906006020160000154612b2790919063ffffffff16565b816000016001836000018054905061295491906140be565b8154811061296557612964613f12565b5b906000526020600020906006020160010154105b915050919050565b600260009054906101000a900473ffffffffffffffffffffffffffffffffffffffff1681565b6000600f60008373ffffffffffffffffffffffffffffffffffffffff1673ffffffffffffffffffffffffffffffffffffffff168152602001908152602001600020600601549050919050565b600080600080612a028561369a565b612a0b86613749565b612a1487612e76565b612a1d886137f8565b93509350935093509193509193565b61012c81565b61025881565b600660009054906101000a900473ffffffffffffffffffffffffffffffffffffffff1681565b600c5481565b670de0b6b3a764000081565b60106020528060005260406000206000915054906101000a900473ffffffffffffffffffffffffffffffffffffffff1681565b600d60009054906101000a900473ffffffffffffffffffffffffffffffffffffffff1681565b6000808211612b0d576040517f08c379a0000000000000000000000000000000000000000000000000000000008152600401612b0490614363565b60405180910390fd5b60008284612b1b91906143b2565b90508091505092915050565b6000808303612b395760009050612b9b565b60008284612b4791906143e3565b9050828482612b5691906143b2565b14612b96576040517f08c379a0000000000000000000000000000000000000000000000000000000008152600401612b8d90614497565b60405180910390fd5b809150505b92915050565b6000339050600073ffffffffffffffffffffffffffffffffffffffff168273ffffffffffffffffffffffffffffffffffffffff1603612c0057600560009054906101000a900473ffffffffffffffffffffffffffffffffffffffff1691505b8173ffffffffffffffffffffffffffffffffffffffff168173ffffffffffffffffffffffffffffffffffffffff1603612c6e576040517f08c379a0000000000000000000000000000000000000000000000000000000008152600401612c6590614529565b60405180910390fd5b600073ffffffffffffffffffffffffffffffffffffffff16601060008373ffffffffffffffffffffffffffffffffffffffff1673ffffffffffffffffffffffffffffffffffffffff16815260200190815260200160002060009054906101000a900473ffffffffffffffffffffffffffffffffffffffff1673ffffffffffffffffffffffffffffffffffffffff1614612d3c576040517f08c379a0000000000000000000000000000000000000000000000000000000008152600401612d3390614595565b60405180910390fd5b81601060008373ffffffffffffffffffffffffffffffffffffffff1673ffffffffffffffffffffffffffffffffffffffff16815260200190815260200160002060006101000a81548173ffffffffffffffffffffffffffffffffffffffff021916908373ffffffffffffffffffffffffffffffffffffffff1602179055508173ffffffffffffffffffffffffffffffffffffffff168173ffffffffffffffffffffffffffffffffffffffff167f03f866f0601769ee34cf5fefebdb42b8cce13e8180f26d32faf3648e1f9e7cdc60405160405180910390a35050565b6000808284612e279190613f70565b905083811015612e6c576040517f08c379a0000000000000000000000000000000000000000000000000000000008152600401612e6390614601565b60405180910390fd5b8091505092915050565b600080600f60008473ffffffffffffffffffffffffffffffffffffffff1673ffffffffffffffffffffffffffffffffffffffff1681526020019081526020016000209050600080600090505b8260000180549050811015612f5557826000018181548110612ee757612ee6613f12565b5b906000526020600020906006020160050160009054906101000a900460ff1615612f4857612f45836000018281548110612f2457612f23613f12565b5b90600052602060002090600602016003015483612e1890919063ffffffff16565b91505b8080600101915050612ec2565b508092505050919050565b600080600f60008473ffffffffffffffffffffffffffffffffffffffff1673ffffffffffffffffffffffffffffffffffffffff1681526020019081526020016000209050612fad83612898565b1561301f576000612ff16005612fe3603c612fd58660010154426134d590919063ffffffff16565b612ac990919063ffffffff16565b612b2790919063ffffffff16565b9050603281111561300157603290505b61301681600b54612e1890919063ffffffff16565b92505050613026565b600b549150505b919050565b600080600f60008473ffffffffffffffffffffffffffffffffffffffff1673ffffffffffffffffffffffffffffffffffffffff1681526020019081526020016000209050600061307a84612f60565b905060008060005b8460000180549050811015613381576130cc60028660000183815481106130ac576130ab613f12565b5b906000526020600020906006020160000154612b2790919063ffffffff16565b8560000182815481106130e2576130e1613f12565b5b906000526020600020906006020160010154101561337457846001015485600001828154811061311557613114613f12565b5b90600052602060002090600602016002015411156131e0576131d9603c6131cb61316f88600001858154811061314e5761314d613f12565b5b906000526020600020906006020160020154426134d590919063ffffffff16565b6131bd6127106131af8a8c600001898154811061318f5761318e613f12565b5b906000526020600020906006020160000154612b2790919063ffffffff16565b612ac990919063ffffffff16565b612b2790919063ffffffff16565b612ac990919063ffffffff16565b915061326c565b613269603c61325b6131ff8860010154426134d590919063ffffffff16565b61324d61271061323f8a8c600001898154811061321f5761321e613f12565b5b906000526020600020906006020160000154612b2790919063ffffffff16565b612ac990919063ffffffff16565b612b2790919063ffffffff16565b612ac990919063ffffffff16565b91505b6132a7600286600001838154811061328757613286613f12565b5b906000526020600020906006020160000154612b2790919063ffffffff16565b6132e1838760000184815481106132c1576132c0613f12565b5b906000526020600020906006020160010154612e1890919063ffffffff16565b111561335e5761335b856000018281548110613300576132ff613f12565b5b90600052602060002090600602016001015461334d600288600001858154811061332d5761332c613f12565b5b906000526020600020906006020160000154612b2790919063ffffffff16565b6134d590919063ffffffff16565b91505b6133718284612e1890919063ffffffff16565b92505b8080600101915050613082565b5081945050505050919050565b6000806000905060005b600f60008573ffffffffffffffffffffffffffffffffffffffff1673ffffffffffffffffffffffffffffffffffffffff16815260200190815260200160002050600c8162ffffff16101561347f57600f60008573ffffffffffffffffffffffffffffffffffffffff1673ffffffffffffffffffffffffffffffffffffffff168152602001908152602001600020600a018162ffffff16600c811061343f5761343e613f12565b5b600a91828204019190066003029054906101000a900462ffffff1662ffffff168261346a9190613f70565b9150808061347790614621565b915050613398565b5080915050919050565b6000600f60008373ffffffffffffffffffffffffffffffffffffffff1673ffffffffffffffffffffffffffffffffffffffff168152602001908152602001600020600701549050919050565b60008282111561351a576040517f08c379a000000000000000000000000000000000000000000000000000000000815260040161351190614698565b60405180910390fd5b6000828461352891906140be565b90508091505092915050565b600080600f60008473ffffffffffffffffffffffffffffffffffffffff1673ffffffffffffffffffffffffffffffffffffffff168152602001908152602001600020905060008160030154905060005b82600001805490508110156135dc576135cd8360000182815481106135ac576135ab613f12565b5b90600052602060002090600602016001015483612e1890919063ffffffff16565b91508080600101915050613584565b508092505050919050565b600080600f60008473ffffffffffffffffffffffffffffffffffffffff1673ffffffffffffffffffffffffffffffffffffffff168152602001908152602001600020905060008160040154905060005b826000018054905081101561368f5761368083600001828154811061365f5761365e613f12565b5b90600052602060002090600602016004015483612e1890919063ffffffff16565b91508080600101915050613637565b508092505050919050565b600080600f60008473ffffffffffffffffffffffffffffffffffffffff1673ffffffffffffffffffffffffffffffffffffffff1681526020019081526020016000209050600080600090505b826000018054905081101561373e5761372f83600001828154811061370e5761370d613f12565b5b90600052602060002090600602016000015483612e1890919063ffffffff16565b915080806001019150506136e6565b508092505050919050565b600080600f60008473ffffffffffffffffffffffffffffffffffffffff1673ffffffffffffffffffffffffffffffffffffffff1681526020019081526020016000209050600080600090505b82600001805490508110156137ed576137de8360000182815481106137bd576137bc613f12565b5b90600052602060002090600602016003015483612e1890919063ffffffff16565b91508080600101915050613795565b508092505050919050565b6000600f60008373ffffffffffffffffffffffffffffffffffffffff1673ffffffffffffffffffffffffffffffffffffffff168152602001908152602001600020600001805490509050919050565b604051806101800160405280600c90602082028036833780820191505090505090565b6000819050919050565b61387d8161386a565b82525050565b60006020820190506138986000830184613874565b92915050565b600080fd5b600073ffffffffffffffffffffffffffffffffffffffff82169050919050565b60006138ce826138a3565b9050919050565b6138de816138c3565b81146138e957600080fd5b50565b6000813590506138fb816138d5565b92915050565b6000602082840312156139175761391661389e565b5b6000613925848285016138ec565b91505092915050565b6000613939826138a3565b9050919050565b6139498161392e565b82525050565b60006020820190506139646000830184613940565b92915050565b600060808201905061397f6000830187613874565b61398c6020830186613874565b6139996040830185613874565b6139a66060830184613874565b95945050505050565b6139b88161392e565b81146139c357600080fd5b50565b6000813590506139d5816139af565b92915050565b6000602082840312156139f1576139f061389e565b5b60006139ff848285016139c6565b91505092915050565b6000600c9050919050565b600081905092915050565b6000819050919050565b600062ffffff82169050919050565b613a4081613a28565b82525050565b6000613a528383613a37565b60208301905092915050565b6000602082019050919050565b613a7481613a08565b613a7e8184613a13565b9250613a8982613a1e565b8060005b83811015613aba578151613aa18782613a46565b9650613aac83613a5e565b925050600181019050613a8d565b505050505050565b600061020082019050613ad86000830188613940565b613ae56020830187613874565b613af26040830186613874565b613aff6060830185613874565b613b0c6080830184613a6b565b9695505050505050565b613b1f816138c3565b82525050565b6000602082019050613b3a6000830184613b16565b92915050565b613b498161386a565b8114613b5457600080fd5b50565b600081359050613b6681613b40565b92915050565b600080600060608486031215613b8557613b8461389e565b5b6000613b93868287016139c6565b9350506020613ba486828701613b57565b9250506040613bb586828701613b57565b9150509250925092565b600081519050919050565b600082825260208201905092915050565b6000819050602082019050919050565b613bf48161386a565b82525050565b6000613c068383613beb565b60208301905092915050565b6000602082019050919050565b6000613c2a82613bbf565b613c348185613bca565b9350613c3f83613bdb565b8060005b83811015613c70578151613c578882613bfa565b9750613c6283613c12565b925050600181019050613c43565b5085935050505092915050565b60006080820190508181036000830152613c978187613c1f565b90508181036020830152613cab8186613c1f565b90508181036040830152613cbf8185613c1f565b90508181036060830152613cd38184613c1f565b905095945050505050565b6000604082019050613cf36000830185613874565b613d006020830184613874565b9392505050565b6000819050919050565b613d1a81613d07565b82525050565b6000602082019050613d356000830184613d11565b92915050565b60008115159050919050565b613d5081613d3b565b82525050565b6000602082019050613d6b6000830184613d47565b92915050565b600082825260208201905092915050565b7f7478206f726967696e203d206d73672e73656e64657200000000000000000000600082015250565b6000613db8601683613d71565b9150613dc382613d82565b602082019050919050565b60006020820190508181036000830152613de781613dab565b9050919050565b7f7468652075736420616d6f756e74206d757374207665206265747765656e206d60008201527f696e20616e64206d617820616d6f756e74730000000000000000000000000000602082015250565b6000613e4a603283613d71565b9150613e5582613dee565b604082019050919050565b60006020820190508181036000830152613e7981613e3d565b9050919050565b7f4d6178696d756d20333030206465706f736974732066726f6d2061646472657360008201527f7300000000000000000000000000000000000000000000000000000000000000602082015250565b6000613edc602183613d71565b9150613ee782613e80565b604082019050919050565b60006020820190508181036000830152613f0b81613ecf565b9050919050565b7f4e487b7100000000000000000000000000000000000000000000000000000000600052603260045260246000fd5b7f4e487b7100000000000000000000000000000000000000000000000000000000600052601160045260246000fd5b6000613f7b8261386a565b9150613f868361386a565b9250828201905080821115613f9e57613f9d613f41565b5b92915050565b6000613faf82613a28565b9150613fba83613a28565b9250828201905062ffffff811115613fd557613fd4613f41565b5b92915050565b6000613fe68261386a565b91507fffffffffffffffffffffffffffffffffffffffffffffffffffffffffffffffff820361401857614017613f41565b5b600182019050919050565b7f5573657220686173206e6f206469766964656e64730000000000000000000000600082015250565b6000614059601583613d71565b915061406482614023565b602082019050919050565b600060208201905081810360008301526140888161404c565b9050919050565b7f4e487b7100000000000000000000000000000000000000000000000000000000600052604160045260246000fd5b60006140c98261386a565b91506140d48361386a565b92508282039050818111156140ec576140eb613f41565b5b92915050565b60006140fd8261386a565b9150600082036141105761410f613f41565b5b600182039050919050565b7f4f6e6c79206f776e65722063616e2063616c6c20746869732066756e6374696f60008201527f6e2e000000000000000000000000000000000000000000000000000000000000602082015250565b6000614177602283613d71565b91506141828261411b565b604082019050919050565b600060208201905081810360008301526141a68161416a565b9050919050565b600069ffffffffffffffffffff82169050919050565b6141cc816141ad565b81146141d757600080fd5b50565b6000815190506141e9816141c3565b92915050565b6141f881613d07565b811461420357600080fd5b50565b600081519050614215816141ef565b92915050565b60008151905061422a81613b40565b92915050565b600080600080600060a0868803121561424c5761424b61389e565b5b600061425a888289016141da565b955050602061426b88828901614206565b945050604061427c8882890161421b565b935050606061428d8882890161421b565b925050608061429e888289016141da565b9150509295509295909350565b7f526f756e64206e6f7420636f6d706c6574650000000000000000000000000000600082015250565b60006142e1601283613d71565b91506142ec826142ab565b602082019050919050565b60006020820190508181036000830152614310816142d4565b9050919050565b7f536166654d6174683a206469766973696f6e206279207a65726f000000000000600082015250565b600061434d601a83613d71565b915061435882614317565b602082019050919050565b6000602082019050818103600083015261437c81614340565b9050919050565b7f4e487b7100000000000000000000000000000000000000000000000000000000600052601260045260246000fd5b60006143bd8261386a565b91506143c88361386a565b9250826143d8576143d7614383565b5b828204905092915050565b60006143ee8261386a565b91506143f98361386a565b92508282026144078161386a565b9150828204841483151761441e5761441d613f41565b5b5092915050565b7f536166654d6174683a206d756c7469706c69636174696f6e206f766572666c6f60008201527f7700000000000000000000000000000000000000000000000000000000000000602082015250565b6000614481602183613d71565b915061448c82614425565b604082019050919050565b600060208201905081810360008301526144b081614474565b9050919050565b7f43616e6e6f74207365742073656c662061732075706c696e6520706172746e6560008201527f7200000000000000000000000000000000000000000000000000000000000000602082015250565b6000614513602183613d71565b915061451e826144b7565b604082019050919050565b6000602082019050818103600083015261454281614506565b9050919050565b7f55706c696e6520706172746e657220616c726561647920736574000000000000600082015250565b600061457f601a83613d71565b915061458a82614549565b602082019050919050565b600060208201905081810360008301526145ae81614572565b9050919050565b7f536166654d6174683a206164646974696f6e206f766572666c6f770000000000600082015250565b60006145eb601b83613d71565b91506145f6826145b5565b602082019050919050565b6000602082019050818103600083015261461a816145de565b9050919050565b600061462c82613a28565b915062ffffff820361464157614640613f41565b5b600182019050919050565b7f536166654d6174683a207375627472616374696f6e206f766572666c6f770000600082015250565b6000614682601e83613d71565b915061468d8261464c565b602082019050919050565b600060208201905081810360008301526146b181614675565b905091905056fea26469706673582212208d7799d39359901341af61d517629983f6ac9a9bb658ec0704be9b13184c5f3e64736f6c63430008160033",
  "linkReferences": {},
  "deployedLinkReferences": {}
}