{
  "_format": "hh-sol-artifact-1",
  "contractName": "MaticFund",
  "sourceName": "contracts/MaticFund.sol",
  "abi": [
    {
      "inputs": [
        {
          "internalType": "address payable",
          "name": "marketingAddr",
          "type": "address"
        },
        {
          "internalType": "address payable",
          "name": "projectAddr",
          "type": "address"
        },
        {
          "internalType": "address payable",
          "name": "devAddr",
          "type": "address"
        },
        {
          "internalType": "address payable",
          "name": "_nAddress1",
          "type": "address"
        },
        {
          "internalType": "address payable",
          "name": "_nAddress2",
          "type": "address"
        },
        {
          "internalType": "address payable",
          "name": "_priceFeedAddress",
          "type": "address"
        }
      ],
      "stateMutability": "nonpayable",
      "type": "constructor"
    },
    {
      "anonymous": false,
      "inputs": [
        {
          "indexed": true,
          "internalType": "address",
          "name": "user",
          "type": "address"
        },
        {
          "indexed": false,
          "internalType": "uint256",
          "name": "totalAmount",
          "type": "uint256"
        }
      ],
      "name": "FeePayed",
      "type": "event"
    },
    {
      "anonymous": false,
      "inputs": [
        {
          "indexed": true,
          "internalType": "address",
          "name": "user",
          "type": "address"
        },
        {
          "indexed": false,
          "internalType": "uint256",
          "name": "amount",
          "type": "uint256"
        },
        {
          "indexed": false,
          "internalType": "uint256",
          "name": "usdAmount",
          "type": "uint256"
        }
      ],
      "name": "NewDeposit",
      "type": "event"
    },
    {
      "anonymous": false,
      "inputs": [
        {
          "indexed": false,
          "internalType": "address",
          "name": "user",
          "type": "address"
        }
      ],
      "name": "Newbie",
      "type": "event"
    },
    {
      "anonymous": false,
      "inputs": [
        {
          "indexed": true,
          "internalType": "address",
          "name": "referrer",
          "type": "address"
        },
        {
          "indexed": true,
          "internalType": "address",
          "name": "referral",
          "type": "address"
        },
        {
          "indexed": false,
          "internalType": "uint256",
          "name": "amount",
          "type": "uint256"
        }
      ],
      "name": "RefBack",
      "type": "event"
    },
    {
      "anonymous": false,
      "inputs": [
        {
          "indexed": true,
          "internalType": "address",
          "name": "referrer",
          "type": "address"
        },
        {
          "indexed": true,
          "internalType": "address",
          "name": "referral",
          "type": "address"
        },
        {
          "indexed": true,
          "internalType": "uint256",
          "name": "level",
          "type": "uint256"
        },
        {
          "indexed": false,
          "internalType": "uint256",
          "name": "amount",
          "type": "uint256"
        }
      ],
      "name": "RefBonus",
      "type": "event"
    },
    {
      "anonymous": false,
      "inputs": [
        {
          "indexed": true,
          "internalType": "address",
          "name": "referrer",
          "type": "address"
        },
        {
          "indexed": true,
          "internalType": "address",
          "name": "referral",
          "type": "address"
        },
        {
          "indexed": true,
          "internalType": "uint256",
          "name": "level",
          "type": "uint256"
        },
        {
          "indexed": false,
          "internalType": "uint256",
          "name": "amount",
          "type": "uint256"
        }
      ],
      "name": "RefBonusMissed",
      "type": "event"
    },
    {
      "anonymous": false,
      "inputs": [
        {
          "indexed": true,
          "internalType": "address",
          "name": "walletAddress",
          "type": "address"
        },
        {
          "indexed": true,
          "internalType": "address",
          "name": "uplinePartner",
          "type": "address"
        }
      ],
      "name": "UplinePartnerSet",
      "type": "event"
    },
    {
      "anonymous": false,
      "inputs": [
        {
          "indexed": true,
          "internalType": "address",
          "name": "user",
          "type": "address"
        },
        {
          "indexed": false,
          "internalType": "uint256",
          "name": "amount",
          "type": "uint256"
        },
        {
          "indexed": false,
          "internalType": "uint256",
          "name": "usdAmount",
          "type": "uint256"
        }
      ],
      "name": "Withdrawn",
      "type": "event"
    },
    {
      "inputs": [],
      "name": "DEPOSITS_MAX",
      "outputs": [
        {
          "internalType": "uint256",
          "name": "",
          "type": "uint256"
        }
      ],
      "stateMutability": "view",
      "type": "function"
    },
    {
      "inputs": [],
      "name": "Dev_Fee",
      "outputs": [
        {
          "internalType": "uint256",
          "name": "",
          "type": "uint256"
        }
      ],
      "stateMutability": "view",
      "type": "function"
    },
    {
      "inputs": [],
      "name": "INVEST_MAX_AMOUNT",
      "outputs": [
        {
          "internalType": "uint256",
          "name": "",
          "type": "uint256"
        }
      ],
      "stateMutability": "view",
      "type": "function"
    },
    {
      "inputs": [],
      "name": "INVEST_MIN_AMOUNT",
      "outputs": [
        {
          "internalType": "uint256",
          "name": "",
          "type": "uint256"
        }
      ],
      "stateMutability": "view",
      "type": "function"
    },
    {
      "inputs": [],
      "name": "MARKETING_FEE",
      "outputs": [
        {
          "internalType": "uint256",
          "name": "",
          "type": "uint256"
        }
      ],
      "stateMutability": "view",
      "type": "function"
    },
    {
      "inputs": [],
      "name": "MAX_HOLD_PERCENT",
      "outputs": [
        {
          "internalType": "uint256",
          "name": "",
          "type": "uint256"
        }
      ],
      "stateMutability": "view",
      "type": "function"
    },
    {
      "inputs": [],
      "name": "PERCENTS_DIVIDER",
      "outputs": [
        {
          "internalType": "uint256",
          "name": "",
          "type": "uint256"
        }
      ],
      "stateMutability": "view",
      "type": "function"
    },
    {
      "inputs": [],
      "name": "PROJECT_FEE",
      "outputs": [
        {
          "internalType": "uint256",
          "name": "",
          "type": "uint256"
        }
      ],
      "stateMutability": "view",
      "type": "function"
    },
    {
      "inputs": [],
      "name": "TIME_STEP",
      "outputs": [
        {
          "internalType": "uint256",
          "name": "",
          "type": "uint256"
        }
      ],
      "stateMutability": "view",
      "type": "function"
    },
    {
      "inputs": [],
      "name": "contractAddress",
      "outputs": [
        {
          "internalType": "address",
          "name": "",
          "type": "address"
        }
      ],
      "stateMutability": "view",
      "type": "function"
    },
    {
      "inputs": [],
      "name": "contractCreationTime",
      "outputs": [
        {
          "internalType": "uint256",
          "name": "",
          "type": "uint256"
        }
      ],
      "stateMutability": "view",
      "type": "function"
    },
    {
      "inputs": [],
      "name": "contractPercent",
      "outputs": [
        {
          "internalType": "uint256",
          "name": "",
          "type": "uint256"
        }
      ],
      "stateMutability": "view",
      "type": "function"
    },
    {
      "inputs": [],
      "name": "contractTradeProfit",
      "outputs": [
        {
          "internalType": "uint256",
          "name": "",
          "type": "uint256"
        }
      ],
      "stateMutability": "view",
      "type": "function"
    },
    {
      "inputs": [],
      "name": "devAdress",
      "outputs": [
        {
          "internalType": "address payable",
          "name": "",
          "type": "address"
        }
      ],
      "stateMutability": "view",
      "type": "function"
    },
    {
      "inputs": [
        {
          "internalType": "address",
          "name": "userAddress",
          "type": "address"
        }
      ],
      "name": "getAccountStats",
      "outputs": [
        {
          "internalType": "uint256",
          "name": "",
          "type": "uint256"
        },
        {
          "internalType": "uint256",
          "name": "",
          "type": "uint256"
        }
      ],
      "stateMutability": "view",
      "type": "function"
    },
    {
      "inputs": [],
      "name": "getContractAddress",
      "outputs": [
        {
          "internalType": "address",
          "name": "",
          "type": "address"
        }
      ],
      "stateMutability": "view",
      "type": "function"
    },
    {
      "inputs": [],
      "name": "getContractBalance",
      "outputs": [
        {
          "internalType": "uint256",
          "name": "",
          "type": "uint256"
        }
      ],
      "stateMutability": "view",
      "type": "function"
    },
    {
      "inputs": [],
      "name": "getLatestPrice",
      "outputs": [
        {
          "internalType": "uint256",
          "name": "",
          "type": "uint256"
        }
      ],
      "stateMutability": "view",
      "type": "function"
    },
    {
      "inputs": [],
      "name": "getSiteStats",
      "outputs": [
        {
          "internalType": "uint256",
          "name": "",
          "type": "uint256"
        },
        {
          "internalType": "uint256",
          "name": "",
          "type": "uint256"
        },
        {
          "internalType": "uint256",
          "name": "",
          "type": "uint256"
        },
        {
          "internalType": "uint256",
          "name": "",
          "type": "uint256"
        },
        {
          "internalType": "uint256",
          "name": "",
          "type": "uint256"
        }
      ],
      "stateMutability": "view",
      "type": "function"
    },
    {
      "inputs": [
        {
          "internalType": "address",
          "name": "userAddress",
          "type": "address"
        }
      ],
      "name": "getTotalMissedAmount",
      "outputs": [
        {
          "internalType": "uint256",
          "name": "",
          "type": "uint256"
        }
      ],
      "stateMutability": "view",
      "type": "function"
    },
    {
      "inputs": [
        {
          "internalType": "address",
          "name": "userAddress",
          "type": "address"
        }
      ],
      "name": "getUserDepositStats",
      "outputs": [
        {
          "internalType": "uint256",
          "name": "",
          "type": "uint256"
        },
        {
          "internalType": "uint256",
          "name": "",
          "type": "uint256"
        },
        {
          "internalType": "uint256",
          "name": "",
          "type": "uint256"
        },
        {
          "internalType": "uint256",
          "name": "",
          "type": "uint256"
        },
        {
          "components": [
            {
              "internalType": "uint256",
              "name": "amount",
              "type": "uint256"
            },
            {
              "internalType": "uint256",
              "name": "withdrawn",
              "type": "uint256"
            },
            {
              "internalType": "uint256",
              "name": "start",
              "type": "uint256"
            },
            {
              "internalType": "uint256",
              "name": "usd_amount",
              "type": "uint256"
            },
            {
              "internalType": "uint256",
              "name": "usd_withdrawn",
              "type": "uint256"
            },
            {
              "internalType": "bool",
              "name": "active",
              "type": "bool"
            }
          ],
          "internalType": "struct MaticFund.Deposit[]",
          "name": "",
          "type": "tuple[]"
        }
      ],
      "stateMutability": "view",
      "type": "function"
    },
    {
      "inputs": [
        {
          "internalType": "address",
          "name": "userAddress",
          "type": "address"
        }
      ],
      "name": "getUserDeposits",
      "outputs": [
        {
          "components": [
            {
              "internalType": "uint256",
              "name": "amount",
              "type": "uint256"
            },
            {
              "internalType": "uint256",
              "name": "withdrawn",
              "type": "uint256"
            },
            {
              "internalType": "uint256",
              "name": "start",
              "type": "uint256"
            },
            {
              "internalType": "uint256",
              "name": "usd_amount",
              "type": "uint256"
            },
            {
              "internalType": "uint256",
              "name": "usd_withdrawn",
              "type": "uint256"
            },
            {
              "internalType": "bool",
              "name": "active",
              "type": "bool"
            }
          ],
          "internalType": "struct MaticFund.Deposit[]",
          "name": "",
          "type": "tuple[]"
        }
      ],
      "stateMutability": "view",
      "type": "function"
    },
    {
      "inputs": [
        {
          "internalType": "address",
          "name": "userAddress",
          "type": "address"
        }
      ],
      "name": "getUserReferralsStats",
      "outputs": [
        {
          "internalType": "address",
          "name": "",
          "type": "address"
        },
        {
          "internalType": "uint256",
          "name": "",
          "type": "uint256"
        },
        {
          "internalType": "uint256",
          "name": "",
          "type": "uint256"
        },
        {
          "internalType": "uint256",
          "name": "",
          "type": "uint256"
        },
        {
          "internalType": "uint24[12]",
          "name": "",
          "type": "uint24[12]"
        },
        {
          "internalType": "uint256",
          "name": "",
          "type": "uint256"
        },
        {
          "internalType": "uint256",
          "name": "",
          "type": "uint256"
        }
      ],
      "stateMutability": "view",
      "type": "function"
    },
    {
      "inputs": [
        {
          "internalType": "address",
          "name": "userAddress",
          "type": "address"
        }
      ],
      "name": "getUserWithdrawStats",
      "outputs": [
        {
          "internalType": "uint256",
          "name": "",
          "type": "uint256"
        },
        {
          "internalType": "uint256",
          "name": "",
          "type": "uint256"
        }
      ],
      "stateMutability": "view",
      "type": "function"
    },
    {
      "inputs": [
        {
          "internalType": "address payable",
          "name": "userRefAddress",
          "type": "address"
        }
      ],
      "name": "invest",
      "outputs": [],
      "stateMutability": "payable",
      "type": "function"
    },
    {
      "inputs": [
        {
          "internalType": "address",
          "name": "userAddress",
          "type": "address"
        }
      ],
      "name": "isActive",
      "outputs": [
        {
          "internalType": "bool",
          "name": "",
          "type": "bool"
        }
      ],
      "stateMutability": "view",
      "type": "function"
    },
    {
      "inputs": [],
      "name": "marketingAddress",
      "outputs": [
        {
          "internalType": "address payable",
          "name": "",
          "type": "address"
        }
      ],
      "stateMutability": "view",
      "type": "function"
    },
    {
      "inputs": [],
      "name": "nAddress1",
      "outputs": [
        {
          "internalType": "address payable",
          "name": "",
          "type": "address"
        }
      ],
      "stateMutability": "view",
      "type": "function"
    },
    {
      "inputs": [],
      "name": "nAddress2",
      "outputs": [
        {
          "internalType": "address payable",
          "name": "",
          "type": "address"
        }
      ],
      "stateMutability": "view",
      "type": "function"
    },
    {
      "inputs": [],
      "name": "owner",
      "outputs": [
        {
          "internalType": "address",
          "name": "",
          "type": "address"
        }
      ],
      "stateMutability": "view",
      "type": "function"
    },
    {
      "inputs": [],
      "name": "projectAddress",
      "outputs": [
        {
          "internalType": "address payable",
          "name": "",
          "type": "address"
        }
      ],
      "stateMutability": "view",
      "type": "function"
    },
    {
      "inputs": [
        {
          "internalType": "address",
          "name": "addr",
          "type": "address"
        }
      ],
      "name": "setContractAddress",
      "outputs": [],
      "stateMutability": "nonpayable",
      "type": "function"
    },
    {
      "inputs": [],
      "name": "totalInvestAmount",
      "outputs": [
        {
          "internalType": "uint256",
          "name": "",
          "type": "uint256"
        }
      ],
      "stateMutability": "view",
      "type": "function"
    },
    {
      "inputs": [],
      "name": "totalInvestCount",
      "outputs": [
        {
          "internalType": "uint256",
          "name": "",
          "type": "uint256"
        }
      ],
      "stateMutability": "view",
      "type": "function"
    },
    {
      "inputs": [],
      "name": "totalWithdrawn",
      "outputs": [
        {
          "internalType": "uint256",
          "name": "",
          "type": "uint256"
        }
      ],
      "stateMutability": "view",
      "type": "function"
    },
    {
      "inputs": [
        {
          "internalType": "address",
          "name": "",
          "type": "address"
        }
      ],
      "name": "uplinePartners",
      "outputs": [
        {
          "internalType": "address",
          "name": "",
          "type": "address"
        }
      ],
      "stateMutability": "view",
      "type": "function"
    },
    {
      "inputs": [],
      "name": "withdraw",
      "outputs": [],
      "stateMutability": "nonpayable",
      "type": "function"
    }
  ],
  "bytecode": "0x60806040526032600b553480156200001657600080fd5b50604051620059a8380380620059a883398181016040528101906200003c919062000a9e565b85600260006101000a81548173ffffffffffffffffffffffffffffffffffffffff021916908373ffffffffffffffffffffffffffffffffffffffff16021790555084600360006101000a81548173ffffffffffffffffffffffffffffffffffffffff021916908373ffffffffffffffffffffffffffffffffffffffff16021790555083600460006101000a81548173ffffffffffffffffffffffffffffffffffffffff021916908373ffffffffffffffffffffffffffffffffffffffff16021790555042600c8190555082600560006101000a81548173ffffffffffffffffffffffffffffffffffffffff021916908373ffffffffffffffffffffffffffffffffffffffff16021790555081600660006101000a81548173ffffffffffffffffffffffffffffffffffffffff021916908373ffffffffffffffffffffffffffffffffffffffff16021790555033600160006101000a81548173ffffffffffffffffffffffffffffffffffffffff021916908373ffffffffffffffffffffffffffffffffffffffff16021790555060405180608001604052806103e88152602001670de0b6b3a76400008152602001600062ffffff168152602001600160ff1681525060126000600c811062000216576200021562000b3a565b5b60030201600082015181600001556020820151816001015560408201518160020160006101000a81548162ffffff021916908362ffffff16021790555060608201518160020160036101000a81548160ff021916908360ff160217905550905050604051806080016040528060c88152602001674563918244f400008152602001600162ffffff168152602001600260ff1681525060126001600c8110620002c357620002c262000b3a565b5b60030201600082015181600001556020820151816001015560408201518160020160006101000a81548162ffffff021916908362ffffff16021790555060608201518160020160036101000a81548160ff021916908360ff160217905550905050604051806080016040528060648152602001678ac7230489e800008152602001600162ffffff168152602001600260ff1681525060126002600c811062000370576200036f62000b3a565b5b60030201600082015181600001556020820151816001015560408201518160020160006101000a81548162ffffff021916908362ffffff16021790555060608201518160020160036101000a81548160ff021916908360ff160217905550905050604051806080016040528060648152602001678ac7230489e800008152602001600162ffffff168152602001600260ff1681525060126003600c81106200041d576200041c62000b3a565b5b60030201600082015181600001556020820151816001015560408201518160020160006101000a81548162ffffff021916908362ffffff16021790555060608201518160020160036101000a81548160ff021916908360ff160217905550905050604051806080016040528060648152602001678ac7230489e800008152602001600162ffffff168152602001600260ff1681525060126004600c8110620004ca57620004c962000b3a565b5b60030201600082015181600001556020820151816001015560408201518160020160006101000a81548162ffffff021916908362ffffff16021790555060608201518160020160036101000a81548160ff021916908360ff160217905550905050604051806080016040528060648152602001678ac7230489e800008152602001600662ffffff168152602001600660ff1681525060126005600c811062000577576200057662000b3a565b5b60030201600082015181600001556020820151816001015560408201518160020160006101000a81548162ffffff021916908362ffffff16021790555060608201518160020160036101000a81548160ff021916908360ff16021790555090505060405180608001604052806064815260200167d02ab486cedc00008152602001600762ffffff168152602001600760ff1681525060126006600c811062000624576200062362000b3a565b5b60030201600082015181600001556020820151816001015560408201518160020160006101000a81548162ffffff021916908362ffffff16021790555060608201518160020160036101000a81548160ff021916908360ff16021790555090505060405180608001604052806064815260200167de0b6b3a764000008152602001600862ffffff168152602001600860ff1681525060126007600c8110620006d157620006d062000b3a565b5b60030201600082015181600001556020820151816001015560408201518160020160006101000a81548162ffffff021916908362ffffff16021790555060608201518160020160036101000a81548160ff021916908360ff16021790555090505060405180608001604052806064815260200167ebec21ee1da400008152602001600962ffffff168152602001600960ff1681525060126008600c81106200077e576200077d62000b3a565b5b60030201600082015181600001556020820151816001015560408201518160020160006101000a81548162ffffff021916908362ffffff16021790555060608201518160020160036101000a81548160ff021916908360ff16021790555090505060405180608001604052806064815260200167f9ccd8a1c50800008152602001600a62ffffff168152602001600a60ff1681525060126009600c81106200082b576200082a62000b3a565b5b60030201600082015181600001556020820151816001015560408201518160020160006101000a81548162ffffff021916908362ffffff16021790555060608201518160020160036101000a81548160ff021916908360ff160217905550905050604051806080016040528060648152602001680107ad8f556c6c00008152602001600b62ffffff168152602001600a60ff168152506012600a600c8110620008d957620008d862000b3a565b5b60030201600082015181600001556020820151816001015560408201518160020160006101000a81548162ffffff021916908362ffffff16021790555060608201518160020160036101000a81548160ff021916908360ff1602179055509050506040518060800160405280606481526020016801158e460913d000008152602001600c62ffffff168152602001600a60ff168152506012600b600c811062000987576200098662000b3a565b5b60030201600082015181600001556020820151816001015560408201518160020160006101000a81548162ffffff021916908362ffffff16021790555060608201518160020160036101000a81548160ff021916908360ff160217905550905050806000806101000a81548173ffffffffffffffffffffffffffffffffffffffff021916908373ffffffffffffffffffffffffffffffffffffffff16021790555050505050505062000b69565b600080fd5b600073ffffffffffffffffffffffffffffffffffffffff82169050919050565b600062000a668262000a39565b9050919050565b62000a788162000a59565b811462000a8457600080fd5b50565b60008151905062000a988162000a6d565b92915050565b60008060008060008060c0878903121562000abe5762000abd62000a34565b5b600062000ace89828a0162000a87565b965050602062000ae189828a0162000a87565b955050604062000af489828a0162000a87565b945050606062000b0789828a0162000a87565b935050608062000b1a89828a0162000a87565b92505060a062000b2d89828a0162000a87565b9150509295509295509295565b7f4e487b7100000000000000000000000000000000000000000000000000000000600052603260045260246000fd5b614e2f8062000b796000396000f3fe60806040526004361061021a5760003560e01c8063665db73d11610123578063a5ece941116100ab578063bc1d720d1161006f578063bc1d720d146107e8578063cea3e53014610813578063e262113e1461083e578063e956a7c714610869578063f6b4dfb4146108a65761021a565b8063a5ece941146106e9578063a8899d6314610714578063a992e60a14610751578063aef18c2514610792578063af3e2122146107bd5761021a565b80638da5cb5b116100f25780638da5cb5b146106005780638e15f4731461062b57806399cf3284146106565780639bb57718146106815780639f8a13d7146106ac5761021a565b8063665db73d146105415780636f9fb98a1461056c5780637d8cb7a2146105975780638896337d146105c25761021a565b806332e1c733116101a65780634476730811610175578063447673081461046c578063477bddaa1461049757806348d44bd1146104c05780634b319713146104eb5780635a18719c146105165761021a565b806332e1c733146103d45780633ccfd60b146103ff5780633cf96af11461041657806340653d3d146104415761021a565b80632a5bf6d2116101ed5780632a5bf6d2146102d35780632ba285e6146103105780632d369c901461035357806332a2c5d01461037e57806332bc298c146103a95761021a565b806301c234a81461021f57806303f9c7931461024a5780631dba5b081461026657806328cdfaeb14610295575b600080fd5b34801561022b57600080fd5b506102346108d1565b6040516102419190613f42565b60405180910390f35b610264600480360381019061025f9190613fc0565b6108d7565b005b34801561027257600080fd5b5061027b611906565b60405161028c959493929190613fed565b60405180910390f35b3480156102a157600080fd5b506102bc60048036038101906102b7919061407e565b61196a565b6040516102ca9291906140ab565b60405180910390f35b3480156102df57600080fd5b506102fa60048036038101906102f5919061407e565b611988565b6040516103079190614228565b60405180910390f35b34801561031c57600080fd5b506103376004803603810190610332919061407e565b611d51565b60405161034a9796959493929190614313565b60405180910390f35b34801561035f57600080fd5b50610368611e89565b6040516103759190614394565b60405180910390f35b34801561038a57600080fd5b50610393611eaf565b6040516103a091906143af565b60405180910390f35b3480156103b557600080fd5b506103be611ed9565b6040516103cb9190613f42565b60405180910390f35b3480156103e057600080fd5b506103e9611ede565b6040516103f69190613f42565b60405180910390f35b34801561040b57600080fd5b50610414611ee4565b005b34801561042257600080fd5b5061042b612748565b6040516104389190614394565b60405180910390f35b34801561044d57600080fd5b5061045661276e565b6040516104639190614394565b60405180910390f35b34801561047857600080fd5b50610481612794565b60405161048e9190613f42565b60405180910390f35b3480156104a357600080fd5b506104be60048036038101906104b9919061407e565b612799565b005b3480156104cc57600080fd5b506104d561286d565b6040516104e29190613f42565b60405180910390f35b3480156104f757600080fd5b50610500612873565b60405161050d9190613f42565b60405180910390f35b34801561052257600080fd5b5061052b612879565b6040516105389190613f42565b60405180910390f35b34801561054d57600080fd5b5061055661287e565b6040516105639190613f42565b60405180910390f35b34801561057857600080fd5b50610581612884565b60405161058e9190613f42565b60405180910390f35b3480156105a357600080fd5b506105ac6128c5565b6040516105b99190613f42565b60405180910390f35b3480156105ce57600080fd5b506105e960048036038101906105e4919061407e565b6128d3565b6040516105f79291906140ab565b60405180910390f35b34801561060c57600080fd5b506106156128f1565b60405161062291906143af565b60405180910390f35b34801561063757600080fd5b50610640612917565b60405161064d9190613f42565b60405180910390f35b34801561066257600080fd5b5061066b612a15565b6040516106789190613f42565b60405180910390f35b34801561068d57600080fd5b50610696612a1b565b6040516106a39190613f42565b60405180910390f35b3480156106b857600080fd5b506106d360048036038101906106ce919061407e565b612a21565b6040516106e091906143d9565b60405180910390f35b3480156106f557600080fd5b506106fe612b0a565b60405161070b9190614394565b60405180910390f35b34801561072057600080fd5b5061073b6004803603810190610736919061407e565b612b30565b6040516107489190613f42565b60405180910390f35b34801561075d57600080fd5b506107786004803603810190610773919061407e565b612b7c565b6040516107899594939291906143f4565b60405180910390f35b34801561079e57600080fd5b506107a7612bc4565b6040516107b49190613f42565b60405180910390f35b3480156107c957600080fd5b506107d2612bca565b6040516107df9190613f42565b60405180910390f35b3480156107f457600080fd5b506107fd612bd0565b60405161080a9190614394565b60405180910390f35b34801561081f57600080fd5b50610828612bf6565b6040516108359190613f42565b60405180910390f35b34801561084a57600080fd5b50610853612bfc565b6040516108609190613f42565b60405180910390f35b34801561087557600080fd5b50610890600480360381019061088b919061407e565b612c08565b60405161089d91906143af565b60405180910390f35b3480156108b257600080fd5b506108bb612c3b565b6040516108c891906143af565b60405180910390f35b61271081565b60008034905060006108e7612917565b90506000610918670de0b6b3a764000061090a8585612c6190919063ffffffff16565b612cdb90919063ffffffff16565b9050600073ffffffffffffffffffffffffffffffffffffffff168573ffffffffffffffffffffffffffffffffffffffff160361097457600d60009054906101000a900473ffffffffffffffffffffffffffffffffffffffff1694505b600061097e612d39565b9050600073ffffffffffffffffffffffffffffffffffffffff168173ffffffffffffffffffffffffffffffffffffffff16036109c5578594506109c086612da0565b6109c9565b8094505b3273ffffffffffffffffffffffffffffffffffffffff163373ffffffffffffffffffffffffffffffffffffffff1614610a37576040517f08c379a0000000000000000000000000000000000000000000000000000000008152600401610a2e906144ab565b60405180910390fd5b670de0b6b3a76400008210158015610a59575069d3c21bcecceda10000008211155b610a98576040517f08c379a0000000000000000000000000000000000000000000000000000000008152600401610a8f9061453d565b60405180910390fd5b6000601060003373ffffffffffffffffffffffffffffffffffffffff1673ffffffffffffffffffffffffffffffffffffffff168152602001908152602001600020905061012c816000018054905010610b26576040517f08c379a0000000000000000000000000000000000000000000000000000000008152600401610b1d906145cf565b60405180910390fd5b6000816000018054905003610b7957858160020160006101000a81548173ffffffffffffffffffffffffffffffffffffffff021916908373ffffffffffffffffffffffffffffffffffffffff1602179055505b6000610ba4612710610b9661025889612c6190919063ffffffff16565b612cdb90919063ffffffff16565b90506000610bd1612710610bc36102588a612c6190919063ffffffff16565b612cdb90919063ffffffff16565b90506000610bfd612710610bef60648b612c6190919063ffffffff16565b612cdb90919063ffffffff16565b9050600260009054906101000a900473ffffffffffffffffffffffffffffffffffffffff1673ffffffffffffffffffffffffffffffffffffffff166108fc849081150290604051600060405180830381858888f19350505050158015610c67573d6000803e3d6000fd5b50600360009054906101000a900473ffffffffffffffffffffffffffffffffffffffff1673ffffffffffffffffffffffffffffffffffffffff166108fc839081150290604051600060405180830381858888f19350505050158015610cd0573d6000803e3d6000fd5b50600460009054906101000a900473ffffffffffffffffffffffffffffffffffffffff1673ffffffffffffffffffffffffffffffffffffffff166108fc829081150290604051600060405180830381858888f19350505050158015610d39573d6000803e3d6000fd5b503373ffffffffffffffffffffffffffffffffffffffff167f2899dc8c12def1caa9accb64257cf2fd9f960f21bb27a560a757eae3c2ec43c1610d9783610d8986886130cb90919063ffffffff16565b6130cb90919063ffffffff16565b604051610da49190613f42565b60405180910390a260008073ffffffffffffffffffffffffffffffffffffffff168560020160009054906101000a900473ffffffffffffffffffffffffffffffffffffffff1673ffffffffffffffffffffffffffffffffffffffff16148015610e5257506000601060008c73ffffffffffffffffffffffffffffffffffffffff1673ffffffffffffffffffffffffffffffffffffffff16815260200190815260200160002060000180549050115b8015610e8a57503373ffffffffffffffffffffffffffffffffffffffff168a73ffffffffffffffffffffffffffffffffffffffff1614155b15610ed357898560020160006101000a81548173ffffffffffffffffffffffffffffffffffffffff021916908373ffffffffffffffffffffffffffffffffffffffff1602179055505b6000856001015414158015610ef057506000610eee33613129565b145b15610eff574285600101819055505b600d60009054906101000a900473ffffffffffffffffffffffffffffffffffffffff1673ffffffffffffffffffffffffffffffffffffffff168560020160009054906101000a900473ffffffffffffffffffffffffffffffffffffffff1673ffffffffffffffffffffffffffffffffffffffff1603610fa657610f9f6064610f9160168c612c6190919063ffffffff16565b612cdb90919063ffffffff16565b905061150c565b60005b600c81101561150a576000610ff6612710610fe8601285600c8110610fd157610fd06145ef565b5b60030201600001548e612c6190919063ffffffff16565b612cdb90919063ffffffff16565b905060008111156114fc57600073ffffffffffffffffffffffffffffffffffffffff168c73ffffffffffffffffffffffffffffffffffffffff16146114ec578161103f8d613213565b101580156110d3575061108e601283600c811061105f5761105e6145ef565b5b6003020160020160039054906101000a900460ff1660ff166110808e613308565b612c6190919063ffffffff16565b601060008e73ffffffffffffffffffffffffffffffffffffffff1673ffffffffffffffffffffffffffffffffffffffff16815260200190815260200160002060030154105b156112c0578b73ffffffffffffffffffffffffffffffffffffffff166108fc829081150290604051600060405180830381858888f1935050505015801561111e573d6000803e3d6000fd5b5061117481601060008f73ffffffffffffffffffffffffffffffffffffffff1673ffffffffffffffffffffffffffffffffffffffff168152602001908152602001600020600301546130cb90919063ffffffff16565b601060008e73ffffffffffffffffffffffffffffffffffffffff1673ffffffffffffffffffffffffffffffffffffffff1681526020019081526020016000206003018190555061120f81601060008f73ffffffffffffffffffffffffffffffffffffffff1673ffffffffffffffffffffffffffffffffffffffff168152602001908152602001600020600401546130cb90919063ffffffff16565b601060008e73ffffffffffffffffffffffffffffffffffffffff1673ffffffffffffffffffffffffffffffffffffffff16815260200190815260200160002060040181905550813373ffffffffffffffffffffffffffffffffffffffff168d73ffffffffffffffffffffffffffffffffffffffff167fd41f7e766eebcc7ff42b11ac8691bdf864db4afc0c55e71d629d54edce460d98846040516112b39190613f42565b60405180910390a461138e565b80836112cc919061464d565b925080601060008e73ffffffffffffffffffffffffffffffffffffffff1673ffffffffffffffffffffffffffffffffffffffff1681526020019081526020016000206006016000828254611320919061464d565b92505081905550813373ffffffffffffffffffffffffffffffffffffffff168d73ffffffffffffffffffffffffffffffffffffffff167f7b92e1ae99c8d93ece4ef845fd466d392a8ef44005cc85bc06be6c7420b200c3846040516113859190613f42565b60405180910390a45b601060008d73ffffffffffffffffffffffffffffffffffffffff1673ffffffffffffffffffffffffffffffffffffffff16815260200190815260200160002060090182600c81106113e2576113e16145ef565b5b600a918282040191900660030281819054906101000a900462ffffff168092919061140c90614681565b91906101000a81548162ffffff021916908362ffffff160217905550508a601060008e73ffffffffffffffffffffffffffffffffffffffff1673ffffffffffffffffffffffffffffffffffffffff168152602001908152602001600020600701600082825461147b919061464d565b92505081905550601060008d73ffffffffffffffffffffffffffffffffffffffff1673ffffffffffffffffffffffffffffffffffffffff16815260200190815260200160002060020160009054906101000a900473ffffffffffffffffffffffffffffffffffffffff169b506114fb565b80836114f8919061464d565b92505b5b508080600101915050610fa9565b505b600081111561160157600061152b600283612cdb90919063ffffffff16565b9050600560009054906101000a900473ffffffffffffffffffffffffffffffffffffffff1673ffffffffffffffffffffffffffffffffffffffff166108fc829081150290604051600060405180830381858888f19350505050158015611595573d6000803e3d6000fd5b50600660009054906101000a900473ffffffffffffffffffffffffffffffffffffffff1673ffffffffffffffffffffffffffffffffffffffff166108fc829081150290604051600060405180830381858888f193505050501580156115fe573d6000803e3d6000fd5b50505b600061160c33613129565b90506000611619336133b7565b9050600082148061162a5750600081145b15611639574287600101819055505b600087600001805490500361178d574287600101819055506001601060008960020160009054906101000a900473ffffffffffffffffffffffffffffffffffffffff1673ffffffffffffffffffffffffffffffffffffffff1673ffffffffffffffffffffffffffffffffffffffff168152602001908152602001600020600b0160008282829054906101000a900462ffffff166116d691906146ac565b92506101000a81548162ffffff021916908362ffffff1602179055507f9fd565cd14c3c391679eb0cad12a14dcf7534e9d3462bcb9b67a098a9bbbc24a3360405161172191906143af565b60405180910390a1600e339080600181540180825580915050600190039060005260206000200160009091909190916101000a81548173ffffffffffffffffffffffffffffffffffffffff021916908373ffffffffffffffffffffffffffffffffffffffff1602179055505b866000016040518060c001604052808d8152602001600081526020014281526020018b815260200160008152602001600115158152509080600181540180825580915050600190039060005260206000209060060201600090919091909150600082015181600001556020820151816001015560408201518160020155606082015181600301556080820151816004015560a08201518160050160006101000a81548160ff02191690831515021790555050508a876005016000828254611854919061464d565b925050819055508887600801600082825461186f919061464d565b925050819055508a60076000828254611888919061464d565b92505081905550600860008154809291906118a2906146e3565b91905055503373ffffffffffffffffffffffffffffffffffffffff167fa91e0c3165215fe453f5bf3de083d5fd6c4e62c491849155a042a647588c53a08c8b6040516118ef9291906140ab565b60405180910390a250505050505050505050505050565b6000806000806000600754600854600d60009054906101000a900473ffffffffffffffffffffffffffffffffffffffff1673ffffffffffffffffffffffffffffffffffffffff1631600b546119596134a1565b945094509450945094509091929394565b60008061197683613615565b61197f846136f4565b91509150915091565b60606000601060008473ffffffffffffffffffffffffffffffffffffffff1673ffffffffffffffffffffffffffffffffffffffff1681526020019081526020016000206040518061016001604052908160008201805480602002602001604051908101604052809291908181526020016000905b82821015611a7b57838290600052602060002090600602016040518060c001604052908160008201548152602001600182015481526020016002820154815260200160038201548152602001600482015481526020016005820160009054906101000a900460ff161515151581525050815260200190600101906119fc565b505050508152602001600182015481526020016002820160009054906101000a900473ffffffffffffffffffffffffffffffffffffffff1673ffffffffffffffffffffffffffffffffffffffff1673ffffffffffffffffffffffffffffffffffffffff16815260200160038201548152602001600482015481526020016005820154815260200160068201548152602001600782015481526020016008820154815260200160098201600c806020026040519081016040528092919082600c8015611b85576020028201916000905b82829054906101000a900462ffffff1662ffffff1681526020019060030190602082600201049283019260010382029150808411611b4a5790505b50505050508152602001600b820160009054906101000a900462ffffff1662ffffff1662ffffff16815250509050600081600001515167ffffffffffffffff811115611bd457611bd361472b565b5b604051908082528060200260200182016040528015611c0d57816020015b611bfa613ece565b815260200190600190039081611bf25790505b50905060005b826000015151811015611d46576040518060c0016040528084600001518381518110611c4257611c416145ef565b5b602002602001015160000151815260200184600001518381518110611c6a57611c696145ef565b5b602002602001015160200151815260200184600001518381518110611c9257611c916145ef565b5b602002602001015160400151815260200184600001518381518110611cba57611cb96145ef565b5b602002602001015160600151815260200184600001518381518110611ce257611ce16145ef565b5b602002602001015160800151815260200184600001518381518110611d0a57611d096145ef565b5b602002602001015160a001511515815250828281518110611d2e57611d2d6145ef565b5b60200260200101819052508080600101915050611c13565b508092505050919050565b600080600080611d5f613f06565b6000806000601060008a73ffffffffffffffffffffffffffffffffffffffff1673ffffffffffffffffffffffffffffffffffffffff16815260200190815260200160002090508060020160009054906101000a900473ffffffffffffffffffffffffffffffffffffffff168160030154826004015483600b0160009054906101000a900462ffffff1684600901611df58e613ac4565b611dfe8f613bbf565b8362ffffff16935082600c806020026040519081016040528092919082600c8015611e68576020028201916000905b82829054906101000a900462ffffff1662ffffff1681526020019060030190602082600201049283019260010382029150808411611e2d5790505b50505050509250975097509750975097509750975050919395979092949650565b600660009054906101000a900473ffffffffffffffffffffffffffffffffffffffff1681565b6000600d60009054906101000a900473ffffffffffffffffffffffffffffffffffffffff16905090565b600181565b60085481565b6000601060003373ffffffffffffffffffffffffffffffffffffffff1673ffffffffffffffffffffffffffffffffffffffff16815260200190815260200160002090506000611f3233613615565b90506000611f3e612884565b9050600080600080600290506000611f54612917565b905060008611611f99576040517f08c379a0000000000000000000000000000000000000000000000000000000008152600401611f90906147a6565b60405180910390fd5b60005b886000018054905081101561263f57611feb8363ffffffff168a6000018381548110611fcb57611fca6145ef565b5b906000526020600020906006020160000154612c6190919063ffffffff16565b896000018281548110612001576120006145ef565b5b9060005260206000209060060201600101541015612632576120598363ffffffff168a6000018381548110612039576120386145ef565b5b906000526020600020906006020160030154612c6190919063ffffffff16565b89600001828154811061206f5761206e6145ef565b5b906000526020600020906006020160040154101561263157600089600001828154811061209f5761209e6145ef565b5b906000526020600020906006020160000154905089600101548a60000183815481106120ce576120cd6145ef565b5b90600052602060002090600602016002015411156121725761216b600161215d6121288d6000018681548110612107576121066145ef565b5b90600052602060002090600602016002015442613c0b90919063ffffffff16565b61214f6127106121418f88612c6190919063ffffffff16565b612cdb90919063ffffffff16565b612c6190919063ffffffff16565b612cdb90919063ffffffff16565b94506121d7565b6121d460016121c66121918d6001015442613c0b90919063ffffffff16565b6121b86127106121aa8f88612c6190919063ffffffff16565b612cdb90919063ffffffff16565b612c6190919063ffffffff16565b612cdb90919063ffffffff16565b94505b6122178463ffffffff168b60000184815481106121f7576121f66145ef565b5b906000526020600020906006020160000154612c6190919063ffffffff16565b612251868c6000018581548110612231576122306145ef565b5b9060005260206000209060060201600101546130cb90919063ffffffff16565b1115612313576122d08a60000183815481106122705761226f6145ef565b5b9060005260206000209060060201600101546122c28663ffffffff168d60000186815481106122a2576122a16145ef565b5b906000526020600020906006020160000154612c6190919063ffffffff16565b613c0b90919063ffffffff16565b945060008a60000183815481106122ea576122e96145ef565b5b906000526020600020906006020160050160006101000a81548160ff0219169083151502179055505b8761232786896130cb90919063ffffffff16565b1115612343576123408789613c0b90919063ffffffff16565b94505b6000612372670de0b6b3a76400006123648689612c6190919063ffffffff16565b612cdb90919063ffffffff16565b905060006123b0828d60000186815481106123905761238f6145ef565b5b9060005260206000209060060201600401546130cb90919063ffffffff16565b905060006123f48763ffffffff168e60000187815481106123d4576123d36145ef565b5b906000526020600020906006020160030154612c6190919063ffffffff16565b9050808211156124e05760006124138284613c0b90919063ffffffff16565b905060008111156124de57600061244d8861243f670de0b6b3a764000085612c6190919063ffffffff16565b612cdb90919063ffffffff16565b9050808a111561246d5761246a818b613c0b90919063ffffffff16565b99505b61249a670de0b6b3a764000061248c8a8d612c6190919063ffffffff16565b612cdb90919063ffffffff16565b945060008f60000188815481106124b4576124b36145ef565b5b906000526020600020906006020160050160006101000a81548160ff021916908315150217905550505b505b61251a888e60000187815481106124fa576124f96145ef565b5b9060005260206000209060060201600101546130cb90919063ffffffff16565b8d60000186815481106125305761252f6145ef565b5b9060005260206000209060060201600101819055506125ab612575670de0b6b3a7640000612567898c612c6190919063ffffffff16565b612cdb90919063ffffffff16565b8e600001878154811061258b5761258a6145ef565b5b9060005260206000209060060201600401546130cb90919063ffffffff16565b8d60000186815481106125c1576125c06145ef565b5b9060005260206000209060060201600401819055506125e9888b6130cb90919063ffffffff16565b995061262a61261b670de0b6b3a764000061260d898c612c6190919063ffffffff16565b612cdb90919063ffffffff16565b8a6130cb90919063ffffffff16565b9850505050505b5b8080600101915050611f9c565b5060008511612683576040517f08c379a000000000000000000000000000000000000000000000000000000000815260040161267a90614812565b60405180910390fd5b4288600101819055503373ffffffffffffffffffffffffffffffffffffffff166108fc869081150290604051600060405180830381858888f193505050501580156126d2573d6000803e3d6000fd5b506126e8856009546130cb90919063ffffffff16565b6009819055503373ffffffffffffffffffffffffffffffffffffffff167f92ccf450a286a957af52509bc1c9939d1a6a481783e142e41e2499f0bb66ebc686866040516127369291906140ab565b60405180910390a25050505050505050565b600360009054906101000a900473ffffffffffffffffffffffffffffffffffffffff1681565b600460009054906101000a900473ffffffffffffffffffffffffffffffffffffffff1681565b603281565b600160009054906101000a900473ffffffffffffffffffffffffffffffffffffffff1673ffffffffffffffffffffffffffffffffffffffff163373ffffffffffffffffffffffffffffffffffffffff1614612829576040517f08c379a0000000000000000000000000000000000000000000000000000000008152600401612820906148a4565b60405180910390fd5b80600d60006101000a81548173ffffffffffffffffffffffffffffffffffffffff021916908373ffffffffffffffffffffffffffffffffffffffff16021790555050565b61025881565b60095481565b606481565b60075481565b6000600d60009054906101000a900473ffffffffffffffffffffffffffffffffffffffff1673ffffffffffffffffffffffffffffffffffffffff1631905090565b69d3c21bcecceda100000081565b6000806128df83613c6a565b6128e884613d1d565b91509150915091565b600160009054906101000a900473ffffffffffffffffffffffffffffffffffffffff1681565b60008060008060009054906101000a900473ffffffffffffffffffffffffffffffffffffffff1673ffffffffffffffffffffffffffffffffffffffff1663feaf968c6040518163ffffffff1660e01b815260040160a060405180830381865afa158015612988573d6000803e3d6000fd5b505050506040513d601f19601f820116820180604052508101906129ac9190614968565b50935050925050600081116129f6576040517f08c379a00000000000000000000000000000000000000000000000000000000081526004016129ed90614a2f565b60405180910390fd5b612a0e6402540be40083612c6190919063ffffffff16565b9250505090565b600a5481565b600b5481565b600080601060008473ffffffffffffffffffffffffffffffffffffffff1673ffffffffffffffffffffffffffffffffffffffff168152602001908152602001600020905060008160000180549050118015612b025750612ac560028260000160018460000180549050612a949190614a4f565b81548110612aa557612aa46145ef565b5b906000526020600020906006020160000154612c6190919063ffffffff16565b8160000160018360000180549050612add9190614a4f565b81548110612aee57612aed6145ef565b5b906000526020600020906006020160010154105b915050919050565b600260009054906101000a900473ffffffffffffffffffffffffffffffffffffffff1681565b6000601060008373ffffffffffffffffffffffffffffffffffffffff1673ffffffffffffffffffffffffffffffffffffffff168152602001908152602001600020600601549050919050565b6000806000806060612b8d86613308565b612b9687613dd0565b612b9f886133b7565b612ba889613e7f565b612bb18a611988565b9450945094509450945091939590929450565b61012c81565b61025881565b600560009054906101000a900473ffffffffffffffffffffffffffffffffffffffff1681565b600c5481565b670de0b6b3a764000081565b60116020528060005260406000206000915054906101000a900473ffffffffffffffffffffffffffffffffffffffff1681565b600d60009054906101000a900473ffffffffffffffffffffffffffffffffffffffff1681565b6000808303612c735760009050612cd5565b60008284612c819190614a83565b9050828482612c909190614af4565b14612cd0576040517f08c379a0000000000000000000000000000000000000000000000000000000008152600401612cc790614b97565b60405180910390fd5b809150505b92915050565b6000808211612d1f576040517f08c379a0000000000000000000000000000000000000000000000000000000008152600401612d1690614c03565b60405180910390fd5b60008284612d2d9190614af4565b90508091505092915050565b6000601160003373ffffffffffffffffffffffffffffffffffffffff1673ffffffffffffffffffffffffffffffffffffffff16815260200190815260200160002060009054906101000a900473ffffffffffffffffffffffffffffffffffffffff16905090565b6000339050600073ffffffffffffffffffffffffffffffffffffffff168273ffffffffffffffffffffffffffffffffffffffff1603612dff57600d60009054906101000a900473ffffffffffffffffffffffffffffffffffffffff1691505b8173ffffffffffffffffffffffffffffffffffffffff168173ffffffffffffffffffffffffffffffffffffffff1603612e6d576040517f08c379a0000000000000000000000000000000000000000000000000000000008152600401612e6490614c95565b60405180910390fd5b600073ffffffffffffffffffffffffffffffffffffffff16601160008373ffffffffffffffffffffffffffffffffffffffff1673ffffffffffffffffffffffffffffffffffffffff16815260200190815260200160002060009054906101000a900473ffffffffffffffffffffffffffffffffffffffff1673ffffffffffffffffffffffffffffffffffffffff1614612f3b576040517f08c379a0000000000000000000000000000000000000000000000000000000008152600401612f3290614d01565b60405180910390fd5b612f4482612a21565b15612fcc5781601160008373ffffffffffffffffffffffffffffffffffffffff1673ffffffffffffffffffffffffffffffffffffffff16815260200190815260200160002060006101000a81548173ffffffffffffffffffffffffffffffffffffffff021916908373ffffffffffffffffffffffffffffffffffffffff16021790555061306d565b600d60009054906101000a900473ffffffffffffffffffffffffffffffffffffffff16601160008373ffffffffffffffffffffffffffffffffffffffff1673ffffffffffffffffffffffffffffffffffffffff16815260200190815260200160002060006101000a81548173ffffffffffffffffffffffffffffffffffffffff021916908373ffffffffffffffffffffffffffffffffffffffff1602179055505b8173ffffffffffffffffffffffffffffffffffffffff168173ffffffffffffffffffffffffffffffffffffffff167f03f866f0601769ee34cf5fefebdb42b8cce13e8180f26d32faf3648e1f9e7cdc60405160405180910390a35050565b60008082846130da919061464d565b90508381101561311f576040517f08c379a000000000000000000000000000000000000000000000000000000000815260040161311690614d6d565b60405180910390fd5b8091505092915050565b600080601060008473ffffffffffffffffffffffffffffffffffffffff1673ffffffffffffffffffffffffffffffffffffffff1681526020019081526020016000209050600080600090505b82600001805490508110156132085782600001818154811061319a576131996145ef565b5b906000526020600020906006020160050160009054906101000a900460ff16156131fb576131f88360000182815481106131d7576131d66145ef565b5b906000526020600020906006020160000154836130cb90919063ffffffff16565b91505b8080600101915050613175565b508092505050919050565b6000805b600c8162ffffff1610156133025760128162ffffff16600c811061323e5761323d6145ef565b5b600302016001015461324f846133b7565b101580156132e7575060128162ffffff16600c8110613271576132706145ef565b5b6003020160020160009054906101000a900462ffffff1662ffffff16601060008573ffffffffffffffffffffffffffffffffffffffff1673ffffffffffffffffffffffffffffffffffffffff168152602001908152602001600020600b0160009054906101000a900462ffffff1662ffffff1610155b156132f5578062ffffff1691505b8080600101915050613217565b50919050565b600080601060008473ffffffffffffffffffffffffffffffffffffffff1673ffffffffffffffffffffffffffffffffffffffff1681526020019081526020016000209050600080600090505b82600001805490508110156133ac5761339d83600001828154811061337c5761337b6145ef565b5b906000526020600020906006020160000154836130cb90919063ffffffff16565b91508080600101915050613354565b508092505050919050565b600080601060008473ffffffffffffffffffffffffffffffffffffffff1673ffffffffffffffffffffffffffffffffffffffff1681526020019081526020016000209050600080600090505b826000018054905081101561349657826000018181548110613428576134276145ef565b5b906000526020600020906006020160050160009054906101000a900460ff161561348957613486836000018281548110613465576134646145ef565b5b906000526020600020906006020160030154836130cb90919063ffffffff16565b91505b8080600101915050613403565b508092505050919050565b600080600e8054905090506000805b8281101561360c57600060106000600e84815481106134d2576134d16145ef565b5b9060005260206000200160009054906101000a900473ffffffffffffffffffffffffffffffffffffffff1673ffffffffffffffffffffffffffffffffffffffff1673ffffffffffffffffffffffffffffffffffffffff168152602001908152602001600020905060008160000180549050905060005b818110156135fc576000836000018281548110613568576135676145ef565b5b906000526020600020906006020190508060050160009054906101000a900460ff166135ee576135a660028260000154612c6190919063ffffffff16565b816001015410156135ed576135df81600101546135d160028460000154612c6190919063ffffffff16565b613c0b90919063ffffffff16565b866135ea919061464d565b95505b5b508080600101915050613548565b50505080806001019150506134b0565b50809250505090565b600080601060008473ffffffffffffffffffffffffffffffffffffffff1673ffffffffffffffffffffffffffffffffffffffff168152602001908152602001600020905061366283612a21565b80156136765750600061367484613129565b115b156136e85760006136ba60056136ac600161369e866001015442613c0b90919063ffffffff16565b612cdb90919063ffffffff16565b612c6190919063ffffffff16565b905060328111156136ca57603290505b6136df81600b546130cb90919063ffffffff16565b925050506136ef565b600b549150505b919050565b600080601060008473ffffffffffffffffffffffffffffffffffffffff1673ffffffffffffffffffffffffffffffffffffffff1681526020019081526020016000209050600061374384613615565b905060008060006002905060005b8560000180549050811015613ab65761379a8287600001838154811061377a576137796145ef565b5b906000526020600020906006020160000154612c6190919063ffffffff16565b8660000182815481106137b0576137af6145ef565b5b9060005260206000209060060201600101541015613aa957613802828760000183815481106137e2576137e16145ef565b5b906000526020600020906006020160030154612c6190919063ffffffff16565b866000018281548110613818576138176145ef565b5b9060005260206000209060060201600401541015613aa857856001015486600001828154811061384b5761384a6145ef565b5b90600052602060002090600602016002015411156139165761390f60016139016138a5896000018581548110613884576138836145ef565b5b90600052602060002090600602016002015442613c0b90919063ffffffff16565b6138f36127106138e58b8d60000189815481106138c5576138c46145ef565b5b906000526020600020906006020160000154612c6190919063ffffffff16565b612cdb90919063ffffffff16565b612c6190919063ffffffff16565b612cdb90919063ffffffff16565b92506139a2565b61399f6001613991613935896001015442613c0b90919063ffffffff16565b6139836127106139758b8d6000018981548110613955576139546145ef565b5b906000526020600020906006020160000154612c6190919063ffffffff16565b612cdb90919063ffffffff16565b612c6190919063ffffffff16565b612cdb90919063ffffffff16565b92505b6139dc828760000183815481106139bc576139bb6145ef565b5b906000526020600020906006020160000154612c6190919063ffffffff16565b613a16848860000184815481106139f6576139f56145ef565b5b9060005260206000209060060201600101546130cb90919063ffffffff16565b1115613a9257613a8f866000018281548110613a3557613a346145ef565b5b906000526020600020906006020160010154613a8184896000018581548110613a6157613a606145ef565b5b906000526020600020906006020160000154612c6190919063ffffffff16565b613c0b90919063ffffffff16565b92505b613aa583856130cb90919063ffffffff16565b93505b5b8080600101915050613751565b508295505050505050919050565b6000806000905060005b601060008573ffffffffffffffffffffffffffffffffffffffff1673ffffffffffffffffffffffffffffffffffffffff16815260200190815260200160002050600c8162ffffff161015613bb557601060008573ffffffffffffffffffffffffffffffffffffffff1673ffffffffffffffffffffffffffffffffffffffff1681526020019081526020016000206009018162ffffff16600c8110613b7557613b746145ef565b5b600a91828204019190066003029054906101000a900462ffffff1662ffffff1682613ba0919061464d565b91508080613bad90614681565b915050613ace565b5080915050919050565b6000601060008373ffffffffffffffffffffffffffffffffffffffff1673ffffffffffffffffffffffffffffffffffffffff168152602001908152602001600020600701549050919050565b600082821115613c50576040517f08c379a0000000000000000000000000000000000000000000000000000000008152600401613c4790614dd9565b60405180910390fd5b60008284613c5e9190614a4f565b90508091505092915050565b600080601060008473ffffffffffffffffffffffffffffffffffffffff1673ffffffffffffffffffffffffffffffffffffffff168152602001908152602001600020905060008160030154905060005b8260000180549050811015613d1257613d03836000018281548110613ce257613ce16145ef565b5b906000526020600020906006020160010154836130cb90919063ffffffff16565b91508080600101915050613cba565b508092505050919050565b600080601060008473ffffffffffffffffffffffffffffffffffffffff1673ffffffffffffffffffffffffffffffffffffffff168152602001908152602001600020905060008160040154905060005b8260000180549050811015613dc557613db6836000018281548110613d9557613d946145ef565b5b906000526020600020906006020160040154836130cb90919063ffffffff16565b91508080600101915050613d6d565b508092505050919050565b600080601060008473ffffffffffffffffffffffffffffffffffffffff1673ffffffffffffffffffffffffffffffffffffffff1681526020019081526020016000209050600080600090505b8260000180549050811015613e7457613e65836000018281548110613e4457613e436145ef565b5b906000526020600020906006020160030154836130cb90919063ffffffff16565b91508080600101915050613e1c565b508092505050919050565b6000601060008373ffffffffffffffffffffffffffffffffffffffff1673ffffffffffffffffffffffffffffffffffffffff168152602001908152602001600020600001805490509050919050565b6040518060c0016040528060008152602001600081526020016000815260200160008152602001600081526020016000151581525090565b604051806101800160405280600c90602082028036833780820191505090505090565b6000819050919050565b613f3c81613f29565b82525050565b6000602082019050613f576000830184613f33565b92915050565b600080fd5b600073ffffffffffffffffffffffffffffffffffffffff82169050919050565b6000613f8d82613f62565b9050919050565b613f9d81613f82565b8114613fa857600080fd5b50565b600081359050613fba81613f94565b92915050565b600060208284031215613fd657613fd5613f5d565b5b6000613fe484828501613fab565b91505092915050565b600060a0820190506140026000830188613f33565b61400f6020830187613f33565b61401c6040830186613f33565b6140296060830185613f33565b6140366080830184613f33565b9695505050505050565b600061404b82613f62565b9050919050565b61405b81614040565b811461406657600080fd5b50565b60008135905061407881614052565b92915050565b60006020828403121561409457614093613f5d565b5b60006140a284828501614069565b91505092915050565b60006040820190506140c06000830185613f33565b6140cd6020830184613f33565b9392505050565b600081519050919050565b600082825260208201905092915050565b6000819050602082019050919050565b61410981613f29565b82525050565b60008115159050919050565b6141248161410f565b82525050565b60c0820160008201516141406000850182614100565b5060208201516141536020850182614100565b5060408201516141666040850182614100565b5060608201516141796060850182614100565b50608082015161418c6080850182614100565b5060a082015161419f60a085018261411b565b50505050565b60006141b1838361412a565b60c08301905092915050565b6000602082019050919050565b60006141d5826140d4565b6141df81856140df565b93506141ea836140f0565b8060005b8381101561421b57815161420288826141a5565b975061420d836141bd565b9250506001810190506141ee565b5085935050505092915050565b6000602082019050818103600083015261424281846141ca565b905092915050565b61425381614040565b82525050565b6000600c9050919050565b600081905092915050565b6000819050919050565b600062ffffff82169050919050565b61429181614279565b82525050565b60006142a38383614288565b60208301905092915050565b6000602082019050919050565b6142c581614259565b6142cf8184614264565b92506142da8261426f565b8060005b8381101561430b5781516142f28782614297565b96506142fd836142af565b9250506001810190506142de565b505050505050565b600061024082019050614329600083018a61424a565b6143366020830189613f33565b6143436040830188613f33565b6143506060830187613f33565b61435d60808301866142bc565b61436b610200830185613f33565b614379610220830184613f33565b98975050505050505050565b61438e81613f82565b82525050565b60006020820190506143a96000830184614385565b92915050565b60006020820190506143c4600083018461424a565b92915050565b6143d38161410f565b82525050565b60006020820190506143ee60008301846143ca565b92915050565b600060a0820190506144096000830188613f33565b6144166020830187613f33565b6144236040830186613f33565b6144306060830185613f33565b818103608083015261444281846141ca565b90509695505050505050565b600082825260208201905092915050565b7f7478206f726967696e203d206d73672e73656e64657200000000000000000000600082015250565b600061449560168361444e565b91506144a08261445f565b602082019050919050565b600060208201905081810360008301526144c481614488565b9050919050565b7f496e7665737420616d6f756e74206d757374206265206265747765656e20243160008201527f20616e642024312e3030302e3030300000000000000000000000000000000000602082015250565b6000614527602f8361444e565b9150614532826144cb565b604082019050919050565b600060208201905081810360008301526145568161451a565b9050919050565b7f4d6178696d756d20333030206465706f736974732066726f6d2061646472657360008201527f7300000000000000000000000000000000000000000000000000000000000000602082015250565b60006145b960218361444e565b91506145c48261455d565b604082019050919050565b600060208201905081810360008301526145e8816145ac565b9050919050565b7f4e487b7100000000000000000000000000000000000000000000000000000000600052603260045260246000fd5b7f4e487b7100000000000000000000000000000000000000000000000000000000600052601160045260246000fd5b600061465882613f29565b915061466383613f29565b925082820190508082111561467b5761467a61461e565b5b92915050565b600061468c82614279565b915062ffffff82036146a1576146a061461e565b5b600182019050919050565b60006146b782614279565b91506146c283614279565b9250828201905062ffffff8111156146dd576146dc61461e565b5b92915050565b60006146ee82613f29565b91507fffffffffffffffffffffffffffffffffffffffffffffffffffffffffffffffff82036147205761471f61461e565b5b600182019050919050565b7f4e487b7100000000000000000000000000000000000000000000000000000000600052604160045260246000fd5b7f436f6e74726163742042616c616e6365203a205a65726f000000000000000000600082015250565b600061479060178361444e565b915061479b8261475a565b602082019050919050565b600060208201905081810360008301526147bf81614783565b9050919050565b7f5573657220686173206e6f206469766964656e64730000000000000000000000600082015250565b60006147fc60158361444e565b9150614807826147c6565b602082019050919050565b6000602082019050818103600083015261482b816147ef565b9050919050565b7f4f6e6c79206f776e65722063616e2063616c6c20746869732066756e6374696f60008201527f6e2e000000000000000000000000000000000000000000000000000000000000602082015250565b600061488e60228361444e565b915061489982614832565b604082019050919050565b600060208201905081810360008301526148bd81614881565b9050919050565b600069ffffffffffffffffffff82169050919050565b6148e3816148c4565b81146148ee57600080fd5b50565b600081519050614900816148da565b92915050565b6000819050919050565b61491981614906565b811461492457600080fd5b50565b60008151905061493681614910565b92915050565b61494581613f29565b811461495057600080fd5b50565b6000815190506149628161493c565b92915050565b600080600080600060a0868803121561498457614983613f5d565b5b6000614992888289016148f1565b95505060206149a388828901614927565b94505060406149b488828901614953565b93505060606149c588828901614953565b92505060806149d6888289016148f1565b9150509295509295909350565b7f526f756e64206e6f7420636f6d706c6574650000000000000000000000000000600082015250565b6000614a1960128361444e565b9150614a24826149e3565b602082019050919050565b60006020820190508181036000830152614a4881614a0c565b9050919050565b6000614a5a82613f29565b9150614a6583613f29565b9250828203905081811115614a7d57614a7c61461e565b5b92915050565b6000614a8e82613f29565b9150614a9983613f29565b9250828202614aa781613f29565b91508282048414831517614abe57614abd61461e565b5b5092915050565b7f4e487b7100000000000000000000000000000000000000000000000000000000600052601260045260246000fd5b6000614aff82613f29565b9150614b0a83613f29565b925082614b1a57614b19614ac5565b5b828204905092915050565b7f536166654d6174683a206d756c7469706c69636174696f6e206f766572666c6f60008201527f7700000000000000000000000000000000000000000000000000000000000000602082015250565b6000614b8160218361444e565b9150614b8c82614b25565b604082019050919050565b60006020820190508181036000830152614bb081614b74565b9050919050565b7f536166654d6174683a206469766973696f6e206279207a65726f000000000000600082015250565b6000614bed601a8361444e565b9150614bf882614bb7565b602082019050919050565b60006020820190508181036000830152614c1c81614be0565b9050919050565b7f43616e6e6f74207365742073656c662061732075706c696e6520706172746e6560008201527f7200000000000000000000000000000000000000000000000000000000000000602082015250565b6000614c7f60218361444e565b9150614c8a82614c23565b604082019050919050565b60006020820190508181036000830152614cae81614c72565b9050919050565b7f55706c696e6520706172746e657220616c726561647920736574000000000000600082015250565b6000614ceb601a8361444e565b9150614cf682614cb5565b602082019050919050565b60006020820190508181036000830152614d1a81614cde565b9050919050565b7f536166654d6174683a206164646974696f6e206f766572666c6f770000000000600082015250565b6000614d57601b8361444e565b9150614d6282614d21565b602082019050919050565b60006020820190508181036000830152614d8681614d4a565b9050919050565b7f536166654d6174683a207375627472616374696f6e206f766572666c6f770000600082015250565b6000614dc3601e8361444e565b9150614dce82614d8d565b602082019050919050565b60006020820190508181036000830152614df281614db6565b905091905056fea2646970667358221220f93c8222134c74fd5b45c545079576cea17a7adab5b4a190ce9b1d7cd412143764736f6c63430008160033",
  "linkReferences": {},
  "deployedLinkReferences": {}
}