{
  "_format": "hh-sol-artifact-1",
  "contractName": "MaticFund",
  "sourceName": "contracts/MaticFund.sol",
  "abi": [
    {
      "inputs": [
        {
          "internalType": "address payable",
          "name": "marketingAddr",
          "type": "address"
        },
        {
          "internalType": "address payable",
          "name": "projectAddr",
          "type": "address"
        },
        {
          "internalType": "address payable",
          "name": "devAddr",
          "type": "address"
        },
        {
          "internalType": "address payable",
          "name": "_defaultAdress",
          "type": "address"
        },
        {
          "internalType": "address payable",
          "name": "_nAddress1",
          "type": "address"
        },
        {
          "internalType": "address payable",
          "name": "_nAddress2",
          "type": "address"
        }
      ],
      "stateMutability": "nonpayable",
      "type": "constructor"
    },
    {
      "anonymous": false,
      "inputs": [
        {
          "indexed": true,
          "internalType": "address",
          "name": "user",
          "type": "address"
        },
        {
          "indexed": false,
          "internalType": "uint256",
          "name": "totalAmount",
          "type": "uint256"
        }
      ],
      "name": "FeePayed",
      "type": "event"
    },
    {
      "anonymous": false,
      "inputs": [
        {
          "indexed": true,
          "internalType": "address",
          "name": "user",
          "type": "address"
        },
        {
          "indexed": false,
          "internalType": "uint256",
          "name": "amount",
          "type": "uint256"
        }
      ],
      "name": "NewDeposit",
      "type": "event"
    },
    {
      "anonymous": false,
      "inputs": [
        {
          "indexed": false,
          "internalType": "address",
          "name": "user",
          "type": "address"
        }
      ],
      "name": "Newbie",
      "type": "event"
    },
    {
      "anonymous": false,
      "inputs": [
        {
          "indexed": true,
          "internalType": "address",
          "name": "referrer",
          "type": "address"
        },
        {
          "indexed": true,
          "internalType": "address",
          "name": "referral",
          "type": "address"
        },
        {
          "indexed": false,
          "internalType": "uint256",
          "name": "amount",
          "type": "uint256"
        }
      ],
      "name": "RefBack",
      "type": "event"
    },
    {
      "anonymous": false,
      "inputs": [
        {
          "indexed": true,
          "internalType": "address",
          "name": "referrer",
          "type": "address"
        },
        {
          "indexed": true,
          "internalType": "address",
          "name": "referral",
          "type": "address"
        },
        {
          "indexed": true,
          "internalType": "uint256",
          "name": "level",
          "type": "uint256"
        },
        {
          "indexed": false,
          "internalType": "uint256",
          "name": "amount",
          "type": "uint256"
        }
      ],
      "name": "RefBonus",
      "type": "event"
    },
    {
      "anonymous": false,
      "inputs": [
        {
          "indexed": true,
          "internalType": "address",
          "name": "referrer",
          "type": "address"
        },
        {
          "indexed": true,
          "internalType": "address",
          "name": "referral",
          "type": "address"
        },
        {
          "indexed": true,
          "internalType": "uint256",
          "name": "level",
          "type": "uint256"
        },
        {
          "indexed": false,
          "internalType": "uint256",
          "name": "amount",
          "type": "uint256"
        }
      ],
      "name": "RefBonusMissed",
      "type": "event"
    },
    {
      "anonymous": false,
      "inputs": [
        {
          "indexed": true,
          "internalType": "address",
          "name": "walletAddress",
          "type": "address"
        },
        {
          "indexed": true,
          "internalType": "address",
          "name": "uplinePartner",
          "type": "address"
        }
      ],
      "name": "UplinePartnerSet",
      "type": "event"
    },
    {
      "anonymous": false,
      "inputs": [
        {
          "indexed": true,
          "internalType": "address",
          "name": "user",
          "type": "address"
        },
        {
          "indexed": false,
          "internalType": "uint256",
          "name": "amount",
          "type": "uint256"
        }
      ],
      "name": "Withdrawn",
      "type": "event"
    },
    {
      "inputs": [],
      "name": "DEPOSITS_MAX",
      "outputs": [
        {
          "internalType": "uint256",
          "name": "",
          "type": "uint256"
        }
      ],
      "stateMutability": "view",
      "type": "function"
    },
    {
      "inputs": [],
      "name": "Dev_Fee",
      "outputs": [
        {
          "internalType": "uint256",
          "name": "",
          "type": "uint256"
        }
      ],
      "stateMutability": "view",
      "type": "function"
    },
    {
      "inputs": [],
      "name": "INVEST_MAX_AMOUNT",
      "outputs": [
        {
          "internalType": "uint256",
          "name": "",
          "type": "uint256"
        }
      ],
      "stateMutability": "view",
      "type": "function"
    },
    {
      "inputs": [],
      "name": "INVEST_MIN_AMOUNT",
      "outputs": [
        {
          "internalType": "uint256",
          "name": "",
          "type": "uint256"
        }
      ],
      "stateMutability": "view",
      "type": "function"
    },
    {
      "inputs": [],
      "name": "MARKETING_FEE",
      "outputs": [
        {
          "internalType": "uint256",
          "name": "",
          "type": "uint256"
        }
      ],
      "stateMutability": "view",
      "type": "function"
    },
    {
      "inputs": [],
      "name": "MAX_HOLD_PERCENT",
      "outputs": [
        {
          "internalType": "uint256",
          "name": "",
          "type": "uint256"
        }
      ],
      "stateMutability": "view",
      "type": "function"
    },
    {
      "inputs": [],
      "name": "PERCENTS_DIVIDER",
      "outputs": [
        {
          "internalType": "uint256",
          "name": "",
          "type": "uint256"
        }
      ],
      "stateMutability": "view",
      "type": "function"
    },
    {
      "inputs": [],
      "name": "PROJECT_FEE",
      "outputs": [
        {
          "internalType": "uint256",
          "name": "",
          "type": "uint256"
        }
      ],
      "stateMutability": "view",
      "type": "function"
    },
    {
      "inputs": [],
      "name": "TIME_STEP",
      "outputs": [
        {
          "internalType": "uint256",
          "name": "",
          "type": "uint256"
        }
      ],
      "stateMutability": "view",
      "type": "function"
    },
    {
      "inputs": [],
      "name": "contractAddress",
      "outputs": [
        {
          "internalType": "address",
          "name": "",
          "type": "address"
        }
      ],
      "stateMutability": "view",
      "type": "function"
    },
    {
      "inputs": [],
      "name": "contractCreationTime",
      "outputs": [
        {
          "internalType": "uint256",
          "name": "",
          "type": "uint256"
        }
      ],
      "stateMutability": "view",
      "type": "function"
    },
    {
      "inputs": [],
      "name": "contractPercent",
      "outputs": [
        {
          "internalType": "uint256",
          "name": "",
          "type": "uint256"
        }
      ],
      "stateMutability": "view",
      "type": "function"
    },
    {
      "inputs": [],
      "name": "defaultAddress",
      "outputs": [
        {
          "internalType": "address payable",
          "name": "",
          "type": "address"
        }
      ],
      "stateMutability": "view",
      "type": "function"
    },
    {
      "inputs": [],
      "name": "devAdress",
      "outputs": [
        {
          "internalType": "address payable",
          "name": "",
          "type": "address"
        }
      ],
      "stateMutability": "view",
      "type": "function"
    },
    {
      "inputs": [],
      "name": "getContractAddress",
      "outputs": [
        {
          "internalType": "address",
          "name": "",
          "type": "address"
        }
      ],
      "stateMutability": "view",
      "type": "function"
    },
    {
      "inputs": [],
      "name": "getContractBalance",
      "outputs": [
        {
          "internalType": "uint256",
          "name": "",
          "type": "uint256"
        }
      ],
      "stateMutability": "view",
      "type": "function"
    },
    {
      "inputs": [],
      "name": "getSiteStats",
      "outputs": [
        {
          "internalType": "uint256",
          "name": "",
          "type": "uint256"
        },
        {
          "internalType": "uint256",
          "name": "",
          "type": "uint256"
        },
        {
          "internalType": "uint256",
          "name": "",
          "type": "uint256"
        },
        {
          "internalType": "uint256",
          "name": "",
          "type": "uint256"
        }
      ],
      "stateMutability": "view",
      "type": "function"
    },
    {
      "inputs": [
        {
          "internalType": "address",
          "name": "userAddress",
          "type": "address"
        }
      ],
      "name": "getTotalDepositAmount",
      "outputs": [
        {
          "internalType": "uint256",
          "name": "",
          "type": "uint256"
        }
      ],
      "stateMutability": "view",
      "type": "function"
    },
    {
      "inputs": [
        {
          "internalType": "address",
          "name": "userAddress",
          "type": "address"
        }
      ],
      "name": "getTotalMissedAmount",
      "outputs": [
        {
          "internalType": "uint256",
          "name": "",
          "type": "uint256"
        }
      ],
      "stateMutability": "view",
      "type": "function"
    },
    {
      "inputs": [],
      "name": "getUplinePartner",
      "outputs": [
        {
          "internalType": "address",
          "name": "",
          "type": "address"
        }
      ],
      "stateMutability": "view",
      "type": "function"
    },
    {
      "inputs": [
        {
          "internalType": "address",
          "name": "userAddress",
          "type": "address"
        },
        {
          "internalType": "uint256",
          "name": "last",
          "type": "uint256"
        },
        {
          "internalType": "uint256",
          "name": "first",
          "type": "uint256"
        }
      ],
      "name": "getUserDeposits",
      "outputs": [
        {
          "internalType": "uint256[]",
          "name": "",
          "type": "uint256[]"
        },
        {
          "internalType": "uint256[]",
          "name": "",
          "type": "uint256[]"
        },
        {
          "internalType": "uint256[]",
          "name": "",
          "type": "uint256[]"
        },
        {
          "internalType": "uint256[]",
          "name": "",
          "type": "uint256[]"
        }
      ],
      "stateMutability": "view",
      "type": "function"
    },
    {
      "inputs": [
        {
          "internalType": "address",
          "name": "userAddress",
          "type": "address"
        }
      ],
      "name": "getUserLastDeposit",
      "outputs": [
        {
          "internalType": "uint256",
          "name": "",
          "type": "uint256"
        }
      ],
      "stateMutability": "view",
      "type": "function"
    },
    {
      "inputs": [
        {
          "internalType": "address",
          "name": "userAddress",
          "type": "address"
        }
      ],
      "name": "getUserReferralsStats",
      "outputs": [
        {
          "internalType": "address",
          "name": "",
          "type": "address"
        },
        {
          "internalType": "uint256",
          "name": "",
          "type": "uint256"
        },
        {
          "internalType": "uint24[12]",
          "name": "",
          "type": "uint24[12]"
        }
      ],
      "stateMutability": "view",
      "type": "function"
    },
    {
      "inputs": [
        {
          "internalType": "address",
          "name": "userAddress",
          "type": "address"
        }
      ],
      "name": "getUserStats",
      "outputs": [
        {
          "internalType": "uint256",
          "name": "",
          "type": "uint256"
        },
        {
          "internalType": "uint256",
          "name": "",
          "type": "uint256"
        },
        {
          "internalType": "uint256",
          "name": "",
          "type": "uint256"
        },
        {
          "internalType": "uint256",
          "name": "",
          "type": "uint256"
        },
        {
          "internalType": "uint256",
          "name": "",
          "type": "uint256"
        },
        {
          "internalType": "uint256",
          "name": "",
          "type": "uint256"
        },
        {
          "internalType": "uint256",
          "name": "",
          "type": "uint256"
        }
      ],
      "stateMutability": "view",
      "type": "function"
    },
    {
      "inputs": [
        {
          "internalType": "address payable",
          "name": "userRefAddress",
          "type": "address"
        }
      ],
      "name": "invest",
      "outputs": [],
      "stateMutability": "payable",
      "type": "function"
    },
    {
      "inputs": [
        {
          "internalType": "address",
          "name": "userAddress",
          "type": "address"
        }
      ],
      "name": "isActive",
      "outputs": [
        {
          "internalType": "bool",
          "name": "",
          "type": "bool"
        }
      ],
      "stateMutability": "view",
      "type": "function"
    },
    {
      "inputs": [],
      "name": "marketingAddress",
      "outputs": [
        {
          "internalType": "address payable",
          "name": "",
          "type": "address"
        }
      ],
      "stateMutability": "view",
      "type": "function"
    },
    {
      "inputs": [],
      "name": "nAddress1",
      "outputs": [
        {
          "internalType": "address payable",
          "name": "",
          "type": "address"
        }
      ],
      "stateMutability": "view",
      "type": "function"
    },
    {
      "inputs": [],
      "name": "nAddress2",
      "outputs": [
        {
          "internalType": "address payable",
          "name": "",
          "type": "address"
        }
      ],
      "stateMutability": "view",
      "type": "function"
    },
    {
      "inputs": [],
      "name": "owner",
      "outputs": [
        {
          "internalType": "address",
          "name": "",
          "type": "address"
        }
      ],
      "stateMutability": "view",
      "type": "function"
    },
    {
      "inputs": [],
      "name": "projectAddress",
      "outputs": [
        {
          "internalType": "address payable",
          "name": "",
          "type": "address"
        }
      ],
      "stateMutability": "view",
      "type": "function"
    },
    {
      "inputs": [
        {
          "internalType": "address",
          "name": "addr",
          "type": "address"
        }
      ],
      "name": "setContractAddress",
      "outputs": [],
      "stateMutability": "nonpayable",
      "type": "function"
    },
    {
      "inputs": [],
      "name": "totalInvestAmount",
      "outputs": [
        {
          "internalType": "uint256",
          "name": "",
          "type": "uint256"
        }
      ],
      "stateMutability": "view",
      "type": "function"
    },
    {
      "inputs": [],
      "name": "totalInvestCount",
      "outputs": [
        {
          "internalType": "uint256",
          "name": "",
          "type": "uint256"
        }
      ],
      "stateMutability": "view",
      "type": "function"
    },
    {
      "inputs": [],
      "name": "totalWithdrawn",
      "outputs": [
        {
          "internalType": "uint256",
          "name": "",
          "type": "uint256"
        }
      ],
      "stateMutability": "view",
      "type": "function"
    },
    {
      "inputs": [
        {
          "internalType": "address",
          "name": "",
          "type": "address"
        }
      ],
      "name": "uplinePartners",
      "outputs": [
        {
          "internalType": "address",
          "name": "",
          "type": "address"
        }
      ],
      "stateMutability": "view",
      "type": "function"
    },
    {
      "inputs": [],
      "name": "withdraw",
      "outputs": [],
      "stateMutability": "nonpayable",
      "type": "function"
    }
  ],
  "bytecode": "0x60806040526032600a553480156200001657600080fd5b506040516200489d3803806200489d83398181016040528101906200003c9190620008a3565b85600160006101000a81548173ffffffffffffffffffffffffffffffffffffffff021916908373ffffffffffffffffffffffffffffffffffffffff16021790555084600260006101000a81548173ffffffffffffffffffffffffffffffffffffffff021916908373ffffffffffffffffffffffffffffffffffffffff16021790555083600360006101000a81548173ffffffffffffffffffffffffffffffffffffffff021916908373ffffffffffffffffffffffffffffffffffffffff16021790555042600b8190555082600460006101000a81548173ffffffffffffffffffffffffffffffffffffffff021916908373ffffffffffffffffffffffffffffffffffffffff16021790555081600560006101000a81548173ffffffffffffffffffffffffffffffffffffffff021916908373ffffffffffffffffffffffffffffffffffffffff16021790555080600660006101000a81548173ffffffffffffffffffffffffffffffffffffffff021916908373ffffffffffffffffffffffffffffffffffffffff160217905550336000806101000a81548173ffffffffffffffffffffffffffffffffffffffff021916908373ffffffffffffffffffffffffffffffffffffffff16021790555060405180606001604052806103e88152602001670de0b6b3a76400008152602001600062ffffff1681525060106000600c81106200024c576200024b6200093f565b5b60030201600082015181600001556020820151816001015560408201518160020160006101000a81548162ffffff021916908362ffffff160217905550905050604051806060016040528060c881526020016802b5e3af16b18800008152602001600162ffffff1681525060106001600c8110620002cf57620002ce6200093f565b5b60030201600082015181600001556020820151816001015560408201518160020160006101000a81548162ffffff021916908362ffffff16021790555090505060405180606001604052806064815260200168056bc75e2d631000008152602001600162ffffff1681525060106002600c81106200035257620003516200093f565b5b60030201600082015181600001556020820151816001015560408201518160020160006101000a81548162ffffff021916908362ffffff16021790555090505060405180606001604052806064815260200168056bc75e2d631000008152602001600162ffffff1681525060106003600c8110620003d557620003d46200093f565b5b60030201600082015181600001556020820151816001015560408201518160020160006101000a81548162ffffff021916908362ffffff16021790555090505060405180606001604052806064815260200168056bc75e2d631000008152602001600162ffffff1681525060106004600c81106200045857620004576200093f565b5b60030201600082015181600001556020820151816001015560408201518160020160006101000a81548162ffffff021916908362ffffff160217905550905050604051806060016040528060648152602001680ad78ebc5ac62000008152602001600662ffffff1681525060106005600c8110620004db57620004da6200093f565b5b60030201600082015181600001556020820151816001015560408201518160020160006101000a81548162ffffff021916908362ffffff160217905550905050604051806060016040528060648152602001681043561a88293000008152602001600762ffffff1681525060106006600c81106200055e576200055d6200093f565b5b60030201600082015181600001556020820151816001015560408201518160020160006101000a81548162ffffff021916908362ffffff160217905550905050604051806060016040528060648152602001681b1ae4d6e2ef5000008152602001600862ffffff1681525060106007600c8110620005e157620005e06200093f565b5b60030201600082015181600001556020820151816001015560408201518160020160006101000a81548162ffffff021916908362ffffff1602179055509050506040518060600160405280606481526020016828a857425466f800008152602001600962ffffff1681525060106008600c81106200066457620006636200093f565b5b60030201600082015181600001556020820151816001015560408201518160020160006101000a81548162ffffff021916908362ffffff1602179055509050506040518060600160405280606481526020016828a857425466f800008152602001600a62ffffff1681525060106009600c8110620006e757620006e66200093f565b5b60030201600082015181600001556020820151816001015560408201518160020160006101000a81548162ffffff021916908362ffffff160217905550905050604051806060016040528060648152602001683635c9adc5dea000008152602001600b62ffffff168152506010600a600c81106200076a57620007696200093f565b5b60030201600082015181600001556020820151816001015560408201518160020160006101000a81548162ffffff021916908362ffffff160217905550905050604051806060016040528060648152602001683635c9adc5dea000008152602001600c62ffffff168152506010600b600c8110620007ed57620007ec6200093f565b5b60030201600082015181600001556020820151816001015560408201518160020160006101000a81548162ffffff021916908362ffffff1602179055509050505050505050506200096e565b600080fd5b600073ffffffffffffffffffffffffffffffffffffffff82169050919050565b60006200086b826200083e565b9050919050565b6200087d816200085e565b81146200088957600080fd5b50565b6000815190506200089d8162000872565b92915050565b60008060008060008060c08789031215620008c357620008c262000839565b5b6000620008d389828a016200088c565b9650506020620008e689828a016200088c565b9550506040620008f989828a016200088c565b94505060606200090c89828a016200088c565b93505060806200091f89828a016200088c565b92505060a06200093289828a016200088c565b9150509295509295509295565b7f4e487b7100000000000000000000000000000000000000000000000000000000600052603260045260246000fd5b613f1f806200097e6000396000f3fe60806040526004361061021a5760003560e01c80634e43603a116101235780639f8a13d7116100ab578063bc1d720d1161006f578063bc1d720d146107e6578063cea3e53014610811578063e262113e1461083c578063e956a7c714610867578063f6b4dfb4146108a45761021a565b80639f8a13d7146106eb578063a5ece94114610728578063a8899d6314610753578063aef18c2514610790578063af3e2122146107bb5761021a565b80636f9fb98a116100f25780636f9fb98a146106025780637d8cb7a21461062d5780638da5cb5b146106585780639bb57718146106835780639c11957d146106ae5761021a565b80634e43603a1461053e5780635a18719c146105815780635c101693146105ac578063665db73d146105d75761021a565b806332e1c733116101a6578063447673081161017557806344767308146104545780634698b8831461047f578063477bddaa146104bf57806348d44bd1146104e85780634b319713146105135761021a565b806332e1c733146103bc5780633ccfd60b146103e75780633cf96af1146103fe57806340653d3d146104295761021a565b806327f9c4c1116101ed57806327f9c4c1146102bf5780632ba285e6146102fc5780632d369c901461033b57806332a2c5d01461036657806332bc298c146103915761021a565b806301c234a81461021f57806303f9c7931461024a5780631d47c1a4146102665780631dba5b0814610291575b600080fd5b34801561022b57600080fd5b506102346108cf565b6040516102419190613228565b60405180910390f35b610264600480360381019061025f91906132a6565b6108d5565b005b34801561027257600080fd5b5061027b6116a4565b60405161028891906132f4565b60405180910390f35b34801561029d57600080fd5b506102a661170b565b6040516102b6949392919061330f565b60405180910390f35b3480156102cb57600080fd5b506102e660048036038101906102e19190613380565b611762565b6040516102f39190613228565b60405180910390f35b34801561030857600080fd5b50610323600480360381019061031e9190613380565b6117ae565b60405161033293929190613467565b60405180910390f35b34801561034757600080fd5b506103506118a1565b60405161035d91906134ae565b60405180910390f35b34801561037257600080fd5b5061037b6118c7565b60405161038891906132f4565b60405180910390f35b34801561039d57600080fd5b506103a66118f1565b6040516103b39190613228565b60405180910390f35b3480156103c857600080fd5b506103d16118f6565b6040516103de9190613228565b60405180910390f35b3480156103f357600080fd5b506103fc6118fc565b005b34801561040a57600080fd5b50610413611f18565b60405161042091906134ae565b60405180910390f35b34801561043557600080fd5b5061043e611f3e565b60405161044b91906134ae565b60405180910390f35b34801561046057600080fd5b50610469611f64565b6040516104769190613228565b60405180910390f35b34801561048b57600080fd5b506104a660048036038101906104a191906134f5565b611f69565b6040516104b69493929190613606565b60405180910390f35b3480156104cb57600080fd5b506104e660048036038101906104e19190613380565b61225d565b005b3480156104f457600080fd5b506104fd61232f565b60405161050a9190613228565b60405180910390f35b34801561051f57600080fd5b50610528612335565b6040516105359190613228565b60405180910390f35b34801561054a57600080fd5b5061056560048036038101906105609190613380565b61233b565b6040516105789796959493929190613667565b60405180910390f35b34801561058d57600080fd5b506105966123c7565b6040516105a39190613228565b60405180910390f35b3480156105b857600080fd5b506105c16123cc565b6040516105ce91906134ae565b60405180910390f35b3480156105e357600080fd5b506105ec6123f2565b6040516105f99190613228565b60405180910390f35b34801561060e57600080fd5b506106176123f8565b6040516106249190613228565b60405180910390f35b34801561063957600080fd5b50610642612439565b60405161064f9190613228565b60405180910390f35b34801561066457600080fd5b5061066d612447565b60405161067a91906132f4565b60405180910390f35b34801561068f57600080fd5b5061069861246b565b6040516106a59190613228565b60405180910390f35b3480156106ba57600080fd5b506106d560048036038101906106d09190613380565b612471565b6040516106e29190613228565b60405180910390f35b3480156106f757600080fd5b50610712600480360381019061070d9190613380565b6124c2565b60405161071f91906136f1565b60405180910390f35b34801561073457600080fd5b5061073d6125ab565b60405161074a91906134ae565b60405180910390f35b34801561075f57600080fd5b5061077a60048036038101906107759190613380565b6125d1565b6040516107879190613228565b60405180910390f35b34801561079c57600080fd5b506107a561261d565b6040516107b29190613228565b60405180910390f35b3480156107c757600080fd5b506107d0612623565b6040516107dd9190613228565b60405180910390f35b3480156107f257600080fd5b506107fb612629565b60405161080891906134ae565b60405180910390f35b34801561081d57600080fd5b5061082661264f565b6040516108339190613228565b60405180910390f35b34801561084857600080fd5b50610851612655565b60405161085e9190613228565b60405180910390f35b34801561087357600080fd5b5061088e60048036038101906108899190613380565b612661565b60405161089b91906132f4565b60405180910390f35b3480156108b057600080fd5b506108b9612694565b6040516108c691906132f4565b60405180910390f35b61271081565b60008034905060006108e56116a4565b9050600073ffffffffffffffffffffffffffffffffffffffff168173ffffffffffffffffffffffffffffffffffffffff160361092c57839250610927846126ba565b610930565b8092505b3273ffffffffffffffffffffffffffffffffffffffff163373ffffffffffffffffffffffffffffffffffffffff161461099e576040517f08c379a000000000000000000000000000000000000000000000000000000000815260040161099590613769565b60405180910390fd5b670de0b6b3a764000082101580156109c0575069d3c21bcecceda10000008211155b6109ff576040517f08c379a00000000000000000000000000000000000000000000000000000000081526004016109f6906137fb565b60405180910390fd5b6000600e60003373ffffffffffffffffffffffffffffffffffffffff1673ffffffffffffffffffffffffffffffffffffffff168152602001908152602001600020905061012c816000018054905010610a8d576040517f08c379a0000000000000000000000000000000000000000000000000000000008152600401610a849061388d565b60405180910390fd5b6000610ab8612710610aaa6102588761293190919063ffffffff16565b6129ab90919063ffffffff16565b90506000610ae5612710610ad76102588861293190919063ffffffff16565b6129ab90919063ffffffff16565b90506000610b11612710610b0360648961293190919063ffffffff16565b6129ab90919063ffffffff16565b9050600160009054906101000a900473ffffffffffffffffffffffffffffffffffffffff1673ffffffffffffffffffffffffffffffffffffffff166108fc849081150290604051600060405180830381858888f19350505050158015610b7b573d6000803e3d6000fd5b50600260009054906101000a900473ffffffffffffffffffffffffffffffffffffffff1673ffffffffffffffffffffffffffffffffffffffff166108fc839081150290604051600060405180830381858888f19350505050158015610be4573d6000803e3d6000fd5b50600360009054906101000a900473ffffffffffffffffffffffffffffffffffffffff1673ffffffffffffffffffffffffffffffffffffffff166108fc829081150290604051600060405180830381858888f19350505050158015610c4d573d6000803e3d6000fd5b503373ffffffffffffffffffffffffffffffffffffffff167f2899dc8c12def1caa9accb64257cf2fd9f960f21bb27a560a757eae3c2ec43c1610cab83610c9d8688612a0990919063ffffffff16565b612a0990919063ffffffff16565b604051610cb89190613228565b60405180910390a260008073ffffffffffffffffffffffffffffffffffffffff168560020160009054906101000a900473ffffffffffffffffffffffffffffffffffffffff1673ffffffffffffffffffffffffffffffffffffffff16148015610d6657506000600e60008a73ffffffffffffffffffffffffffffffffffffffff1673ffffffffffffffffffffffffffffffffffffffff16815260200190815260200160002060000180549050115b8015610d9e57503373ffffffffffffffffffffffffffffffffffffffff168873ffffffffffffffffffffffffffffffffffffffff1614155b15610de757878560020160006101000a81548173ffffffffffffffffffffffffffffffffffffffff021916908373ffffffffffffffffffffffffffffffffffffffff1602179055505b600460009054906101000a900473ffffffffffffffffffffffffffffffffffffffff1673ffffffffffffffffffffffffffffffffffffffff168560020160009054906101000a900473ffffffffffffffffffffffffffffffffffffffff1673ffffffffffffffffffffffffffffffffffffffff1603610e8e57610e876064610e7960168a61293190919063ffffffff16565b6129ab90919063ffffffff16565b90506113b0565b60005b600c8110156113ae576000610ede612710610ed0601085600c8110610eb957610eb86138ad565b5b60030201600001548c61293190919063ffffffff16565b6129ab90919063ffffffff16565b9050600073ffffffffffffffffffffffffffffffffffffffff168a73ffffffffffffffffffffffffffffffffffffffff1614158015610f1d5750600081115b1561139157601082600c8110610f3657610f356138ad565b5b6003020160010154600e60008c73ffffffffffffffffffffffffffffffffffffffff1673ffffffffffffffffffffffffffffffffffffffff16815260200190815260200160002060040154101580156110145750601082600c8110610f9e57610f9d6138ad565b5b6003020160020160009054906101000a900462ffffff1662ffffff16600e60008c73ffffffffffffffffffffffffffffffffffffffff1673ffffffffffffffffffffffffffffffffffffffff16815260200190815260200160002060090160009054906101000a900462ffffff1662ffffff1610155b15611166578973ffffffffffffffffffffffffffffffffffffffff166108fc829081150290604051600060405180830381858888f1935050505015801561105f573d6000803e3d6000fd5b506110b581600e60008d73ffffffffffffffffffffffffffffffffffffffff1673ffffffffffffffffffffffffffffffffffffffff16815260200190815260200160002060030154612a0990919063ffffffff16565b600e60008c73ffffffffffffffffffffffffffffffffffffffff1673ffffffffffffffffffffffffffffffffffffffff16815260200190815260200160002060030181905550813373ffffffffffffffffffffffffffffffffffffffff168b73ffffffffffffffffffffffffffffffffffffffff167fd41f7e766eebcc7ff42b11ac8691bdf864db4afc0c55e71d629d54edce460d98846040516111599190613228565b60405180910390a4611234565b8083611172919061390b565b925080600e60008c73ffffffffffffffffffffffffffffffffffffffff1673ffffffffffffffffffffffffffffffffffffffff16815260200190815260200160002060050160008282546111c6919061390b565b92505081905550813373ffffffffffffffffffffffffffffffffffffffff168b73ffffffffffffffffffffffffffffffffffffffff167f7b92e1ae99c8d93ece4ef845fd466d392a8ef44005cc85bc06be6c7420b200c38460405161122b9190613228565b60405180910390a45b6001600e60008c73ffffffffffffffffffffffffffffffffffffffff1673ffffffffffffffffffffffffffffffffffffffff16815260200190815260200160002060070183600c811061128a576112896138ad565b5b600a91828204019190066003028282829054906101000a900462ffffff166112b2919061393f565b92506101000a81548162ffffff021916908362ffffff16021790555088600e60008c73ffffffffffffffffffffffffffffffffffffffff1673ffffffffffffffffffffffffffffffffffffffff1681526020019081526020016000206006016000828254611320919061390b565b92505081905550600e60008b73ffffffffffffffffffffffffffffffffffffffff1673ffffffffffffffffffffffffffffffffffffffff16815260200190815260200160002060020160009054906101000a900473ffffffffffffffffffffffffffffffffffffffff1699506113a0565b808361139d919061390b565b92505b508080600101915050610e91565b505b60008111156114a55760006113cf6002836129ab90919063ffffffff16565b9050600560009054906101000a900473ffffffffffffffffffffffffffffffffffffffff1673ffffffffffffffffffffffffffffffffffffffff166108fc829081150290604051600060405180830381858888f19350505050158015611439573d6000803e3d6000fd5b50600660009054906101000a900473ffffffffffffffffffffffffffffffffffffffff1673ffffffffffffffffffffffffffffffffffffffff166108fc829081150290604051600060405180830381858888f193505050501580156114a2573d6000803e3d6000fd5b50505b6000856000018054905003611596574285600101819055506001600e60008760020160009054906101000a900473ffffffffffffffffffffffffffffffffffffffff1673ffffffffffffffffffffffffffffffffffffffff1673ffffffffffffffffffffffffffffffffffffffff16815260200190815260200160002060090160008282829054906101000a900462ffffff16611542919061393f565b92506101000a81548162ffffff021916908362ffffff1602179055507f9fd565cd14c3c391679eb0cad12a14dcf7534e9d3462bcb9b67a098a9bbbc24a3360405161158d91906132f4565b60405180910390a15b84600001604051806060016040528089815260200160008152602001428152509080600181540180825580915050600190039060005260206000209060030201600090919091909150600082015181600001556020820151816001015560408201518160020155505086856004016000828254611613919061390b565b92505081905550866007600082825461162c919061390b565b925050819055506008600081548092919061164690613976565b91905055503373ffffffffffffffffffffffffffffffffffffffff167f2cb77763bc1e8490c1a904905c4d74b4269919aca114464f4bb4d911e60de364886040516116919190613228565b60405180910390a2505050505050505050565b6000600f60003373ffffffffffffffffffffffffffffffffffffffff1673ffffffffffffffffffffffffffffffffffffffff16815260200190815260200160002060009054906101000a900473ffffffffffffffffffffffffffffffffffffffff16905090565b600080600080600754600854600c60009054906101000a900473ffffffffffffffffffffffffffffffffffffffff1673ffffffffffffffffffffffffffffffffffffffff1631600a54935093509350935090919293565b6000600e60008373ffffffffffffffffffffffffffffffffffffffff1673ffffffffffffffffffffffffffffffffffffffff168152602001908152602001600020600401549050919050565b6000806117b96131ec565b6000600e60008673ffffffffffffffffffffffffffffffffffffffff1673ffffffffffffffffffffffffffffffffffffffff16815260200190815260200160002090508060020160009054906101000a900473ffffffffffffffffffffffffffffffffffffffff1681600301548260070180600c806020026040519081016040528092919082600c801561188c576020028201916000905b82829054906101000a900462ffffff1662ffffff16815260200190600301906020826002010492830192600103820291508084116118515790505b50505050509050935093509350509193909250565b600660009054906101000a900473ffffffffffffffffffffffffffffffffffffffff1681565b6000600c60009054906101000a900473ffffffffffffffffffffffffffffffffffffffff16905090565b603c81565b60085481565b6000600e60003373ffffffffffffffffffffffffffffffffffffffff1673ffffffffffffffffffffffffffffffffffffffff1681526020019081526020016000209050600061194a33612a67565b90506000806000600c60009054906101000a900473ffffffffffffffffffffffffffffffffffffffff1673ffffffffffffffffffffffffffffffffffffffff163190506000600290506119bc60646119ae600560075461293190919063ffffffff16565b6129ab90919063ffffffff16565b8210156119c857600190505b60005b8660000180549050811015611e1357611a1a8263ffffffff168860000183815481106119fa576119f96138ad565b5b90600052602060002090600302016000015461293190919063ffffffff16565b876000018281548110611a3057611a2f6138ad565b5b9060005260206000209060030201600101541015611e06578660010154876000018281548110611a6357611a626138ad565b5b9060005260206000209060030201600201541115611b2e57611b27603c611b19611abd8a6000018581548110611a9c57611a9b6138ad565b5b90600052602060002090600302016002015442612b3290919063ffffffff16565b611b0b612710611afd8c8e6000018981548110611add57611adc6138ad565b5b90600052602060002090600302016000015461293190919063ffffffff16565b6129ab90919063ffffffff16565b61293190919063ffffffff16565b6129ab90919063ffffffff16565b9350611bba565b611bb7603c611ba9611b4d8a6001015442612b3290919063ffffffff16565b611b9b612710611b8d8c8e6000018981548110611b6d57611b6c6138ad565b5b90600052602060002090600302016000015461293190919063ffffffff16565b6129ab90919063ffffffff16565b61293190919063ffffffff16565b6129ab90919063ffffffff16565b93505b611bfa8263ffffffff16886000018381548110611bda57611bd96138ad565b5b90600052602060002090600302016000015461293190919063ffffffff16565b611c3485896000018481548110611c1457611c136138ad565b5b906000526020600020906003020160010154612a0990919063ffffffff16565b1115611cb657611cb3876000018281548110611c5357611c526138ad565b5b906000526020600020906003020160010154611ca58463ffffffff168a6000018581548110611c8557611c846138ad565b5b90600052602060002090600302016000015461293190919063ffffffff16565b612b3290919063ffffffff16565b93505b611cca600a846129ab90919063ffffffff16565b611cdd8587612a0990919063ffffffff16565b11611d6057611d1c84886000018381548110611cfc57611cfb6138ad565b5b906000526020600020906003020160010154612a0990919063ffffffff16565b876000018281548110611d3257611d316138ad565b5b906000526020600020906003020160010181905550611d5a8486612a0990919063ffffffff16565b50611e05565b611dbf85611db1611d7b600a876129ab90919063ffffffff16565b8a6000018581548110611d9157611d906138ad565b5b906000526020600020906003020160010154612a0990919063ffffffff16565b612b3290919063ffffffff16565b876000018281548110611dd557611dd46138ad565b5b906000526020600020906003020160010181905550611dfe600a846129ab90919063ffffffff16565b9450611e13565b5b80806001019150506119cb565b5060008411611e57576040517f08c379a0000000000000000000000000000000000000000000000000000000008152600401611e4e90613a0a565b60405180910390fd5b4286600101819055503373ffffffffffffffffffffffffffffffffffffffff166108fc859081150290604051600060405180830381858888f19350505050158015611ea6573d6000803e3d6000fd5b50611ebc84600954612a0990919063ffffffff16565b6009819055503373ffffffffffffffffffffffffffffffffffffffff167f7084f5476618d8e60b11ef0d7d3f06914655adb8793e28ff7f018d4c76d505d585604051611f089190613228565b60405180910390a2505050505050565b600260009054906101000a900473ffffffffffffffffffffffffffffffffffffffff1681565b600360009054906101000a900473ffffffffffffffffffffffffffffffffffffffff1681565b603281565b6060806060806000600e60008973ffffffffffffffffffffffffffffffffffffffff1673ffffffffffffffffffffffffffffffffffffffff16815260200190815260200160002090506000611fc78888612b3290919063ffffffff16565b90508160000180549050811115611fe357816000018054905090505b60008167ffffffffffffffff811115611fff57611ffe613a2a565b5b60405190808252806020026020018201604052801561202d5781602001602082028036833780820191505090505b50905060008267ffffffffffffffff81111561204c5761204b613a2a565b5b60405190808252806020026020018201604052801561207a5781602001602082028036833780820191505090505b50905060008367ffffffffffffffff81111561209957612098613a2a565b5b6040519080825280602002602001820160405280156120c75781602001602082028036833780820191505090505b50905060008467ffffffffffffffff8111156120e6576120e5613a2a565b5b6040519080825280602002602001820160405280156121145781602001602082028036833780820191505090505b5090506000808c90505b8d81111561224057876000016001826121379190613a59565b81548110612148576121476138ad565b5b90600052602060002090600302016000015486838151811061216d5761216c6138ad565b5b6020026020010181815250508760000160018261218a9190613a59565b8154811061219b5761219a6138ad565b5b9060005260206000209060030201600101548583815181106121c0576121bf6138ad565b5b602002602001018181525050876000016001826121dd9190613a59565b815481106121ee576121ed6138ad565b5b906000526020600020906003020160020154838381518110612213576122126138ad565b5b602002602001018181525050818061222a90613976565b925050808061223890613a8d565b91505061211e565b50848484849a509a509a509a505050505050505093509350935093565b60008054906101000a900473ffffffffffffffffffffffffffffffffffffffff1673ffffffffffffffffffffffffffffffffffffffff163373ffffffffffffffffffffffffffffffffffffffff16146122eb576040517f08c379a00000000000000000000000000000000000000000000000000000000081526004016122e290613b28565b60405180910390fd5b80600c60006101000a81548173ffffffffffffffffffffffffffffffffffffffff021916908373ffffffffffffffffffffffffffffffffffffffff16021790555050565b61025881565b60095481565b60008060008060008060008061235089612a67565b9050600061235d8a612b91565b9050600061236a8b612ef4565b905060006123778c612fa3565b905060006123848d612ff2565b905060006123918e6130a5565b9050600061239e8f6131a0565b9050868686868686869d509d509d509d509d509d509d5050505050505050919395979092949650565b606481565b600460009054906101000a900473ffffffffffffffffffffffffffffffffffffffff1681565b60075481565b6000600c60009054906101000a900473ffffffffffffffffffffffffffffffffffffffff1673ffffffffffffffffffffffffffffffffffffffff1631905090565b69d3c21bcecceda100000081565b60008054906101000a900473ffffffffffffffffffffffffffffffffffffffff1681565b600a5481565b600080600e60008473ffffffffffffffffffffffffffffffffffffffff1673ffffffffffffffffffffffffffffffffffffffff16815260200190815260200160002090508060010154915050919050565b600080600e60008473ffffffffffffffffffffffffffffffffffffffff1673ffffffffffffffffffffffffffffffffffffffff1681526020019081526020016000209050600081600001805490501180156125a35750612566600282600001600184600001805490506125359190613a59565b81548110612546576125456138ad565b5b90600052602060002090600302016000015461293190919063ffffffff16565b816000016001836000018054905061257e9190613a59565b8154811061258f5761258e6138ad565b5b906000526020600020906003020160010154105b915050919050565b600160009054906101000a900473ffffffffffffffffffffffffffffffffffffffff1681565b6000600e60008373ffffffffffffffffffffffffffffffffffffffff1673ffffffffffffffffffffffffffffffffffffffff168152602001908152602001600020600501549050919050565b61012c81565b61025881565b600560009054906101000a900473ffffffffffffffffffffffffffffffffffffffff1681565b600b5481565b670de0b6b3a764000081565b600f6020528060005260406000206000915054906101000a900473ffffffffffffffffffffffffffffffffffffffff1681565b600c60009054906101000a900473ffffffffffffffffffffffffffffffffffffffff1681565b6000339050600073ffffffffffffffffffffffffffffffffffffffff168273ffffffffffffffffffffffffffffffffffffffff160361271957600460009054906101000a900473ffffffffffffffffffffffffffffffffffffffff1691505b8173ffffffffffffffffffffffffffffffffffffffff168173ffffffffffffffffffffffffffffffffffffffff1603612787576040517f08c379a000000000000000000000000000000000000000000000000000000000815260040161277e90613bba565b60405180910390fd5b600073ffffffffffffffffffffffffffffffffffffffff16600f60008373ffffffffffffffffffffffffffffffffffffffff1673ffffffffffffffffffffffffffffffffffffffff16815260200190815260200160002060009054906101000a900473ffffffffffffffffffffffffffffffffffffffff1673ffffffffffffffffffffffffffffffffffffffff1614612855576040517f08c379a000000000000000000000000000000000000000000000000000000000815260040161284c90613c26565b60405180910390fd5b81600f60008373ffffffffffffffffffffffffffffffffffffffff1673ffffffffffffffffffffffffffffffffffffffff16815260200190815260200160002060006101000a81548173ffffffffffffffffffffffffffffffffffffffff021916908373ffffffffffffffffffffffffffffffffffffffff1602179055508173ffffffffffffffffffffffffffffffffffffffff168173ffffffffffffffffffffffffffffffffffffffff167f03f866f0601769ee34cf5fefebdb42b8cce13e8180f26d32faf3648e1f9e7cdc60405160405180910390a35050565b600080830361294357600090506129a5565b600082846129519190613c46565b90508284826129609190613cb7565b146129a0576040517f08c379a000000000000000000000000000000000000000000000000000000000815260040161299790613d5a565b60405180910390fd5b809150505b92915050565b60008082116129ef576040517f08c379a00000000000000000000000000000000000000000000000000000000081526004016129e690613dc6565b60405180910390fd5b600082846129fd9190613cb7565b90508091505092915050565b6000808284612a18919061390b565b905083811015612a5d576040517f08c379a0000000000000000000000000000000000000000000000000000000008152600401612a5490613e32565b60405180910390fd5b8091505092915050565b600080600e60008473ffffffffffffffffffffffffffffffffffffffff1673ffffffffffffffffffffffffffffffffffffffff1681526020019081526020016000209050612ab4836124c2565b15612b26576000612af86005612aea603c612adc866001015442612b3290919063ffffffff16565b6129ab90919063ffffffff16565b61293190919063ffffffff16565b90506032811115612b0857603290505b612b1d81600a54612a0990919063ffffffff16565b92505050612b2d565b600a549150505b919050565b600082821115612b77576040517f08c379a0000000000000000000000000000000000000000000000000000000008152600401612b6e90613e9e565b60405180910390fd5b60008284612b859190613a59565b90508091505092915050565b600080600e60008473ffffffffffffffffffffffffffffffffffffffff1673ffffffffffffffffffffffffffffffffffffffff16815260200190815260200160002090506000612be084612a67565b905060008060005b8460000180549050811015612ee757612c326002866000018381548110612c1257612c116138ad565b5b90600052602060002090600302016000015461293190919063ffffffff16565b856000018281548110612c4857612c476138ad565b5b9060005260206000209060030201600101541015612eda578460010154856000018281548110612c7b57612c7a6138ad565b5b9060005260206000209060030201600201541115612d4657612d3f603c612d31612cd5886000018581548110612cb457612cb36138ad565b5b90600052602060002090600302016002015442612b3290919063ffffffff16565b612d23612710612d158a8c6000018981548110612cf557612cf46138ad565b5b90600052602060002090600302016000015461293190919063ffffffff16565b6129ab90919063ffffffff16565b61293190919063ffffffff16565b6129ab90919063ffffffff16565b9150612dd2565b612dcf603c612dc1612d65886001015442612b3290919063ffffffff16565b612db3612710612da58a8c6000018981548110612d8557612d846138ad565b5b90600052602060002090600302016000015461293190919063ffffffff16565b6129ab90919063ffffffff16565b61293190919063ffffffff16565b6129ab90919063ffffffff16565b91505b612e0d6002866000018381548110612ded57612dec6138ad565b5b90600052602060002090600302016000015461293190919063ffffffff16565b612e4783876000018481548110612e2757612e266138ad565b5b906000526020600020906003020160010154612a0990919063ffffffff16565b1115612ec457612ec1856000018281548110612e6657612e656138ad565b5b906000526020600020906003020160010154612eb36002886000018581548110612e9357612e926138ad565b5b90600052602060002090600302016000015461293190919063ffffffff16565b612b3290919063ffffffff16565b91505b612ed78284612a0990919063ffffffff16565b92505b8080600101915050612be8565b5081945050505050919050565b600080600e60008473ffffffffffffffffffffffffffffffffffffffff1673ffffffffffffffffffffffffffffffffffffffff1681526020019081526020016000209050600080600090505b8260000180549050811015612f9857612f89836000018281548110612f6857612f676138ad565b5b90600052602060002090600302016000015483612a0990919063ffffffff16565b91508080600101915050612f40565b508092505050919050565b6000600e60008373ffffffffffffffffffffffffffffffffffffffff1673ffffffffffffffffffffffffffffffffffffffff168152602001908152602001600020600001805490509050919050565b600080600e60008473ffffffffffffffffffffffffffffffffffffffff1673ffffffffffffffffffffffffffffffffffffffff168152602001908152602001600020905060008160030154905060005b826000018054905081101561309a5761308b83600001828154811061306a576130696138ad565b5b90600052602060002090600302016001015483612a0990919063ffffffff16565b91508080600101915050613042565b508092505050919050565b6000806000905060005b600e60008573ffffffffffffffffffffffffffffffffffffffff1673ffffffffffffffffffffffffffffffffffffffff16815260200190815260200160002050600c8162ffffff16101561319657600e60008573ffffffffffffffffffffffffffffffffffffffff1673ffffffffffffffffffffffffffffffffffffffff1681526020019081526020016000206007018162ffffff16600c8110613156576131556138ad565b5b600a91828204019190066003029054906101000a900462ffffff1662ffffff1682613181919061390b565b9150808061318e90613ebe565b9150506130af565b5080915050919050565b6000600e60008373ffffffffffffffffffffffffffffffffffffffff1673ffffffffffffffffffffffffffffffffffffffff168152602001908152602001600020600601549050919050565b604051806101800160405280600c90602082028036833780820191505090505090565b6000819050919050565b6132228161320f565b82525050565b600060208201905061323d6000830184613219565b92915050565b600080fd5b600073ffffffffffffffffffffffffffffffffffffffff82169050919050565b600061327382613248565b9050919050565b61328381613268565b811461328e57600080fd5b50565b6000813590506132a08161327a565b92915050565b6000602082840312156132bc576132bb613243565b5b60006132ca84828501613291565b91505092915050565b60006132de82613248565b9050919050565b6132ee816132d3565b82525050565b600060208201905061330960008301846132e5565b92915050565b60006080820190506133246000830187613219565b6133316020830186613219565b61333e6040830185613219565b61334b6060830184613219565b95945050505050565b61335d816132d3565b811461336857600080fd5b50565b60008135905061337a81613354565b92915050565b60006020828403121561339657613395613243565b5b60006133a48482850161336b565b91505092915050565b6000600c9050919050565b600081905092915050565b6000819050919050565b600062ffffff82169050919050565b6133e5816133cd565b82525050565b60006133f783836133dc565b60208301905092915050565b6000602082019050919050565b613419816133ad565b61342381846133b8565b925061342e826133c3565b8060005b8381101561345f57815161344687826133eb565b965061345183613403565b925050600181019050613432565b505050505050565b60006101c08201905061347d60008301866132e5565b61348a6020830185613219565b6134976040830184613410565b949350505050565b6134a881613268565b82525050565b60006020820190506134c3600083018461349f565b92915050565b6134d28161320f565b81146134dd57600080fd5b50565b6000813590506134ef816134c9565b92915050565b60008060006060848603121561350e5761350d613243565b5b600061351c8682870161336b565b935050602061352d868287016134e0565b925050604061353e868287016134e0565b9150509250925092565b600081519050919050565b600082825260208201905092915050565b6000819050602082019050919050565b61357d8161320f565b82525050565b600061358f8383613574565b60208301905092915050565b6000602082019050919050565b60006135b382613548565b6135bd8185613553565b93506135c883613564565b8060005b838110156135f95781516135e08882613583565b97506135eb8361359b565b9250506001810190506135cc565b5085935050505092915050565b6000608082019050818103600083015261362081876135a8565b9050818103602083015261363481866135a8565b9050818103604083015261364881856135a8565b9050818103606083015261365c81846135a8565b905095945050505050565b600060e08201905061367c600083018a613219565b6136896020830189613219565b6136966040830188613219565b6136a36060830187613219565b6136b06080830186613219565b6136bd60a0830185613219565b6136ca60c0830184613219565b98975050505050505050565b60008115159050919050565b6136eb816136d6565b82525050565b600060208201905061370660008301846136e2565b92915050565b600082825260208201905092915050565b7f7478206f726967696e203d206d73672e73656e64657200000000000000000000600082015250565b600061375360168361370c565b915061375e8261371d565b602082019050919050565b6000602082019050818103600083015261378281613746565b9050919050565b7f74686520616d6f756e74206d757374207665206265747765656e206d696e206160008201527f6e64206d617820616d6f756e7473000000000000000000000000000000000000602082015250565b60006137e5602e8361370c565b91506137f082613789565b604082019050919050565b60006020820190508181036000830152613814816137d8565b9050919050565b7f4d6178696d756d20333030206465706f736974732066726f6d2061646472657360008201527f7300000000000000000000000000000000000000000000000000000000000000602082015250565b600061387760218361370c565b91506138828261381b565b604082019050919050565b600060208201905081810360008301526138a68161386a565b9050919050565b7f4e487b7100000000000000000000000000000000000000000000000000000000600052603260045260246000fd5b7f4e487b7100000000000000000000000000000000000000000000000000000000600052601160045260246000fd5b60006139168261320f565b91506139218361320f565b9250828201905080821115613939576139386138dc565b5b92915050565b600061394a826133cd565b9150613955836133cd565b9250828201905062ffffff8111156139705761396f6138dc565b5b92915050565b60006139818261320f565b91507fffffffffffffffffffffffffffffffffffffffffffffffffffffffffffffffff82036139b3576139b26138dc565b5b600182019050919050565b7f5573657220686173206e6f206469766964656e64730000000000000000000000600082015250565b60006139f460158361370c565b91506139ff826139be565b602082019050919050565b60006020820190508181036000830152613a23816139e7565b9050919050565b7f4e487b7100000000000000000000000000000000000000000000000000000000600052604160045260246000fd5b6000613a648261320f565b9150613a6f8361320f565b9250828203905081811115613a8757613a866138dc565b5b92915050565b6000613a988261320f565b915060008203613aab57613aaa6138dc565b5b600182039050919050565b7f4f6e6c79206f776e65722063616e2063616c6c20746869732066756e6374696f60008201527f6e2e000000000000000000000000000000000000000000000000000000000000602082015250565b6000613b1260228361370c565b9150613b1d82613ab6565b604082019050919050565b60006020820190508181036000830152613b4181613b05565b9050919050565b7f43616e6e6f74207365742073656c662061732075706c696e6520706172746e6560008201527f7200000000000000000000000000000000000000000000000000000000000000602082015250565b6000613ba460218361370c565b9150613baf82613b48565b604082019050919050565b60006020820190508181036000830152613bd381613b97565b9050919050565b7f55706c696e6520706172746e657220616c726561647920736574000000000000600082015250565b6000613c10601a8361370c565b9150613c1b82613bda565b602082019050919050565b60006020820190508181036000830152613c3f81613c03565b9050919050565b6000613c518261320f565b9150613c5c8361320f565b9250828202613c6a8161320f565b91508282048414831517613c8157613c806138dc565b5b5092915050565b7f4e487b7100000000000000000000000000000000000000000000000000000000600052601260045260246000fd5b6000613cc28261320f565b9150613ccd8361320f565b925082613cdd57613cdc613c88565b5b828204905092915050565b7f536166654d6174683a206d756c7469706c69636174696f6e206f766572666c6f60008201527f7700000000000000000000000000000000000000000000000000000000000000602082015250565b6000613d4460218361370c565b9150613d4f82613ce8565b604082019050919050565b60006020820190508181036000830152613d7381613d37565b9050919050565b7f536166654d6174683a206469766973696f6e206279207a65726f000000000000600082015250565b6000613db0601a8361370c565b9150613dbb82613d7a565b602082019050919050565b60006020820190508181036000830152613ddf81613da3565b9050919050565b7f536166654d6174683a206164646974696f6e206f766572666c6f770000000000600082015250565b6000613e1c601b8361370c565b9150613e2782613de6565b602082019050919050565b60006020820190508181036000830152613e4b81613e0f565b9050919050565b7f536166654d6174683a207375627472616374696f6e206f766572666c6f770000600082015250565b6000613e88601e8361370c565b9150613e9382613e52565b602082019050919050565b60006020820190508181036000830152613eb781613e7b565b9050919050565b6000613ec9826133cd565b915062ffffff8203613ede57613edd6138dc565b5b60018201905091905056fea26469706673582212205ec09cd3f00e109e77acb524a6413e878659c416de572c08a9586f2cafddba2464736f6c63430008160033",
  "linkReferences": {},
  "deployedLinkReferences": {}
}