{"contracts/MaticFund.sol":{"MaticFund":{"abi":[{"inputs":[{"internalType":"address payable","name":"marketingAddr","type":"address"},{"internalType":"address payable","name":"projectAddr","type":"address"},{"internalType":"address payable","name":"devAddr","type":"address"},{"internalType":"address payable","name":"_defaultAdress","type":"address"},{"internalType":"address payable","name":"_nAddress1","type":"address"},{"internalType":"address payable","name":"_nAddress2","type":"address"}],"stateMutability":"nonpayable","type":"constructor"},{"anonymous":false,"inputs":[{"indexed":true,"internalType":"address","name":"user","type":"address"},{"indexed":false,"internalType":"uint256","name":"totalAmount","type":"uint256"}],"name":"FeePayed","type":"event"},{"anonymous":false,"inputs":[{"indexed":true,"internalType":"address","name":"user","type":"address"},{"indexed":false,"internalType":"uint256","name":"amount","type":"uint256"}],"name":"NewDeposit","type":"event"},{"anonymous":false,"inputs":[{"indexed":false,"internalType":"address","name":"user","type":"address"}],"name":"Newbie","type":"event"},{"anonymous":false,"inputs":[{"indexed":true,"internalType":"address","name":"referrer","type":"address"},{"indexed":true,"internalType":"address","name":"referral","type":"address"},{"indexed":false,"internalType":"uint256","name":"amount","type":"uint256"}],"name":"RefBack","type":"event"},{"anonymous":false,"inputs":[{"indexed":true,"internalType":"address","name":"referrer","type":"address"},{"indexed":true,"internalType":"address","name":"referral","type":"address"},{"indexed":true,"internalType":"uint256","name":"level","type":"uint256"},{"indexed":false,"internalType":"uint256","name":"amount","type":"uint256"}],"name":"RefBonus","type":"event"},{"anonymous":false,"inputs":[{"indexed":true,"internalType":"address","name":"referrer","type":"address"},{"indexed":true,"internalType":"address","name":"referral","type":"address"},{"indexed":true,"internalType":"uint256","name":"level","type":"uint256"},{"indexed":false,"internalType":"uint256","name":"amount","type":"uint256"}],"name":"RefBonusMissed","type":"event"},{"anonymous":false,"inputs":[{"indexed":true,"internalType":"address","name":"walletAddress","type":"address"},{"indexed":true,"internalType":"address","name":"uplinePartner","type":"address"}],"name":"UplinePartnerSet","type":"event"},{"anonymous":false,"inputs":[{"indexed":true,"internalType":"address","name":"user","type":"address"},{"indexed":false,"internalType":"uint256","name":"amount","type":"uint256"}],"name":"Withdrawn","type":"event"},{"inputs":[],"name":"DEPOSITS_MAX","outputs":[{"internalType":"uint256","name":"","type":"uint256"}],"stateMutability":"view","type":"function"},{"inputs":[],"name":"Dev_Fee","outputs":[{"internalType":"uint256","name":"","type":"uint256"}],"stateMutability":"view","type":"function"},{"inputs":[],"name":"INVEST_MAX_AMOUNT","outputs":[{"internalType":"uint256","name":"","type":"uint256"}],"stateMutability":"view","type":"function"},{"inputs":[],"name":"INVEST_MIN_AMOUNT","outputs":[{"internalType":"uint256","name":"","type":"uint256"}],"stateMutability":"view","type":"function"},{"inputs":[],"name":"MARKETING_FEE","outputs":[{"internalType":"uint256","name":"","type":"uint256"}],"stateMutability":"view","type":"function"},{"inputs":[],"name":"MAX_HOLD_PERCENT","outputs":[{"internalType":"uint256","name":"","type":"uint256"}],"stateMutability":"view","type":"function"},{"inputs":[],"name":"PERCENTS_DIVIDER","outputs":[{"internalType":"uint256","name":"","type":"uint256"}],"stateMutability":"view","type":"function"},{"inputs":[],"name":"PROJECT_FEE","outputs":[{"internalType":"uint256","name":"","type":"uint256"}],"stateMutability":"view","type":"function"},{"inputs":[],"name":"TIME_STEP","outputs":[{"internalType":"uint256","name":"","type":"uint256"}],"stateMutability":"view","type":"function"},{"inputs":[],"name":"contractAddress","outputs":[{"internalType":"address","name":"","type":"address"}],"stateMutability":"view","type":"function"},{"inputs":[],"name":"contractCreationTime","outputs":[{"internalType":"uint256","name":"","type":"uint256"}],"stateMutability":"view","type":"function"},{"inputs":[],"name":"contractPercent","outputs":[{"internalType":"uint256","name":"","type":"uint256"}],"stateMutability":"view","type":"function"},{"inputs":[],"name":"defaultAddress","outputs":[{"internalType":"address payable","name":"","type":"address"}],"stateMutability":"view","type":"function"},{"inputs":[],"name":"devAdress","outputs":[{"internalType":"address payable","name":"","type":"address"}],"stateMutability":"view","type":"function"},{"inputs":[],"name":"getContractAddress","outputs":[{"internalType":"address","name":"","type":"address"}],"stateMutability":"view","type":"function"},{"inputs":[],"name":"getContractBalance","outputs":[{"internalType":"uint256","name":"","type":"uint256"}],"stateMutability":"view","type":"function"},{"inputs":[],"name":"getSiteStats","outputs":[{"internalType":"uint256","name":"","type":"uint256"},{"internalType":"uint256","name":"","type":"uint256"},{"internalType":"uint256","name":"","type":"uint256"},{"internalType":"uint256","name":"","type":"uint256"}],"stateMutability":"view","type":"function"},{"inputs":[{"internalType":"address","name":"userAddress","type":"address"}],"name":"getTotalDepositAmount","outputs":[{"internalType":"uint256","name":"","type":"uint256"}],"stateMutability":"view","type":"function"},{"inputs":[{"internalType":"address","name":"userAddress","type":"address"}],"name":"getTotalMissedAmount","outputs":[{"internalType":"uint256","name":"","type":"uint256"}],"stateMutability":"view","type":"function"},{"inputs":[],"name":"getUplinePartner","outputs":[{"internalType":"address","name":"","type":"address"}],"stateMutability":"view","type":"function"},{"inputs":[{"internalType":"address","name":"userAddress","type":"address"},{"internalType":"uint256","name":"last","type":"uint256"},{"internalType":"uint256","name":"first","type":"uint256"}],"name":"getUserDeposits","outputs":[{"internalType":"uint256[]","name":"","type":"uint256[]"},{"internalType":"uint256[]","name":"","type":"uint256[]"},{"internalType":"uint256[]","name":"","type":"uint256[]"},{"internalType":"uint256[]","name":"","type":"uint256[]"}],"stateMutability":"view","type":"function"},{"inputs":[{"internalType":"address","name":"userAddress","type":"address"}],"name":"getUserLastDeposit","outputs":[{"internalType":"uint256","name":"","type":"uint256"}],"stateMutability":"view","type":"function"},{"inputs":[{"internalType":"address","name":"userAddress","type":"address"}],"name":"getUserReferralsStats","outputs":[{"internalType":"address","name":"","type":"address"},{"internalType":"uint256","name":"","type":"uint256"},{"internalType":"uint24[12]","name":"","type":"uint24[12]"}],"stateMutability":"view","type":"function"},{"inputs":[{"internalType":"address","name":"userAddress","type":"address"}],"name":"getUserStats","outputs":[{"internalType":"uint256","name":"","type":"uint256"},{"internalType":"uint256","name":"","type":"uint256"},{"internalType":"uint256","name":"","type":"uint256"},{"internalType":"uint256","name":"","type":"uint256"},{"internalType":"uint256","name":"","type":"uint256"},{"internalType":"uint256","name":"","type":"uint256"},{"internalType":"uint256","name":"","type":"uint256"}],"stateMutability":"view","type":"function"},{"inputs":[{"internalType":"address payable","name":"userRefAddress","type":"address"}],"name":"invest","outputs":[],"stateMutability":"payable","type":"function"},{"inputs":[{"internalType":"address","name":"userAddress","type":"address"}],"name":"isActive","outputs":[{"internalType":"bool","name":"","type":"bool"}],"stateMutability":"view","type":"function"},{"inputs":[],"name":"marketingAddress","outputs":[{"internalType":"address payable","name":"","type":"address"}],"stateMutability":"view","type":"function"},{"inputs":[],"name":"nAddress1","outputs":[{"internalType":"address payable","name":"","type":"address"}],"stateMutability":"view","type":"function"},{"inputs":[],"name":"nAddress2","outputs":[{"internalType":"address payable","name":"","type":"address"}],"stateMutability":"view","type":"function"},{"inputs":[],"name":"owner","outputs":[{"internalType":"address","name":"","type":"address"}],"stateMutability":"view","type":"function"},{"inputs":[],"name":"projectAddress","outputs":[{"internalType":"address payable","name":"","type":"address"}],"stateMutability":"view","type":"function"},{"inputs":[{"internalType":"address","name":"addr","type":"address"}],"name":"setContractAddress","outputs":[],"stateMutability":"nonpayable","type":"function"},{"inputs":[],"name":"totalInvestAmount","outputs":[{"internalType":"uint256","name":"","type":"uint256"}],"stateMutability":"view","type":"function"},{"inputs":[],"name":"totalInvestCount","outputs":[{"internalType":"uint256","name":"","type":"uint256"}],"stateMutability":"view","type":"function"},{"inputs":[],"name":"totalWithdrawn","outputs":[{"internalType":"uint256","name":"","type":"uint256"}],"stateMutability":"view","type":"function"},{"inputs":[{"internalType":"address","name":"","type":"address"}],"name":"uplinePartners","outputs":[{"internalType":"address","name":"","type":"address"}],"stateMutability":"view","type":"function"},{"inputs":[],"name":"withdraw","outputs":[],"stateMutability":"nonpayable","type":"function"}],"evm":{"bytecode":{"linkReferences":{},"object":"60806040526032600a553480156200001657600080fd5b506040516200489d3803806200489d83398181016040528101906200003c9190620008a3565b85600160006101000a81548173ffffffffffffffffffffffffffffffffffffffff021916908373ffffffffffffffffffffffffffffffffffffffff16021790555084600260006101000a81548173ffffffffffffffffffffffffffffffffffffffff021916908373ffffffffffffffffffffffffffffffffffffffff16021790555083600360006101000a81548173ffffffffffffffffffffffffffffffffffffffff021916908373ffffffffffffffffffffffffffffffffffffffff16021790555042600b8190555082600460006101000a81548173ffffffffffffffffffffffffffffffffffffffff021916908373ffffffffffffffffffffffffffffffffffffffff16021790555081600560006101000a81548173ffffffffffffffffffffffffffffffffffffffff021916908373ffffffffffffffffffffffffffffffffffffffff16021790555080600660006101000a81548173ffffffffffffffffffffffffffffffffffffffff021916908373ffffffffffffffffffffffffffffffffffffffff160217905550336000806101000a81548173ffffffffffffffffffffffffffffffffffffffff021916908373ffffffffffffffffffffffffffffffffffffffff16021790555060405180606001604052806103e88152602001670de0b6b3a76400008152602001600062ffffff1681525060106000600c81106200024c576200024b6200093f565b5b60030201600082015181600001556020820151816001015560408201518160020160006101000a81548162ffffff021916908362ffffff160217905550905050604051806060016040528060c881526020016802b5e3af16b18800008152602001600162ffffff1681525060106001600c8110620002cf57620002ce6200093f565b5b60030201600082015181600001556020820151816001015560408201518160020160006101000a81548162ffffff021916908362ffffff16021790555090505060405180606001604052806064815260200168056bc75e2d631000008152602001600162ffffff1681525060106002600c81106200035257620003516200093f565b5b60030201600082015181600001556020820151816001015560408201518160020160006101000a81548162ffffff021916908362ffffff16021790555090505060405180606001604052806064815260200168056bc75e2d631000008152602001600162ffffff1681525060106003600c8110620003d557620003d46200093f565b5b60030201600082015181600001556020820151816001015560408201518160020160006101000a81548162ffffff021916908362ffffff16021790555090505060405180606001604052806064815260200168056bc75e2d631000008152602001600162ffffff1681525060106004600c81106200045857620004576200093f565b5b60030201600082015181600001556020820151816001015560408201518160020160006101000a81548162ffffff021916908362ffffff160217905550905050604051806060016040528060648152602001680ad78ebc5ac62000008152602001600662ffffff1681525060106005600c8110620004db57620004da6200093f565b5b60030201600082015181600001556020820151816001015560408201518160020160006101000a81548162ffffff021916908362ffffff160217905550905050604051806060016040528060648152602001681043561a88293000008152602001600762ffffff1681525060106006600c81106200055e576200055d6200093f565b5b60030201600082015181600001556020820151816001015560408201518160020160006101000a81548162ffffff021916908362ffffff160217905550905050604051806060016040528060648152602001681b1ae4d6e2ef5000008152602001600862ffffff1681525060106007600c8110620005e157620005e06200093f565b5b60030201600082015181600001556020820151816001015560408201518160020160006101000a81548162ffffff021916908362ffffff1602179055509050506040518060600160405280606481526020016828a857425466f800008152602001600962ffffff1681525060106008600c81106200066457620006636200093f565b5b60030201600082015181600001556020820151816001015560408201518160020160006101000a81548162ffffff021916908362ffffff1602179055509050506040518060600160405280606481526020016828a857425466f800008152602001600a62ffffff1681525060106009600c8110620006e757620006e66200093f565b5b60030201600082015181600001556020820151816001015560408201518160020160006101000a81548162ffffff021916908362ffffff160217905550905050604051806060016040528060648152602001683635c9adc5dea000008152602001600b62ffffff168152506010600a600c81106200076a57620007696200093f565b5b60030201600082015181600001556020820151816001015560408201518160020160006101000a81548162ffffff021916908362ffffff160217905550905050604051806060016040528060648152602001683635c9adc5dea000008152602001600c62ffffff168152506010600b600c8110620007ed57620007ec6200093f565b5b60030201600082015181600001556020820151816001015560408201518160020160006101000a81548162ffffff021916908362ffffff1602179055509050505050505050506200096e565b600080fd5b600073ffffffffffffffffffffffffffffffffffffffff82169050919050565b60006200086b826200083e565b9050919050565b6200087d816200085e565b81146200088957600080fd5b50565b6000815190506200089d8162000872565b92915050565b60008060008060008060c08789031215620008c357620008c262000839565b5b6000620008d389828a016200088c565b9650506020620008e689828a016200088c565b9550506040620008f989828a016200088c565b94505060606200090c89828a016200088c565b93505060806200091f89828a016200088c565b92505060a06200093289828a016200088c565b9150509295509295509295565b7f4e487b7100000000000000000000000000000000000000000000000000000000600052603260045260246000fd5b613f1f806200097e6000396000f3fe60806040526004361061021a5760003560e01c80634e43603a116101235780639f8a13d7116100ab578063bc1d720d1161006f578063bc1d720d146107e6578063cea3e53014610811578063e262113e1461083c578063e956a7c714610867578063f6b4dfb4146108a45761021a565b80639f8a13d7146106eb578063a5ece94114610728578063a8899d6314610753578063aef18c2514610790578063af3e2122146107bb5761021a565b80636f9fb98a116100f25780636f9fb98a146106025780637d8cb7a21461062d5780638da5cb5b146106585780639bb57718146106835780639c11957d146106ae5761021a565b80634e43603a1461053e5780635a18719c146105815780635c101693146105ac578063665db73d146105d75761021a565b806332e1c733116101a6578063447673081161017557806344767308146104545780634698b8831461047f578063477bddaa146104bf57806348d44bd1146104e85780634b319713146105135761021a565b806332e1c733146103bc5780633ccfd60b146103e75780633cf96af1146103fe57806340653d3d146104295761021a565b806327f9c4c1116101ed57806327f9c4c1146102bf5780632ba285e6146102fc5780632d369c901461033b57806332a2c5d01461036657806332bc298c146103915761021a565b806301c234a81461021f57806303f9c7931461024a5780631d47c1a4146102665780631dba5b0814610291575b600080fd5b34801561022b57600080fd5b506102346108cf565b6040516102419190613228565b60405180910390f35b610264600480360381019061025f91906132a6565b6108d5565b005b34801561027257600080fd5b5061027b6116a4565b60405161028891906132f4565b60405180910390f35b34801561029d57600080fd5b506102a661170b565b6040516102b6949392919061330f565b60405180910390f35b3480156102cb57600080fd5b506102e660048036038101906102e19190613380565b611762565b6040516102f39190613228565b60405180910390f35b34801561030857600080fd5b50610323600480360381019061031e9190613380565b6117ae565b60405161033293929190613467565b60405180910390f35b34801561034757600080fd5b506103506118a1565b60405161035d91906134ae565b60405180910390f35b34801561037257600080fd5b5061037b6118c7565b60405161038891906132f4565b60405180910390f35b34801561039d57600080fd5b506103a66118f1565b6040516103b39190613228565b60405180910390f35b3480156103c857600080fd5b506103d16118f6565b6040516103de9190613228565b60405180910390f35b3480156103f357600080fd5b506103fc6118fc565b005b34801561040a57600080fd5b50610413611f18565b60405161042091906134ae565b60405180910390f35b34801561043557600080fd5b5061043e611f3e565b60405161044b91906134ae565b60405180910390f35b34801561046057600080fd5b50610469611f64565b6040516104769190613228565b60405180910390f35b34801561048b57600080fd5b506104a660048036038101906104a191906134f5565b611f69565b6040516104b69493929190613606565b60405180910390f35b3480156104cb57600080fd5b506104e660048036038101906104e19190613380565b61225d565b005b3480156104f457600080fd5b506104fd61232f565b60405161050a9190613228565b60405180910390f35b34801561051f57600080fd5b50610528612335565b6040516105359190613228565b60405180910390f35b34801561054a57600080fd5b5061056560048036038101906105609190613380565b61233b565b6040516105789796959493929190613667565b60405180910390f35b34801561058d57600080fd5b506105966123c7565b6040516105a39190613228565b60405180910390f35b3480156105b857600080fd5b506105c16123cc565b6040516105ce91906134ae565b60405180910390f35b3480156105e357600080fd5b506105ec6123f2565b6040516105f99190613228565b60405180910390f35b34801561060e57600080fd5b506106176123f8565b6040516106249190613228565b60405180910390f35b34801561063957600080fd5b50610642612439565b60405161064f9190613228565b60405180910390f35b34801561066457600080fd5b5061066d612447565b60405161067a91906132f4565b60405180910390f35b34801561068f57600080fd5b5061069861246b565b6040516106a59190613228565b60405180910390f35b3480156106ba57600080fd5b506106d560048036038101906106d09190613380565b612471565b6040516106e29190613228565b60405180910390f35b3480156106f757600080fd5b50610712600480360381019061070d9190613380565b6124c2565b60405161071f91906136f1565b60405180910390f35b34801561073457600080fd5b5061073d6125ab565b60405161074a91906134ae565b60405180910390f35b34801561075f57600080fd5b5061077a60048036038101906107759190613380565b6125d1565b6040516107879190613228565b60405180910390f35b34801561079c57600080fd5b506107a561261d565b6040516107b29190613228565b60405180910390f35b3480156107c757600080fd5b506107d0612623565b6040516107dd9190613228565b60405180910390f35b3480156107f257600080fd5b506107fb612629565b60405161080891906134ae565b60405180910390f35b34801561081d57600080fd5b5061082661264f565b6040516108339190613228565b60405180910390f35b34801561084857600080fd5b50610851612655565b60405161085e9190613228565b60405180910390f35b34801561087357600080fd5b5061088e60048036038101906108899190613380565b612661565b60405161089b91906132f4565b60405180910390f35b3480156108b057600080fd5b506108b9612694565b6040516108c691906132f4565b60405180910390f35b61271081565b60008034905060006108e56116a4565b9050600073ffffffffffffffffffffffffffffffffffffffff168173ffffffffffffffffffffffffffffffffffffffff160361092c57839250610927846126ba565b610930565b8092505b3273ffffffffffffffffffffffffffffffffffffffff163373ffffffffffffffffffffffffffffffffffffffff161461099e576040517f08c379a000000000000000000000000000000000000000000000000000000000815260040161099590613769565b60405180910390fd5b670de0b6b3a764000082101580156109c0575069d3c21bcecceda10000008211155b6109ff576040517f08c379a00000000000000000000000000000000000000000000000000000000081526004016109f6906137fb565b60405180910390fd5b6000600e60003373ffffffffffffffffffffffffffffffffffffffff1673ffffffffffffffffffffffffffffffffffffffff168152602001908152602001600020905061012c816000018054905010610a8d576040517f08c379a0000000000000000000000000000000000000000000000000000000008152600401610a849061388d565b60405180910390fd5b6000610ab8612710610aaa6102588761293190919063ffffffff16565b6129ab90919063ffffffff16565b90506000610ae5612710610ad76102588861293190919063ffffffff16565b6129ab90919063ffffffff16565b90506000610b11612710610b0360648961293190919063ffffffff16565b6129ab90919063ffffffff16565b9050600160009054906101000a900473ffffffffffffffffffffffffffffffffffffffff1673ffffffffffffffffffffffffffffffffffffffff166108fc849081150290604051600060405180830381858888f19350505050158015610b7b573d6000803e3d6000fd5b50600260009054906101000a900473ffffffffffffffffffffffffffffffffffffffff1673ffffffffffffffffffffffffffffffffffffffff166108fc839081150290604051600060405180830381858888f19350505050158015610be4573d6000803e3d6000fd5b50600360009054906101000a900473ffffffffffffffffffffffffffffffffffffffff1673ffffffffffffffffffffffffffffffffffffffff166108fc829081150290604051600060405180830381858888f19350505050158015610c4d573d6000803e3d6000fd5b503373ffffffffffffffffffffffffffffffffffffffff167f2899dc8c12def1caa9accb64257cf2fd9f960f21bb27a560a757eae3c2ec43c1610cab83610c9d8688612a0990919063ffffffff16565b612a0990919063ffffffff16565b604051610cb89190613228565b60405180910390a260008073ffffffffffffffffffffffffffffffffffffffff168560020160009054906101000a900473ffffffffffffffffffffffffffffffffffffffff1673ffffffffffffffffffffffffffffffffffffffff16148015610d6657506000600e60008a73ffffffffffffffffffffffffffffffffffffffff1673ffffffffffffffffffffffffffffffffffffffff16815260200190815260200160002060000180549050115b8015610d9e57503373ffffffffffffffffffffffffffffffffffffffff168873ffffffffffffffffffffffffffffffffffffffff1614155b15610de757878560020160006101000a81548173ffffffffffffffffffffffffffffffffffffffff021916908373ffffffffffffffffffffffffffffffffffffffff1602179055505b600460009054906101000a900473ffffffffffffffffffffffffffffffffffffffff1673ffffffffffffffffffffffffffffffffffffffff168560020160009054906101000a900473ffffffffffffffffffffffffffffffffffffffff1673ffffffffffffffffffffffffffffffffffffffff1603610e8e57610e876064610e7960168a61293190919063ffffffff16565b6129ab90919063ffffffff16565b90506113b0565b60005b600c8110156113ae576000610ede612710610ed0601085600c8110610eb957610eb86138ad565b5b60030201600001548c61293190919063ffffffff16565b6129ab90919063ffffffff16565b9050600073ffffffffffffffffffffffffffffffffffffffff168a73ffffffffffffffffffffffffffffffffffffffff1614158015610f1d5750600081115b1561139157601082600c8110610f3657610f356138ad565b5b6003020160010154600e60008c73ffffffffffffffffffffffffffffffffffffffff1673ffffffffffffffffffffffffffffffffffffffff16815260200190815260200160002060040154101580156110145750601082600c8110610f9e57610f9d6138ad565b5b6003020160020160009054906101000a900462ffffff1662ffffff16600e60008c73ffffffffffffffffffffffffffffffffffffffff1673ffffffffffffffffffffffffffffffffffffffff16815260200190815260200160002060090160009054906101000a900462ffffff1662ffffff1610155b15611166578973ffffffffffffffffffffffffffffffffffffffff166108fc829081150290604051600060405180830381858888f1935050505015801561105f573d6000803e3d6000fd5b506110b581600e60008d73ffffffffffffffffffffffffffffffffffffffff1673ffffffffffffffffffffffffffffffffffffffff16815260200190815260200160002060030154612a0990919063ffffffff16565b600e60008c73ffffffffffffffffffffffffffffffffffffffff1673ffffffffffffffffffffffffffffffffffffffff16815260200190815260200160002060030181905550813373ffffffffffffffffffffffffffffffffffffffff168b73ffffffffffffffffffffffffffffffffffffffff167fd41f7e766eebcc7ff42b11ac8691bdf864db4afc0c55e71d629d54edce460d98846040516111599190613228565b60405180910390a4611234565b8083611172919061390b565b925080600e60008c73ffffffffffffffffffffffffffffffffffffffff1673ffffffffffffffffffffffffffffffffffffffff16815260200190815260200160002060050160008282546111c6919061390b565b92505081905550813373ffffffffffffffffffffffffffffffffffffffff168b73ffffffffffffffffffffffffffffffffffffffff167f7b92e1ae99c8d93ece4ef845fd466d392a8ef44005cc85bc06be6c7420b200c38460405161122b9190613228565b60405180910390a45b6001600e60008c73ffffffffffffffffffffffffffffffffffffffff1673ffffffffffffffffffffffffffffffffffffffff16815260200190815260200160002060070183600c811061128a576112896138ad565b5b600a91828204019190066003028282829054906101000a900462ffffff166112b2919061393f565b92506101000a81548162ffffff021916908362ffffff16021790555088600e60008c73ffffffffffffffffffffffffffffffffffffffff1673ffffffffffffffffffffffffffffffffffffffff1681526020019081526020016000206006016000828254611320919061390b565b92505081905550600e60008b73ffffffffffffffffffffffffffffffffffffffff1673ffffffffffffffffffffffffffffffffffffffff16815260200190815260200160002060020160009054906101000a900473ffffffffffffffffffffffffffffffffffffffff1699506113a0565b808361139d919061390b565b92505b508080600101915050610e91565b505b60008111156114a55760006113cf6002836129ab90919063ffffffff16565b9050600560009054906101000a900473ffffffffffffffffffffffffffffffffffffffff1673ffffffffffffffffffffffffffffffffffffffff166108fc829081150290604051600060405180830381858888f19350505050158015611439573d6000803e3d6000fd5b50600660009054906101000a900473ffffffffffffffffffffffffffffffffffffffff1673ffffffffffffffffffffffffffffffffffffffff166108fc829081150290604051600060405180830381858888f193505050501580156114a2573d6000803e3d6000fd5b50505b6000856000018054905003611596574285600101819055506001600e60008760020160009054906101000a900473ffffffffffffffffffffffffffffffffffffffff1673ffffffffffffffffffffffffffffffffffffffff1673ffffffffffffffffffffffffffffffffffffffff16815260200190815260200160002060090160008282829054906101000a900462ffffff16611542919061393f565b92506101000a81548162ffffff021916908362ffffff1602179055507f9fd565cd14c3c391679eb0cad12a14dcf7534e9d3462bcb9b67a098a9bbbc24a3360405161158d91906132f4565b60405180910390a15b84600001604051806060016040528089815260200160008152602001428152509080600181540180825580915050600190039060005260206000209060030201600090919091909150600082015181600001556020820151816001015560408201518160020155505086856004016000828254611613919061390b565b92505081905550866007600082825461162c919061390b565b925050819055506008600081548092919061164690613976565b91905055503373ffffffffffffffffffffffffffffffffffffffff167f2cb77763bc1e8490c1a904905c4d74b4269919aca114464f4bb4d911e60de364886040516116919190613228565b60405180910390a2505050505050505050565b6000600f60003373ffffffffffffffffffffffffffffffffffffffff1673ffffffffffffffffffffffffffffffffffffffff16815260200190815260200160002060009054906101000a900473ffffffffffffffffffffffffffffffffffffffff16905090565b600080600080600754600854600c60009054906101000a900473ffffffffffffffffffffffffffffffffffffffff1673ffffffffffffffffffffffffffffffffffffffff1631600a54935093509350935090919293565b6000600e60008373ffffffffffffffffffffffffffffffffffffffff1673ffffffffffffffffffffffffffffffffffffffff168152602001908152602001600020600401549050919050565b6000806117b96131ec565b6000600e60008673ffffffffffffffffffffffffffffffffffffffff1673ffffffffffffffffffffffffffffffffffffffff16815260200190815260200160002090508060020160009054906101000a900473ffffffffffffffffffffffffffffffffffffffff1681600301548260070180600c806020026040519081016040528092919082600c801561188c576020028201916000905b82829054906101000a900462ffffff1662ffffff16815260200190600301906020826002010492830192600103820291508084116118515790505b50505050509050935093509350509193909250565b600660009054906101000a900473ffffffffffffffffffffffffffffffffffffffff1681565b6000600c60009054906101000a900473ffffffffffffffffffffffffffffffffffffffff16905090565b603c81565b60085481565b6000600e60003373ffffffffffffffffffffffffffffffffffffffff1673ffffffffffffffffffffffffffffffffffffffff1681526020019081526020016000209050600061194a33612a67565b90506000806000600c60009054906101000a900473ffffffffffffffffffffffffffffffffffffffff1673ffffffffffffffffffffffffffffffffffffffff163190506000600290506119bc60646119ae600560075461293190919063ffffffff16565b6129ab90919063ffffffff16565b8210156119c857600190505b60005b8660000180549050811015611e1357611a1a8263ffffffff168860000183815481106119fa576119f96138ad565b5b90600052602060002090600302016000015461293190919063ffffffff16565b876000018281548110611a3057611a2f6138ad565b5b9060005260206000209060030201600101541015611e06578660010154876000018281548110611a6357611a626138ad565b5b9060005260206000209060030201600201541115611b2e57611b27603c611b19611abd8a6000018581548110611a9c57611a9b6138ad565b5b90600052602060002090600302016002015442612b3290919063ffffffff16565b611b0b612710611afd8c8e6000018981548110611add57611adc6138ad565b5b90600052602060002090600302016000015461293190919063ffffffff16565b6129ab90919063ffffffff16565b61293190919063ffffffff16565b6129ab90919063ffffffff16565b9350611bba565b611bb7603c611ba9611b4d8a6001015442612b3290919063ffffffff16565b611b9b612710611b8d8c8e6000018981548110611b6d57611b6c6138ad565b5b90600052602060002090600302016000015461293190919063ffffffff16565b6129ab90919063ffffffff16565b61293190919063ffffffff16565b6129ab90919063ffffffff16565b93505b611bfa8263ffffffff16886000018381548110611bda57611bd96138ad565b5b90600052602060002090600302016000015461293190919063ffffffff16565b611c3485896000018481548110611c1457611c136138ad565b5b906000526020600020906003020160010154612a0990919063ffffffff16565b1115611cb657611cb3876000018281548110611c5357611c526138ad565b5b906000526020600020906003020160010154611ca58463ffffffff168a6000018581548110611c8557611c846138ad565b5b90600052602060002090600302016000015461293190919063ffffffff16565b612b3290919063ffffffff16565b93505b611cca600a846129ab90919063ffffffff16565b611cdd8587612a0990919063ffffffff16565b11611d6057611d1c84886000018381548110611cfc57611cfb6138ad565b5b906000526020600020906003020160010154612a0990919063ffffffff16565b876000018281548110611d3257611d316138ad565b5b906000526020600020906003020160010181905550611d5a8486612a0990919063ffffffff16565b50611e05565b611dbf85611db1611d7b600a876129ab90919063ffffffff16565b8a6000018581548110611d9157611d906138ad565b5b906000526020600020906003020160010154612a0990919063ffffffff16565b612b3290919063ffffffff16565b876000018281548110611dd557611dd46138ad565b5b906000526020600020906003020160010181905550611dfe600a846129ab90919063ffffffff16565b9450611e13565b5b80806001019150506119cb565b5060008411611e57576040517f08c379a0000000000000000000000000000000000000000000000000000000008152600401611e4e90613a0a565b60405180910390fd5b4286600101819055503373ffffffffffffffffffffffffffffffffffffffff166108fc859081150290604051600060405180830381858888f19350505050158015611ea6573d6000803e3d6000fd5b50611ebc84600954612a0990919063ffffffff16565b6009819055503373ffffffffffffffffffffffffffffffffffffffff167f7084f5476618d8e60b11ef0d7d3f06914655adb8793e28ff7f018d4c76d505d585604051611f089190613228565b60405180910390a2505050505050565b600260009054906101000a900473ffffffffffffffffffffffffffffffffffffffff1681565b600360009054906101000a900473ffffffffffffffffffffffffffffffffffffffff1681565b603281565b6060806060806000600e60008973ffffffffffffffffffffffffffffffffffffffff1673ffffffffffffffffffffffffffffffffffffffff16815260200190815260200160002090506000611fc78888612b3290919063ffffffff16565b90508160000180549050811115611fe357816000018054905090505b60008167ffffffffffffffff811115611fff57611ffe613a2a565b5b60405190808252806020026020018201604052801561202d5781602001602082028036833780820191505090505b50905060008267ffffffffffffffff81111561204c5761204b613a2a565b5b60405190808252806020026020018201604052801561207a5781602001602082028036833780820191505090505b50905060008367ffffffffffffffff81111561209957612098613a2a565b5b6040519080825280602002602001820160405280156120c75781602001602082028036833780820191505090505b50905060008467ffffffffffffffff8111156120e6576120e5613a2a565b5b6040519080825280602002602001820160405280156121145781602001602082028036833780820191505090505b5090506000808c90505b8d81111561224057876000016001826121379190613a59565b81548110612148576121476138ad565b5b90600052602060002090600302016000015486838151811061216d5761216c6138ad565b5b6020026020010181815250508760000160018261218a9190613a59565b8154811061219b5761219a6138ad565b5b9060005260206000209060030201600101548583815181106121c0576121bf6138ad565b5b602002602001018181525050876000016001826121dd9190613a59565b815481106121ee576121ed6138ad565b5b906000526020600020906003020160020154838381518110612213576122126138ad565b5b602002602001018181525050818061222a90613976565b925050808061223890613a8d565b91505061211e565b50848484849a509a509a509a505050505050505093509350935093565b60008054906101000a900473ffffffffffffffffffffffffffffffffffffffff1673ffffffffffffffffffffffffffffffffffffffff163373ffffffffffffffffffffffffffffffffffffffff16146122eb576040517f08c379a00000000000000000000000000000000000000000000000000000000081526004016122e290613b28565b60405180910390fd5b80600c60006101000a81548173ffffffffffffffffffffffffffffffffffffffff021916908373ffffffffffffffffffffffffffffffffffffffff16021790555050565b61025881565b60095481565b60008060008060008060008061235089612a67565b9050600061235d8a612b91565b9050600061236a8b612ef4565b905060006123778c612fa3565b905060006123848d612ff2565b905060006123918e6130a5565b9050600061239e8f6131a0565b9050868686868686869d509d509d509d509d509d509d5050505050505050919395979092949650565b606481565b600460009054906101000a900473ffffffffffffffffffffffffffffffffffffffff1681565b60075481565b6000600c60009054906101000a900473ffffffffffffffffffffffffffffffffffffffff1673ffffffffffffffffffffffffffffffffffffffff1631905090565b69d3c21bcecceda100000081565b60008054906101000a900473ffffffffffffffffffffffffffffffffffffffff1681565b600a5481565b600080600e60008473ffffffffffffffffffffffffffffffffffffffff1673ffffffffffffffffffffffffffffffffffffffff16815260200190815260200160002090508060010154915050919050565b600080600e60008473ffffffffffffffffffffffffffffffffffffffff1673ffffffffffffffffffffffffffffffffffffffff1681526020019081526020016000209050600081600001805490501180156125a35750612566600282600001600184600001805490506125359190613a59565b81548110612546576125456138ad565b5b90600052602060002090600302016000015461293190919063ffffffff16565b816000016001836000018054905061257e9190613a59565b8154811061258f5761258e6138ad565b5b906000526020600020906003020160010154105b915050919050565b600160009054906101000a900473ffffffffffffffffffffffffffffffffffffffff1681565b6000600e60008373ffffffffffffffffffffffffffffffffffffffff1673ffffffffffffffffffffffffffffffffffffffff168152602001908152602001600020600501549050919050565b61012c81565b61025881565b600560009054906101000a900473ffffffffffffffffffffffffffffffffffffffff1681565b600b5481565b670de0b6b3a764000081565b600f6020528060005260406000206000915054906101000a900473ffffffffffffffffffffffffffffffffffffffff1681565b600c60009054906101000a900473ffffffffffffffffffffffffffffffffffffffff1681565b6000339050600073ffffffffffffffffffffffffffffffffffffffff168273ffffffffffffffffffffffffffffffffffffffff160361271957600460009054906101000a900473ffffffffffffffffffffffffffffffffffffffff1691505b8173ffffffffffffffffffffffffffffffffffffffff168173ffffffffffffffffffffffffffffffffffffffff1603612787576040517f08c379a000000000000000000000000000000000000000000000000000000000815260040161277e90613bba565b60405180910390fd5b600073ffffffffffffffffffffffffffffffffffffffff16600f60008373ffffffffffffffffffffffffffffffffffffffff1673ffffffffffffffffffffffffffffffffffffffff16815260200190815260200160002060009054906101000a900473ffffffffffffffffffffffffffffffffffffffff1673ffffffffffffffffffffffffffffffffffffffff1614612855576040517f08c379a000000000000000000000000000000000000000000000000000000000815260040161284c90613c26565b60405180910390fd5b81600f60008373ffffffffffffffffffffffffffffffffffffffff1673ffffffffffffffffffffffffffffffffffffffff16815260200190815260200160002060006101000a81548173ffffffffffffffffffffffffffffffffffffffff021916908373ffffffffffffffffffffffffffffffffffffffff1602179055508173ffffffffffffffffffffffffffffffffffffffff168173ffffffffffffffffffffffffffffffffffffffff167f03f866f0601769ee34cf5fefebdb42b8cce13e8180f26d32faf3648e1f9e7cdc60405160405180910390a35050565b600080830361294357600090506129a5565b600082846129519190613c46565b90508284826129609190613cb7565b146129a0576040517f08c379a000000000000000000000000000000000000000000000000000000000815260040161299790613d5a565b60405180910390fd5b809150505b92915050565b60008082116129ef576040517f08c379a00000000000000000000000000000000000000000000000000000000081526004016129e690613dc6565b60405180910390fd5b600082846129fd9190613cb7565b90508091505092915050565b6000808284612a18919061390b565b905083811015612a5d576040517f08c379a0000000000000000000000000000000000000000000000000000000008152600401612a5490613e32565b60405180910390fd5b8091505092915050565b600080600e60008473ffffffffffffffffffffffffffffffffffffffff1673ffffffffffffffffffffffffffffffffffffffff1681526020019081526020016000209050612ab4836124c2565b15612b26576000612af86005612aea603c612adc866001015442612b3290919063ffffffff16565b6129ab90919063ffffffff16565b61293190919063ffffffff16565b90506032811115612b0857603290505b612b1d81600a54612a0990919063ffffffff16565b92505050612b2d565b600a549150505b919050565b600082821115612b77576040517f08c379a0000000000000000000000000000000000000000000000000000000008152600401612b6e90613e9e565b60405180910390fd5b60008284612b859190613a59565b90508091505092915050565b600080600e60008473ffffffffffffffffffffffffffffffffffffffff1673ffffffffffffffffffffffffffffffffffffffff16815260200190815260200160002090506000612be084612a67565b905060008060005b8460000180549050811015612ee757612c326002866000018381548110612c1257612c116138ad565b5b90600052602060002090600302016000015461293190919063ffffffff16565b856000018281548110612c4857612c476138ad565b5b9060005260206000209060030201600101541015612eda578460010154856000018281548110612c7b57612c7a6138ad565b5b9060005260206000209060030201600201541115612d4657612d3f603c612d31612cd5886000018581548110612cb457612cb36138ad565b5b90600052602060002090600302016002015442612b3290919063ffffffff16565b612d23612710612d158a8c6000018981548110612cf557612cf46138ad565b5b90600052602060002090600302016000015461293190919063ffffffff16565b6129ab90919063ffffffff16565b61293190919063ffffffff16565b6129ab90919063ffffffff16565b9150612dd2565b612dcf603c612dc1612d65886001015442612b3290919063ffffffff16565b612db3612710612da58a8c6000018981548110612d8557612d846138ad565b5b90600052602060002090600302016000015461293190919063ffffffff16565b6129ab90919063ffffffff16565b61293190919063ffffffff16565b6129ab90919063ffffffff16565b91505b612e0d6002866000018381548110612ded57612dec6138ad565b5b90600052602060002090600302016000015461293190919063ffffffff16565b612e4783876000018481548110612e2757612e266138ad565b5b906000526020600020906003020160010154612a0990919063ffffffff16565b1115612ec457612ec1856000018281548110612e6657612e656138ad565b5b906000526020600020906003020160010154612eb36002886000018581548110612e9357612e926138ad565b5b90600052602060002090600302016000015461293190919063ffffffff16565b612b3290919063ffffffff16565b91505b612ed78284612a0990919063ffffffff16565b92505b8080600101915050612be8565b5081945050505050919050565b600080600e60008473ffffffffffffffffffffffffffffffffffffffff1673ffffffffffffffffffffffffffffffffffffffff1681526020019081526020016000209050600080600090505b8260000180549050811015612f9857612f89836000018281548110612f6857612f676138ad565b5b90600052602060002090600302016000015483612a0990919063ffffffff16565b91508080600101915050612f40565b508092505050919050565b6000600e60008373ffffffffffffffffffffffffffffffffffffffff1673ffffffffffffffffffffffffffffffffffffffff168152602001908152602001600020600001805490509050919050565b600080600e60008473ffffffffffffffffffffffffffffffffffffffff1673ffffffffffffffffffffffffffffffffffffffff168152602001908152602001600020905060008160030154905060005b826000018054905081101561309a5761308b83600001828154811061306a576130696138ad565b5b90600052602060002090600302016001015483612a0990919063ffffffff16565b91508080600101915050613042565b508092505050919050565b6000806000905060005b600e60008573ffffffffffffffffffffffffffffffffffffffff1673ffffffffffffffffffffffffffffffffffffffff16815260200190815260200160002050600c8162ffffff16101561319657600e60008573ffffffffffffffffffffffffffffffffffffffff1673ffffffffffffffffffffffffffffffffffffffff1681526020019081526020016000206007018162ffffff16600c8110613156576131556138ad565b5b600a91828204019190066003029054906101000a900462ffffff1662ffffff1682613181919061390b565b9150808061318e90613ebe565b9150506130af565b5080915050919050565b6000600e60008373ffffffffffffffffffffffffffffffffffffffff1673ffffffffffffffffffffffffffffffffffffffff168152602001908152602001600020600601549050919050565b604051806101800160405280600c90602082028036833780820191505090505090565b6000819050919050565b6132228161320f565b82525050565b600060208201905061323d6000830184613219565b92915050565b600080fd5b600073ffffffffffffffffffffffffffffffffffffffff82169050919050565b600061327382613248565b9050919050565b61328381613268565b811461328e57600080fd5b50565b6000813590506132a08161327a565b92915050565b6000602082840312156132bc576132bb613243565b5b60006132ca84828501613291565b91505092915050565b60006132de82613248565b9050919050565b6132ee816132d3565b82525050565b600060208201905061330960008301846132e5565b92915050565b60006080820190506133246000830187613219565b6133316020830186613219565b61333e6040830185613219565b61334b6060830184613219565b95945050505050565b61335d816132d3565b811461336857600080fd5b50565b60008135905061337a81613354565b92915050565b60006020828403121561339657613395613243565b5b60006133a48482850161336b565b91505092915050565b6000600c9050919050565b600081905092915050565b6000819050919050565b600062ffffff82169050919050565b6133e5816133cd565b82525050565b60006133f783836133dc565b60208301905092915050565b6000602082019050919050565b613419816133ad565b61342381846133b8565b925061342e826133c3565b8060005b8381101561345f57815161344687826133eb565b965061345183613403565b925050600181019050613432565b505050505050565b60006101c08201905061347d60008301866132e5565b61348a6020830185613219565b6134976040830184613410565b949350505050565b6134a881613268565b82525050565b60006020820190506134c3600083018461349f565b92915050565b6134d28161320f565b81146134dd57600080fd5b50565b6000813590506134ef816134c9565b92915050565b60008060006060848603121561350e5761350d613243565b5b600061351c8682870161336b565b935050602061352d868287016134e0565b925050604061353e868287016134e0565b9150509250925092565b600081519050919050565b600082825260208201905092915050565b6000819050602082019050919050565b61357d8161320f565b82525050565b600061358f8383613574565b60208301905092915050565b6000602082019050919050565b60006135b382613548565b6135bd8185613553565b93506135c883613564565b8060005b838110156135f95781516135e08882613583565b97506135eb8361359b565b9250506001810190506135cc565b5085935050505092915050565b6000608082019050818103600083015261362081876135a8565b9050818103602083015261363481866135a8565b9050818103604083015261364881856135a8565b9050818103606083015261365c81846135a8565b905095945050505050565b600060e08201905061367c600083018a613219565b6136896020830189613219565b6136966040830188613219565b6136a36060830187613219565b6136b06080830186613219565b6136bd60a0830185613219565b6136ca60c0830184613219565b98975050505050505050565b60008115159050919050565b6136eb816136d6565b82525050565b600060208201905061370660008301846136e2565b92915050565b600082825260208201905092915050565b7f7478206f726967696e203d206d73672e73656e64657200000000000000000000600082015250565b600061375360168361370c565b915061375e8261371d565b602082019050919050565b6000602082019050818103600083015261378281613746565b9050919050565b7f74686520616d6f756e74206d757374207665206265747765656e206d696e206160008201527f6e64206d617820616d6f756e7473000000000000000000000000000000000000602082015250565b60006137e5602e8361370c565b91506137f082613789565b604082019050919050565b60006020820190508181036000830152613814816137d8565b9050919050565b7f4d6178696d756d20333030206465706f736974732066726f6d2061646472657360008201527f7300000000000000000000000000000000000000000000000000000000000000602082015250565b600061387760218361370c565b91506138828261381b565b604082019050919050565b600060208201905081810360008301526138a68161386a565b9050919050565b7f4e487b7100000000000000000000000000000000000000000000000000000000600052603260045260246000fd5b7f4e487b7100000000000000000000000000000000000000000000000000000000600052601160045260246000fd5b60006139168261320f565b91506139218361320f565b9250828201905080821115613939576139386138dc565b5b92915050565b600061394a826133cd565b9150613955836133cd565b9250828201905062ffffff8111156139705761396f6138dc565b5b92915050565b60006139818261320f565b91507fffffffffffffffffffffffffffffffffffffffffffffffffffffffffffffffff82036139b3576139b26138dc565b5b600182019050919050565b7f5573657220686173206e6f206469766964656e64730000000000000000000000600082015250565b60006139f460158361370c565b91506139ff826139be565b602082019050919050565b60006020820190508181036000830152613a23816139e7565b9050919050565b7f4e487b7100000000000000000000000000000000000000000000000000000000600052604160045260246000fd5b6000613a648261320f565b9150613a6f8361320f565b9250828203905081811115613a8757613a866138dc565b5b92915050565b6000613a988261320f565b915060008203613aab57613aaa6138dc565b5b600182039050919050565b7f4f6e6c79206f776e65722063616e2063616c6c20746869732066756e6374696f60008201527f6e2e000000000000000000000000000000000000000000000000000000000000602082015250565b6000613b1260228361370c565b9150613b1d82613ab6565b604082019050919050565b60006020820190508181036000830152613b4181613b05565b9050919050565b7f43616e6e6f74207365742073656c662061732075706c696e6520706172746e6560008201527f7200000000000000000000000000000000000000000000000000000000000000602082015250565b6000613ba460218361370c565b9150613baf82613b48565b604082019050919050565b60006020820190508181036000830152613bd381613b97565b9050919050565b7f55706c696e6520706172746e657220616c726561647920736574000000000000600082015250565b6000613c10601a8361370c565b9150613c1b82613bda565b602082019050919050565b60006020820190508181036000830152613c3f81613c03565b9050919050565b6000613c518261320f565b9150613c5c8361320f565b9250828202613c6a8161320f565b91508282048414831517613c8157613c806138dc565b5b5092915050565b7f4e487b7100000000000000000000000000000000000000000000000000000000600052601260045260246000fd5b6000613cc28261320f565b9150613ccd8361320f565b925082613cdd57613cdc613c88565b5b828204905092915050565b7f536166654d6174683a206d756c7469706c69636174696f6e206f766572666c6f60008201527f7700000000000000000000000000000000000000000000000000000000000000602082015250565b6000613d4460218361370c565b9150613d4f82613ce8565b604082019050919050565b60006020820190508181036000830152613d7381613d37565b9050919050565b7f536166654d6174683a206469766973696f6e206279207a65726f000000000000600082015250565b6000613db0601a8361370c565b9150613dbb82613d7a565b602082019050919050565b60006020820190508181036000830152613ddf81613da3565b9050919050565b7f536166654d6174683a206164646974696f6e206f766572666c6f770000000000600082015250565b6000613e1c601b8361370c565b9150613e2782613de6565b602082019050919050565b60006020820190508181036000830152613e4b81613e0f565b9050919050565b7f536166654d6174683a207375627472616374696f6e206f766572666c6f770000600082015250565b6000613e88601e8361370c565b9150613e9382613e52565b602082019050919050565b60006020820190508181036000830152613eb781613e7b565b9050919050565b6000613ec9826133cd565b915062ffffff8203613ede57613edd6138dc565b5b60018201905091905056fea26469706673582212205ec09cd3f00e109e77acb524a6413e878659c416de572c08a9586f2cafddba2464736f6c63430008160033","opcodes":"PUSH1 0x80 PUSH1 0x40 MSTORE PUSH1 0x32 PUSH1 0xA SSTORE CALLVALUE DUP1 ISZERO PUSH3 0x16 JUMPI PUSH1 0x0 DUP1 REVERT JUMPDEST POP PUSH1 0x40 MLOAD PUSH3 0x489D CODESIZE SUB DUP1 PUSH3 0x489D DUP4 CODECOPY DUP2 DUP2 ADD PUSH1 0x40 MSTORE DUP2 ADD SWAP1 PUSH3 0x3C SWAP2 SWAP1 PUSH3 0x8A3 JUMP JUMPDEST DUP6 PUSH1 0x1 PUSH1 0x0 PUSH2 0x100 EXP DUP2 SLOAD DUP2 PUSH20 0xFFFFFFFFFFFFFFFFFFFFFFFFFFFFFFFFFFFFFFFF MUL NOT AND SWAP1 DUP4 PUSH20 0xFFFFFFFFFFFFFFFFFFFFFFFFFFFFFFFFFFFFFFFF AND MUL OR SWAP1 SSTORE POP DUP5 PUSH1 0x2 PUSH1 0x0 PUSH2 0x100 EXP DUP2 SLOAD DUP2 PUSH20 0xFFFFFFFFFFFFFFFFFFFFFFFFFFFFFFFFFFFFFFFF MUL NOT AND SWAP1 DUP4 PUSH20 0xFFFFFFFFFFFFFFFFFFFFFFFFFFFFFFFFFFFFFFFF AND MUL OR SWAP1 SSTORE POP DUP4 PUSH1 0x3 PUSH1 0x0 PUSH2 0x100 EXP DUP2 SLOAD DUP2 PUSH20 0xFFFFFFFFFFFFFFFFFFFFFFFFFFFFFFFFFFFFFFFF MUL NOT AND SWAP1 DUP4 PUSH20 0xFFFFFFFFFFFFFFFFFFFFFFFFFFFFFFFFFFFFFFFF AND MUL OR SWAP1 SSTORE POP TIMESTAMP PUSH1 0xB DUP2 SWAP1 SSTORE POP DUP3 PUSH1 0x4 PUSH1 0x0 PUSH2 0x100 EXP DUP2 SLOAD DUP2 PUSH20 0xFFFFFFFFFFFFFFFFFFFFFFFFFFFFFFFFFFFFFFFF MUL NOT AND SWAP1 DUP4 PUSH20 0xFFFFFFFFFFFFFFFFFFFFFFFFFFFFFFFFFFFFFFFF AND MUL OR SWAP1 SSTORE POP DUP2 PUSH1 0x5 PUSH1 0x0 PUSH2 0x100 EXP DUP2 SLOAD DUP2 PUSH20 0xFFFFFFFFFFFFFFFFFFFFFFFFFFFFFFFFFFFFFFFF MUL NOT AND SWAP1 DUP4 PUSH20 0xFFFFFFFFFFFFFFFFFFFFFFFFFFFFFFFFFFFFFFFF AND MUL OR SWAP1 SSTORE POP DUP1 PUSH1 0x6 PUSH1 0x0 PUSH2 0x100 EXP DUP2 SLOAD DUP2 PUSH20 0xFFFFFFFFFFFFFFFFFFFFFFFFFFFFFFFFFFFFFFFF MUL NOT AND SWAP1 DUP4 PUSH20 0xFFFFFFFFFFFFFFFFFFFFFFFFFFFFFFFFFFFFFFFF AND MUL OR SWAP1 SSTORE POP CALLER PUSH1 0x0 DUP1 PUSH2 0x100 EXP DUP2 SLOAD DUP2 PUSH20 0xFFFFFFFFFFFFFFFFFFFFFFFFFFFFFFFFFFFFFFFF MUL NOT AND SWAP1 DUP4 PUSH20 0xFFFFFFFFFFFFFFFFFFFFFFFFFFFFFFFFFFFFFFFF AND MUL OR SWAP1 SSTORE POP PUSH1 0x40 MLOAD DUP1 PUSH1 0x60 ADD PUSH1 0x40 MSTORE DUP1 PUSH2 0x3E8 DUP2 MSTORE PUSH1 0x20 ADD PUSH8 0xDE0B6B3A7640000 DUP2 MSTORE PUSH1 0x20 ADD PUSH1 0x0 PUSH3 0xFFFFFF AND DUP2 MSTORE POP PUSH1 0x10 PUSH1 0x0 PUSH1 0xC DUP2 LT PUSH3 0x24C JUMPI PUSH3 0x24B PUSH3 0x93F JUMP JUMPDEST JUMPDEST PUSH1 0x3 MUL ADD PUSH1 0x0 DUP3 ADD MLOAD DUP2 PUSH1 0x0 ADD SSTORE PUSH1 0x20 DUP3 ADD MLOAD DUP2 PUSH1 0x1 ADD SSTORE PUSH1 0x40 DUP3 ADD MLOAD DUP2 PUSH1 0x2 ADD PUSH1 0x0 PUSH2 0x100 EXP DUP2 SLOAD DUP2 PUSH3 0xFFFFFF MUL NOT AND SWAP1 DUP4 PUSH3 0xFFFFFF AND MUL OR SWAP1 SSTORE POP SWAP1 POP POP PUSH1 0x40 MLOAD DUP1 PUSH1 0x60 ADD PUSH1 0x40 MSTORE DUP1 PUSH1 0xC8 DUP2 MSTORE PUSH1 0x20 ADD PUSH9 0x2B5E3AF16B1880000 DUP2 MSTORE PUSH1 0x20 ADD PUSH1 0x1 PUSH3 0xFFFFFF AND DUP2 MSTORE POP PUSH1 0x10 PUSH1 0x1 PUSH1 0xC DUP2 LT PUSH3 0x2CF JUMPI PUSH3 0x2CE PUSH3 0x93F JUMP JUMPDEST JUMPDEST PUSH1 0x3 MUL ADD PUSH1 0x0 DUP3 ADD MLOAD DUP2 PUSH1 0x0 ADD SSTORE PUSH1 0x20 DUP3 ADD MLOAD DUP2 PUSH1 0x1 ADD SSTORE PUSH1 0x40 DUP3 ADD MLOAD DUP2 PUSH1 0x2 ADD PUSH1 0x0 PUSH2 0x100 EXP DUP2 SLOAD DUP2 PUSH3 0xFFFFFF MUL NOT AND SWAP1 DUP4 PUSH3 0xFFFFFF AND MUL OR SWAP1 SSTORE POP SWAP1 POP POP PUSH1 0x40 MLOAD DUP1 PUSH1 0x60 ADD PUSH1 0x40 MSTORE DUP1 PUSH1 0x64 DUP2 MSTORE PUSH1 0x20 ADD PUSH9 0x56BC75E2D63100000 DUP2 MSTORE PUSH1 0x20 ADD PUSH1 0x1 PUSH3 0xFFFFFF AND DUP2 MSTORE POP PUSH1 0x10 PUSH1 0x2 PUSH1 0xC DUP2 LT PUSH3 0x352 JUMPI PUSH3 0x351 PUSH3 0x93F JUMP JUMPDEST JUMPDEST PUSH1 0x3 MUL ADD PUSH1 0x0 DUP3 ADD MLOAD DUP2 PUSH1 0x0 ADD SSTORE PUSH1 0x20 DUP3 ADD MLOAD DUP2 PUSH1 0x1 ADD SSTORE PUSH1 0x40 DUP3 ADD MLOAD DUP2 PUSH1 0x2 ADD PUSH1 0x0 PUSH2 0x100 EXP DUP2 SLOAD DUP2 PUSH3 0xFFFFFF MUL NOT AND SWAP1 DUP4 PUSH3 0xFFFFFF AND MUL OR SWAP1 SSTORE POP SWAP1 POP POP PUSH1 0x40 MLOAD DUP1 PUSH1 0x60 ADD PUSH1 0x40 MSTORE DUP1 PUSH1 0x64 DUP2 MSTORE PUSH1 0x20 ADD PUSH9 0x56BC75E2D63100000 DUP2 MSTORE PUSH1 0x20 ADD PUSH1 0x1 PUSH3 0xFFFFFF AND DUP2 MSTORE POP PUSH1 0x10 PUSH1 0x3 PUSH1 0xC DUP2 LT PUSH3 0x3D5 JUMPI PUSH3 0x3D4 PUSH3 0x93F JUMP JUMPDEST JUMPDEST PUSH1 0x3 MUL ADD PUSH1 0x0 DUP3 ADD MLOAD DUP2 PUSH1 0x0 ADD SSTORE PUSH1 0x20 DUP3 ADD MLOAD DUP2 PUSH1 0x1 ADD SSTORE PUSH1 0x40 DUP3 ADD MLOAD DUP2 PUSH1 0x2 ADD PUSH1 0x0 PUSH2 0x100 EXP DUP2 SLOAD DUP2 PUSH3 0xFFFFFF MUL NOT AND SWAP1 DUP4 PUSH3 0xFFFFFF AND MUL OR SWAP1 SSTORE POP SWAP1 POP POP PUSH1 0x40 MLOAD DUP1 PUSH1 0x60 ADD PUSH1 0x40 MSTORE DUP1 PUSH1 0x64 DUP2 MSTORE PUSH1 0x20 ADD PUSH9 0x56BC75E2D63100000 DUP2 MSTORE PUSH1 0x20 ADD PUSH1 0x1 PUSH3 0xFFFFFF AND DUP2 MSTORE POP PUSH1 0x10 PUSH1 0x4 PUSH1 0xC DUP2 LT PUSH3 0x458 JUMPI PUSH3 0x457 PUSH3 0x93F JUMP JUMPDEST JUMPDEST PUSH1 0x3 MUL ADD PUSH1 0x0 DUP3 ADD MLOAD DUP2 PUSH1 0x0 ADD SSTORE PUSH1 0x20 DUP3 ADD MLOAD DUP2 PUSH1 0x1 ADD SSTORE PUSH1 0x40 DUP3 ADD MLOAD DUP2 PUSH1 0x2 ADD PUSH1 0x0 PUSH2 0x100 EXP DUP2 SLOAD DUP2 PUSH3 0xFFFFFF MUL NOT AND SWAP1 DUP4 PUSH3 0xFFFFFF AND MUL OR SWAP1 SSTORE POP SWAP1 POP POP PUSH1 0x40 MLOAD DUP1 PUSH1 0x60 ADD PUSH1 0x40 MSTORE DUP1 PUSH1 0x64 DUP2 MSTORE PUSH1 0x20 ADD PUSH9 0xAD78EBC5AC6200000 DUP2 MSTORE PUSH1 0x20 ADD PUSH1 0x6 PUSH3 0xFFFFFF AND DUP2 MSTORE POP PUSH1 0x10 PUSH1 0x5 PUSH1 0xC DUP2 LT PUSH3 0x4DB JUMPI PUSH3 0x4DA PUSH3 0x93F JUMP JUMPDEST JUMPDEST PUSH1 0x3 MUL ADD PUSH1 0x0 DUP3 ADD MLOAD DUP2 PUSH1 0x0 ADD SSTORE PUSH1 0x20 DUP3 ADD MLOAD DUP2 PUSH1 0x1 ADD SSTORE PUSH1 0x40 DUP3 ADD MLOAD DUP2 PUSH1 0x2 ADD PUSH1 0x0 PUSH2 0x100 EXP DUP2 SLOAD DUP2 PUSH3 0xFFFFFF MUL NOT AND SWAP1 DUP4 PUSH3 0xFFFFFF AND MUL OR SWAP1 SSTORE POP SWAP1 POP POP PUSH1 0x40 MLOAD DUP1 PUSH1 0x60 ADD PUSH1 0x40 MSTORE DUP1 PUSH1 0x64 DUP2 MSTORE PUSH1 0x20 ADD PUSH9 0x1043561A8829300000 DUP2 MSTORE PUSH1 0x20 ADD PUSH1 0x7 PUSH3 0xFFFFFF AND DUP2 MSTORE POP PUSH1 0x10 PUSH1 0x6 PUSH1 0xC DUP2 LT PUSH3 0x55E JUMPI PUSH3 0x55D PUSH3 0x93F JUMP JUMPDEST JUMPDEST PUSH1 0x3 MUL ADD PUSH1 0x0 DUP3 ADD MLOAD DUP2 PUSH1 0x0 ADD SSTORE PUSH1 0x20 DUP3 ADD MLOAD DUP2 PUSH1 0x1 ADD SSTORE PUSH1 0x40 DUP3 ADD MLOAD DUP2 PUSH1 0x2 ADD PUSH1 0x0 PUSH2 0x100 EXP DUP2 SLOAD DUP2 PUSH3 0xFFFFFF MUL NOT AND SWAP1 DUP4 PUSH3 0xFFFFFF AND MUL OR SWAP1 SSTORE POP SWAP1 POP POP PUSH1 0x40 MLOAD DUP1 PUSH1 0x60 ADD PUSH1 0x40 MSTORE DUP1 PUSH1 0x64 DUP2 MSTORE PUSH1 0x20 ADD PUSH9 0x1B1AE4D6E2EF500000 DUP2 MSTORE PUSH1 0x20 ADD PUSH1 0x8 PUSH3 0xFFFFFF AND DUP2 MSTORE POP PUSH1 0x10 PUSH1 0x7 PUSH1 0xC DUP2 LT PUSH3 0x5E1 JUMPI PUSH3 0x5E0 PUSH3 0x93F JUMP JUMPDEST JUMPDEST PUSH1 0x3 MUL ADD PUSH1 0x0 DUP3 ADD MLOAD DUP2 PUSH1 0x0 ADD SSTORE PUSH1 0x20 DUP3 ADD MLOAD DUP2 PUSH1 0x1 ADD SSTORE PUSH1 0x40 DUP3 ADD MLOAD DUP2 PUSH1 0x2 ADD PUSH1 0x0 PUSH2 0x100 EXP DUP2 SLOAD DUP2 PUSH3 0xFFFFFF MUL NOT AND SWAP1 DUP4 PUSH3 0xFFFFFF AND MUL OR SWAP1 SSTORE POP SWAP1 POP POP PUSH1 0x40 MLOAD DUP1 PUSH1 0x60 ADD PUSH1 0x40 MSTORE DUP1 PUSH1 0x64 DUP2 MSTORE PUSH1 0x20 ADD PUSH9 0x28A857425466F80000 DUP2 MSTORE PUSH1 0x20 ADD PUSH1 0x9 PUSH3 0xFFFFFF AND DUP2 MSTORE POP PUSH1 0x10 PUSH1 0x8 PUSH1 0xC DUP2 LT PUSH3 0x664 JUMPI PUSH3 0x663 PUSH3 0x93F JUMP JUMPDEST JUMPDEST PUSH1 0x3 MUL ADD PUSH1 0x0 DUP3 ADD MLOAD DUP2 PUSH1 0x0 ADD SSTORE PUSH1 0x20 DUP3 ADD MLOAD DUP2 PUSH1 0x1 ADD SSTORE PUSH1 0x40 DUP3 ADD MLOAD DUP2 PUSH1 0x2 ADD PUSH1 0x0 PUSH2 0x100 EXP DUP2 SLOAD DUP2 PUSH3 0xFFFFFF MUL NOT AND SWAP1 DUP4 PUSH3 0xFFFFFF AND MUL OR SWAP1 SSTORE POP SWAP1 POP POP PUSH1 0x40 MLOAD DUP1 PUSH1 0x60 ADD PUSH1 0x40 MSTORE DUP1 PUSH1 0x64 DUP2 MSTORE PUSH1 0x20 ADD PUSH9 0x28A857425466F80000 DUP2 MSTORE PUSH1 0x20 ADD PUSH1 0xA PUSH3 0xFFFFFF AND DUP2 MSTORE POP PUSH1 0x10 PUSH1 0x9 PUSH1 0xC DUP2 LT PUSH3 0x6E7 JUMPI PUSH3 0x6E6 PUSH3 0x93F JUMP JUMPDEST JUMPDEST PUSH1 0x3 MUL ADD PUSH1 0x0 DUP3 ADD MLOAD DUP2 PUSH1 0x0 ADD SSTORE PUSH1 0x20 DUP3 ADD MLOAD DUP2 PUSH1 0x1 ADD SSTORE PUSH1 0x40 DUP3 ADD MLOAD DUP2 PUSH1 0x2 ADD PUSH1 0x0 PUSH2 0x100 EXP DUP2 SLOAD DUP2 PUSH3 0xFFFFFF MUL NOT AND SWAP1 DUP4 PUSH3 0xFFFFFF AND MUL OR SWAP1 SSTORE POP SWAP1 POP POP PUSH1 0x40 MLOAD DUP1 PUSH1 0x60 ADD PUSH1 0x40 MSTORE DUP1 PUSH1 0x64 DUP2 MSTORE PUSH1 0x20 ADD PUSH9 0x3635C9ADC5DEA00000 DUP2 MSTORE PUSH1 0x20 ADD PUSH1 0xB PUSH3 0xFFFFFF AND DUP2 MSTORE POP PUSH1 0x10 PUSH1 0xA PUSH1 0xC DUP2 LT PUSH3 0x76A JUMPI PUSH3 0x769 PUSH3 0x93F JUMP JUMPDEST JUMPDEST PUSH1 0x3 MUL ADD PUSH1 0x0 DUP3 ADD MLOAD DUP2 PUSH1 0x0 ADD SSTORE PUSH1 0x20 DUP3 ADD MLOAD DUP2 PUSH1 0x1 ADD SSTORE PUSH1 0x40 DUP3 ADD MLOAD DUP2 PUSH1 0x2 ADD PUSH1 0x0 PUSH2 0x100 EXP DUP2 SLOAD DUP2 PUSH3 0xFFFFFF MUL NOT AND SWAP1 DUP4 PUSH3 0xFFFFFF AND MUL OR SWAP1 SSTORE POP SWAP1 POP POP PUSH1 0x40 MLOAD DUP1 PUSH1 0x60 ADD PUSH1 0x40 MSTORE DUP1 PUSH1 0x64 DUP2 MSTORE PUSH1 0x20 ADD PUSH9 0x3635C9ADC5DEA00000 DUP2 MSTORE PUSH1 0x20 ADD PUSH1 0xC PUSH3 0xFFFFFF AND DUP2 MSTORE POP PUSH1 0x10 PUSH1 0xB PUSH1 0xC DUP2 LT PUSH3 0x7ED JUMPI PUSH3 0x7EC PUSH3 0x93F JUMP JUMPDEST JUMPDEST PUSH1 0x3 MUL ADD PUSH1 0x0 DUP3 ADD MLOAD DUP2 PUSH1 0x0 ADD SSTORE PUSH1 0x20 DUP3 ADD MLOAD DUP2 PUSH1 0x1 ADD SSTORE PUSH1 0x40 DUP3 ADD MLOAD DUP2 PUSH1 0x2 ADD PUSH1 0x0 PUSH2 0x100 EXP DUP2 SLOAD DUP2 PUSH3 0xFFFFFF MUL NOT AND SWAP1 DUP4 PUSH3 0xFFFFFF AND MUL OR SWAP1 SSTORE POP SWAP1 POP POP POP POP POP POP POP POP PUSH3 0x96E JUMP JUMPDEST PUSH1 0x0 DUP1 REVERT JUMPDEST PUSH1 0x0 PUSH20 0xFFFFFFFFFFFFFFFFFFFFFFFFFFFFFFFFFFFFFFFF DUP3 AND SWAP1 POP SWAP2 SWAP1 POP JUMP JUMPDEST PUSH1 0x0 PUSH3 0x86B DUP3 PUSH3 0x83E JUMP JUMPDEST SWAP1 POP SWAP2 SWAP1 POP JUMP JUMPDEST PUSH3 0x87D DUP2 PUSH3 0x85E JUMP JUMPDEST DUP2 EQ PUSH3 0x889 JUMPI PUSH1 0x0 DUP1 REVERT JUMPDEST POP JUMP JUMPDEST PUSH1 0x0 DUP2 MLOAD SWAP1 POP PUSH3 0x89D DUP2 PUSH3 0x872 JUMP JUMPDEST SWAP3 SWAP2 POP POP JUMP JUMPDEST PUSH1 0x0 DUP1 PUSH1 0x0 DUP1 PUSH1 0x0 DUP1 PUSH1 0xC0 DUP8 DUP10 SUB SLT ISZERO PUSH3 0x8C3 JUMPI PUSH3 0x8C2 PUSH3 0x839 JUMP JUMPDEST JUMPDEST PUSH1 0x0 PUSH3 0x8D3 DUP10 DUP3 DUP11 ADD PUSH3 0x88C JUMP JUMPDEST SWAP7 POP POP PUSH1 0x20 PUSH3 0x8E6 DUP10 DUP3 DUP11 ADD PUSH3 0x88C JUMP JUMPDEST SWAP6 POP POP PUSH1 0x40 PUSH3 0x8F9 DUP10 DUP3 DUP11 ADD PUSH3 0x88C JUMP JUMPDEST SWAP5 POP POP PUSH1 0x60 PUSH3 0x90C DUP10 DUP3 DUP11 ADD PUSH3 0x88C JUMP JUMPDEST SWAP4 POP POP PUSH1 0x80 PUSH3 0x91F DUP10 DUP3 DUP11 ADD PUSH3 0x88C JUMP JUMPDEST SWAP3 POP POP PUSH1 0xA0 PUSH3 0x932 DUP10 DUP3 DUP11 ADD PUSH3 0x88C JUMP JUMPDEST SWAP2 POP POP SWAP3 SWAP6 POP SWAP3 SWAP6 POP SWAP3 SWAP6 JUMP JUMPDEST PUSH32 0x4E487B7100000000000000000000000000000000000000000000000000000000 PUSH1 0x0 MSTORE PUSH1 0x32 PUSH1 0x4 MSTORE PUSH1 0x24 PUSH1 0x0 REVERT JUMPDEST PUSH2 0x3F1F DUP1 PUSH3 0x97E PUSH1 0x0 CODECOPY PUSH1 0x0 RETURN INVALID PUSH1 0x80 PUSH1 0x40 MSTORE PUSH1 0x4 CALLDATASIZE LT PUSH2 0x21A JUMPI PUSH1 0x0 CALLDATALOAD PUSH1 0xE0 SHR DUP1 PUSH4 0x4E43603A GT PUSH2 0x123 JUMPI DUP1 PUSH4 0x9F8A13D7 GT PUSH2 0xAB JUMPI DUP1 PUSH4 0xBC1D720D GT PUSH2 0x6F JUMPI DUP1 PUSH4 0xBC1D720D EQ PUSH2 0x7E6 JUMPI DUP1 PUSH4 0xCEA3E530 EQ PUSH2 0x811 JUMPI DUP1 PUSH4 0xE262113E EQ PUSH2 0x83C JUMPI DUP1 PUSH4 0xE956A7C7 EQ PUSH2 0x867 JUMPI DUP1 PUSH4 0xF6B4DFB4 EQ PUSH2 0x8A4 JUMPI PUSH2 0x21A JUMP JUMPDEST DUP1 PUSH4 0x9F8A13D7 EQ PUSH2 0x6EB JUMPI DUP1 PUSH4 0xA5ECE941 EQ PUSH2 0x728 JUMPI DUP1 PUSH4 0xA8899D63 EQ PUSH2 0x753 JUMPI DUP1 PUSH4 0xAEF18C25 EQ PUSH2 0x790 JUMPI DUP1 PUSH4 0xAF3E2122 EQ PUSH2 0x7BB JUMPI PUSH2 0x21A JUMP JUMPDEST DUP1 PUSH4 0x6F9FB98A GT PUSH2 0xF2 JUMPI DUP1 PUSH4 0x6F9FB98A EQ PUSH2 0x602 JUMPI DUP1 PUSH4 0x7D8CB7A2 EQ PUSH2 0x62D JUMPI DUP1 PUSH4 0x8DA5CB5B EQ PUSH2 0x658 JUMPI DUP1 PUSH4 0x9BB57718 EQ PUSH2 0x683 JUMPI DUP1 PUSH4 0x9C11957D EQ PUSH2 0x6AE JUMPI PUSH2 0x21A JUMP JUMPDEST DUP1 PUSH4 0x4E43603A EQ PUSH2 0x53E JUMPI DUP1 PUSH4 0x5A18719C EQ PUSH2 0x581 JUMPI DUP1 PUSH4 0x5C101693 EQ PUSH2 0x5AC JUMPI DUP1 PUSH4 0x665DB73D EQ PUSH2 0x5D7 JUMPI PUSH2 0x21A JUMP JUMPDEST DUP1 PUSH4 0x32E1C733 GT PUSH2 0x1A6 JUMPI DUP1 PUSH4 0x44767308 GT PUSH2 0x175 JUMPI DUP1 PUSH4 0x44767308 EQ PUSH2 0x454 JUMPI DUP1 PUSH4 0x4698B883 EQ PUSH2 0x47F JUMPI DUP1 PUSH4 0x477BDDAA EQ PUSH2 0x4BF JUMPI DUP1 PUSH4 0x48D44BD1 EQ PUSH2 0x4E8 JUMPI DUP1 PUSH4 0x4B319713 EQ PUSH2 0x513 JUMPI PUSH2 0x21A JUMP JUMPDEST DUP1 PUSH4 0x32E1C733 EQ PUSH2 0x3BC JUMPI DUP1 PUSH4 0x3CCFD60B EQ PUSH2 0x3E7 JUMPI DUP1 PUSH4 0x3CF96AF1 EQ PUSH2 0x3FE JUMPI DUP1 PUSH4 0x40653D3D EQ PUSH2 0x429 JUMPI PUSH2 0x21A JUMP JUMPDEST DUP1 PUSH4 0x27F9C4C1 GT PUSH2 0x1ED JUMPI DUP1 PUSH4 0x27F9C4C1 EQ PUSH2 0x2BF JUMPI DUP1 PUSH4 0x2BA285E6 EQ PUSH2 0x2FC JUMPI DUP1 PUSH4 0x2D369C90 EQ PUSH2 0x33B JUMPI DUP1 PUSH4 0x32A2C5D0 EQ PUSH2 0x366 JUMPI DUP1 PUSH4 0x32BC298C EQ PUSH2 0x391 JUMPI PUSH2 0x21A JUMP JUMPDEST DUP1 PUSH4 0x1C234A8 EQ PUSH2 0x21F JUMPI DUP1 PUSH4 0x3F9C793 EQ PUSH2 0x24A JUMPI DUP1 PUSH4 0x1D47C1A4 EQ PUSH2 0x266 JUMPI DUP1 PUSH4 0x1DBA5B08 EQ PUSH2 0x291 JUMPI JUMPDEST PUSH1 0x0 DUP1 REVERT JUMPDEST CALLVALUE DUP1 ISZERO PUSH2 0x22B JUMPI PUSH1 0x0 DUP1 REVERT JUMPDEST POP PUSH2 0x234 PUSH2 0x8CF JUMP JUMPDEST PUSH1 0x40 MLOAD PUSH2 0x241 SWAP2 SWAP1 PUSH2 0x3228 JUMP JUMPDEST PUSH1 0x40 MLOAD DUP1 SWAP2 SUB SWAP1 RETURN JUMPDEST PUSH2 0x264 PUSH1 0x4 DUP1 CALLDATASIZE SUB DUP2 ADD SWAP1 PUSH2 0x25F SWAP2 SWAP1 PUSH2 0x32A6 JUMP JUMPDEST PUSH2 0x8D5 JUMP JUMPDEST STOP JUMPDEST CALLVALUE DUP1 ISZERO PUSH2 0x272 JUMPI PUSH1 0x0 DUP1 REVERT JUMPDEST POP PUSH2 0x27B PUSH2 0x16A4 JUMP JUMPDEST PUSH1 0x40 MLOAD PUSH2 0x288 SWAP2 SWAP1 PUSH2 0x32F4 JUMP JUMPDEST PUSH1 0x40 MLOAD DUP1 SWAP2 SUB SWAP1 RETURN JUMPDEST CALLVALUE DUP1 ISZERO PUSH2 0x29D JUMPI PUSH1 0x0 DUP1 REVERT JUMPDEST POP PUSH2 0x2A6 PUSH2 0x170B JUMP JUMPDEST PUSH1 0x40 MLOAD PUSH2 0x2B6 SWAP5 SWAP4 SWAP3 SWAP2 SWAP1 PUSH2 0x330F JUMP JUMPDEST PUSH1 0x40 MLOAD DUP1 SWAP2 SUB SWAP1 RETURN JUMPDEST CALLVALUE DUP1 ISZERO PUSH2 0x2CB JUMPI PUSH1 0x0 DUP1 REVERT JUMPDEST POP PUSH2 0x2E6 PUSH1 0x4 DUP1 CALLDATASIZE SUB DUP2 ADD SWAP1 PUSH2 0x2E1 SWAP2 SWAP1 PUSH2 0x3380 JUMP JUMPDEST PUSH2 0x1762 JUMP JUMPDEST PUSH1 0x40 MLOAD PUSH2 0x2F3 SWAP2 SWAP1 PUSH2 0x3228 JUMP JUMPDEST PUSH1 0x40 MLOAD DUP1 SWAP2 SUB SWAP1 RETURN JUMPDEST CALLVALUE DUP1 ISZERO PUSH2 0x308 JUMPI PUSH1 0x0 DUP1 REVERT JUMPDEST POP PUSH2 0x323 PUSH1 0x4 DUP1 CALLDATASIZE SUB DUP2 ADD SWAP1 PUSH2 0x31E SWAP2 SWAP1 PUSH2 0x3380 JUMP JUMPDEST PUSH2 0x17AE JUMP JUMPDEST PUSH1 0x40 MLOAD PUSH2 0x332 SWAP4 SWAP3 SWAP2 SWAP1 PUSH2 0x3467 JUMP JUMPDEST PUSH1 0x40 MLOAD DUP1 SWAP2 SUB SWAP1 RETURN JUMPDEST CALLVALUE DUP1 ISZERO PUSH2 0x347 JUMPI PUSH1 0x0 DUP1 REVERT JUMPDEST POP PUSH2 0x350 PUSH2 0x18A1 JUMP JUMPDEST PUSH1 0x40 MLOAD PUSH2 0x35D SWAP2 SWAP1 PUSH2 0x34AE JUMP JUMPDEST PUSH1 0x40 MLOAD DUP1 SWAP2 SUB SWAP1 RETURN JUMPDEST CALLVALUE DUP1 ISZERO PUSH2 0x372 JUMPI PUSH1 0x0 DUP1 REVERT JUMPDEST POP PUSH2 0x37B PUSH2 0x18C7 JUMP JUMPDEST PUSH1 0x40 MLOAD PUSH2 0x388 SWAP2 SWAP1 PUSH2 0x32F4 JUMP JUMPDEST PUSH1 0x40 MLOAD DUP1 SWAP2 SUB SWAP1 RETURN JUMPDEST CALLVALUE DUP1 ISZERO PUSH2 0x39D JUMPI PUSH1 0x0 DUP1 REVERT JUMPDEST POP PUSH2 0x3A6 PUSH2 0x18F1 JUMP JUMPDEST PUSH1 0x40 MLOAD PUSH2 0x3B3 SWAP2 SWAP1 PUSH2 0x3228 JUMP JUMPDEST PUSH1 0x40 MLOAD DUP1 SWAP2 SUB SWAP1 RETURN JUMPDEST CALLVALUE DUP1 ISZERO PUSH2 0x3C8 JUMPI PUSH1 0x0 DUP1 REVERT JUMPDEST POP PUSH2 0x3D1 PUSH2 0x18F6 JUMP JUMPDEST PUSH1 0x40 MLOAD PUSH2 0x3DE SWAP2 SWAP1 PUSH2 0x3228 JUMP JUMPDEST PUSH1 0x40 MLOAD DUP1 SWAP2 SUB SWAP1 RETURN JUMPDEST CALLVALUE DUP1 ISZERO PUSH2 0x3F3 JUMPI PUSH1 0x0 DUP1 REVERT JUMPDEST POP PUSH2 0x3FC PUSH2 0x18FC JUMP JUMPDEST STOP JUMPDEST CALLVALUE DUP1 ISZERO PUSH2 0x40A JUMPI PUSH1 0x0 DUP1 REVERT JUMPDEST POP PUSH2 0x413 PUSH2 0x1F18 JUMP JUMPDEST PUSH1 0x40 MLOAD PUSH2 0x420 SWAP2 SWAP1 PUSH2 0x34AE JUMP JUMPDEST PUSH1 0x40 MLOAD DUP1 SWAP2 SUB SWAP1 RETURN JUMPDEST CALLVALUE DUP1 ISZERO PUSH2 0x435 JUMPI PUSH1 0x0 DUP1 REVERT JUMPDEST POP PUSH2 0x43E PUSH2 0x1F3E JUMP JUMPDEST PUSH1 0x40 MLOAD PUSH2 0x44B SWAP2 SWAP1 PUSH2 0x34AE JUMP JUMPDEST PUSH1 0x40 MLOAD DUP1 SWAP2 SUB SWAP1 RETURN JUMPDEST CALLVALUE DUP1 ISZERO PUSH2 0x460 JUMPI PUSH1 0x0 DUP1 REVERT JUMPDEST POP PUSH2 0x469 PUSH2 0x1F64 JUMP JUMPDEST PUSH1 0x40 MLOAD PUSH2 0x476 SWAP2 SWAP1 PUSH2 0x3228 JUMP JUMPDEST PUSH1 0x40 MLOAD DUP1 SWAP2 SUB SWAP1 RETURN JUMPDEST CALLVALUE DUP1 ISZERO PUSH2 0x48B JUMPI PUSH1 0x0 DUP1 REVERT JUMPDEST POP PUSH2 0x4A6 PUSH1 0x4 DUP1 CALLDATASIZE SUB DUP2 ADD SWAP1 PUSH2 0x4A1 SWAP2 SWAP1 PUSH2 0x34F5 JUMP JUMPDEST PUSH2 0x1F69 JUMP JUMPDEST PUSH1 0x40 MLOAD PUSH2 0x4B6 SWAP5 SWAP4 SWAP3 SWAP2 SWAP1 PUSH2 0x3606 JUMP JUMPDEST PUSH1 0x40 MLOAD DUP1 SWAP2 SUB SWAP1 RETURN JUMPDEST CALLVALUE DUP1 ISZERO PUSH2 0x4CB JUMPI PUSH1 0x0 DUP1 REVERT JUMPDEST POP PUSH2 0x4E6 PUSH1 0x4 DUP1 CALLDATASIZE SUB DUP2 ADD SWAP1 PUSH2 0x4E1 SWAP2 SWAP1 PUSH2 0x3380 JUMP JUMPDEST PUSH2 0x225D JUMP JUMPDEST STOP JUMPDEST CALLVALUE DUP1 ISZERO PUSH2 0x4F4 JUMPI PUSH1 0x0 DUP1 REVERT JUMPDEST POP PUSH2 0x4FD PUSH2 0x232F JUMP JUMPDEST PUSH1 0x40 MLOAD PUSH2 0x50A SWAP2 SWAP1 PUSH2 0x3228 JUMP JUMPDEST PUSH1 0x40 MLOAD DUP1 SWAP2 SUB SWAP1 RETURN JUMPDEST CALLVALUE DUP1 ISZERO PUSH2 0x51F JUMPI PUSH1 0x0 DUP1 REVERT JUMPDEST POP PUSH2 0x528 PUSH2 0x2335 JUMP JUMPDEST PUSH1 0x40 MLOAD PUSH2 0x535 SWAP2 SWAP1 PUSH2 0x3228 JUMP JUMPDEST PUSH1 0x40 MLOAD DUP1 SWAP2 SUB SWAP1 RETURN JUMPDEST CALLVALUE DUP1 ISZERO PUSH2 0x54A JUMPI PUSH1 0x0 DUP1 REVERT JUMPDEST POP PUSH2 0x565 PUSH1 0x4 DUP1 CALLDATASIZE SUB DUP2 ADD SWAP1 PUSH2 0x560 SWAP2 SWAP1 PUSH2 0x3380 JUMP JUMPDEST PUSH2 0x233B JUMP JUMPDEST PUSH1 0x40 MLOAD PUSH2 0x578 SWAP8 SWAP7 SWAP6 SWAP5 SWAP4 SWAP3 SWAP2 SWAP1 PUSH2 0x3667 JUMP JUMPDEST PUSH1 0x40 MLOAD DUP1 SWAP2 SUB SWAP1 RETURN JUMPDEST CALLVALUE DUP1 ISZERO PUSH2 0x58D JUMPI PUSH1 0x0 DUP1 REVERT JUMPDEST POP PUSH2 0x596 PUSH2 0x23C7 JUMP JUMPDEST PUSH1 0x40 MLOAD PUSH2 0x5A3 SWAP2 SWAP1 PUSH2 0x3228 JUMP JUMPDEST PUSH1 0x40 MLOAD DUP1 SWAP2 SUB SWAP1 RETURN JUMPDEST CALLVALUE DUP1 ISZERO PUSH2 0x5B8 JUMPI PUSH1 0x0 DUP1 REVERT JUMPDEST POP PUSH2 0x5C1 PUSH2 0x23CC JUMP JUMPDEST PUSH1 0x40 MLOAD PUSH2 0x5CE SWAP2 SWAP1 PUSH2 0x34AE JUMP JUMPDEST PUSH1 0x40 MLOAD DUP1 SWAP2 SUB SWAP1 RETURN JUMPDEST CALLVALUE DUP1 ISZERO PUSH2 0x5E3 JUMPI PUSH1 0x0 DUP1 REVERT JUMPDEST POP PUSH2 0x5EC PUSH2 0x23F2 JUMP JUMPDEST PUSH1 0x40 MLOAD PUSH2 0x5F9 SWAP2 SWAP1 PUSH2 0x3228 JUMP JUMPDEST PUSH1 0x40 MLOAD DUP1 SWAP2 SUB SWAP1 RETURN JUMPDEST CALLVALUE DUP1 ISZERO PUSH2 0x60E JUMPI PUSH1 0x0 DUP1 REVERT JUMPDEST POP PUSH2 0x617 PUSH2 0x23F8 JUMP JUMPDEST PUSH1 0x40 MLOAD PUSH2 0x624 SWAP2 SWAP1 PUSH2 0x3228 JUMP JUMPDEST PUSH1 0x40 MLOAD DUP1 SWAP2 SUB SWAP1 RETURN JUMPDEST CALLVALUE DUP1 ISZERO PUSH2 0x639 JUMPI PUSH1 0x0 DUP1 REVERT JUMPDEST POP PUSH2 0x642 PUSH2 0x2439 JUMP JUMPDEST PUSH1 0x40 MLOAD PUSH2 0x64F SWAP2 SWAP1 PUSH2 0x3228 JUMP JUMPDEST PUSH1 0x40 MLOAD DUP1 SWAP2 SUB SWAP1 RETURN JUMPDEST CALLVALUE DUP1 ISZERO PUSH2 0x664 JUMPI PUSH1 0x0 DUP1 REVERT JUMPDEST POP PUSH2 0x66D PUSH2 0x2447 JUMP JUMPDEST PUSH1 0x40 MLOAD PUSH2 0x67A SWAP2 SWAP1 PUSH2 0x32F4 JUMP JUMPDEST PUSH1 0x40 MLOAD DUP1 SWAP2 SUB SWAP1 RETURN JUMPDEST CALLVALUE DUP1 ISZERO PUSH2 0x68F JUMPI PUSH1 0x0 DUP1 REVERT JUMPDEST POP PUSH2 0x698 PUSH2 0x246B JUMP JUMPDEST PUSH1 0x40 MLOAD PUSH2 0x6A5 SWAP2 SWAP1 PUSH2 0x3228 JUMP JUMPDEST PUSH1 0x40 MLOAD DUP1 SWAP2 SUB SWAP1 RETURN JUMPDEST CALLVALUE DUP1 ISZERO PUSH2 0x6BA JUMPI PUSH1 0x0 DUP1 REVERT JUMPDEST POP PUSH2 0x6D5 PUSH1 0x4 DUP1 CALLDATASIZE SUB DUP2 ADD SWAP1 PUSH2 0x6D0 SWAP2 SWAP1 PUSH2 0x3380 JUMP JUMPDEST PUSH2 0x2471 JUMP JUMPDEST PUSH1 0x40 MLOAD PUSH2 0x6E2 SWAP2 SWAP1 PUSH2 0x3228 JUMP JUMPDEST PUSH1 0x40 MLOAD DUP1 SWAP2 SUB SWAP1 RETURN JUMPDEST CALLVALUE DUP1 ISZERO PUSH2 0x6F7 JUMPI PUSH1 0x0 DUP1 REVERT JUMPDEST POP PUSH2 0x712 PUSH1 0x4 DUP1 CALLDATASIZE SUB DUP2 ADD SWAP1 PUSH2 0x70D SWAP2 SWAP1 PUSH2 0x3380 JUMP JUMPDEST PUSH2 0x24C2 JUMP JUMPDEST PUSH1 0x40 MLOAD PUSH2 0x71F SWAP2 SWAP1 PUSH2 0x36F1 JUMP JUMPDEST PUSH1 0x40 MLOAD DUP1 SWAP2 SUB SWAP1 RETURN JUMPDEST CALLVALUE DUP1 ISZERO PUSH2 0x734 JUMPI PUSH1 0x0 DUP1 REVERT JUMPDEST POP PUSH2 0x73D PUSH2 0x25AB JUMP JUMPDEST PUSH1 0x40 MLOAD PUSH2 0x74A SWAP2 SWAP1 PUSH2 0x34AE JUMP JUMPDEST PUSH1 0x40 MLOAD DUP1 SWAP2 SUB SWAP1 RETURN JUMPDEST CALLVALUE DUP1 ISZERO PUSH2 0x75F JUMPI PUSH1 0x0 DUP1 REVERT JUMPDEST POP PUSH2 0x77A PUSH1 0x4 DUP1 CALLDATASIZE SUB DUP2 ADD SWAP1 PUSH2 0x775 SWAP2 SWAP1 PUSH2 0x3380 JUMP JUMPDEST PUSH2 0x25D1 JUMP JUMPDEST PUSH1 0x40 MLOAD PUSH2 0x787 SWAP2 SWAP1 PUSH2 0x3228 JUMP JUMPDEST PUSH1 0x40 MLOAD DUP1 SWAP2 SUB SWAP1 RETURN JUMPDEST CALLVALUE DUP1 ISZERO PUSH2 0x79C JUMPI PUSH1 0x0 DUP1 REVERT JUMPDEST POP PUSH2 0x7A5 PUSH2 0x261D JUMP JUMPDEST PUSH1 0x40 MLOAD PUSH2 0x7B2 SWAP2 SWAP1 PUSH2 0x3228 JUMP JUMPDEST PUSH1 0x40 MLOAD DUP1 SWAP2 SUB SWAP1 RETURN JUMPDEST CALLVALUE DUP1 ISZERO PUSH2 0x7C7 JUMPI PUSH1 0x0 DUP1 REVERT JUMPDEST POP PUSH2 0x7D0 PUSH2 0x2623 JUMP JUMPDEST PUSH1 0x40 MLOAD PUSH2 0x7DD SWAP2 SWAP1 PUSH2 0x3228 JUMP JUMPDEST PUSH1 0x40 MLOAD DUP1 SWAP2 SUB SWAP1 RETURN JUMPDEST CALLVALUE DUP1 ISZERO PUSH2 0x7F2 JUMPI PUSH1 0x0 DUP1 REVERT JUMPDEST POP PUSH2 0x7FB PUSH2 0x2629 JUMP JUMPDEST PUSH1 0x40 MLOAD PUSH2 0x808 SWAP2 SWAP1 PUSH2 0x34AE JUMP JUMPDEST PUSH1 0x40 MLOAD DUP1 SWAP2 SUB SWAP1 RETURN JUMPDEST CALLVALUE DUP1 ISZERO PUSH2 0x81D JUMPI PUSH1 0x0 DUP1 REVERT JUMPDEST POP PUSH2 0x826 PUSH2 0x264F JUMP JUMPDEST PUSH1 0x40 MLOAD PUSH2 0x833 SWAP2 SWAP1 PUSH2 0x3228 JUMP JUMPDEST PUSH1 0x40 MLOAD DUP1 SWAP2 SUB SWAP1 RETURN JUMPDEST CALLVALUE DUP1 ISZERO PUSH2 0x848 JUMPI PUSH1 0x0 DUP1 REVERT JUMPDEST POP PUSH2 0x851 PUSH2 0x2655 JUMP JUMPDEST PUSH1 0x40 MLOAD PUSH2 0x85E SWAP2 SWAP1 PUSH2 0x3228 JUMP JUMPDEST PUSH1 0x40 MLOAD DUP1 SWAP2 SUB SWAP1 RETURN JUMPDEST CALLVALUE DUP1 ISZERO PUSH2 0x873 JUMPI PUSH1 0x0 DUP1 REVERT JUMPDEST POP PUSH2 0x88E PUSH1 0x4 DUP1 CALLDATASIZE SUB DUP2 ADD SWAP1 PUSH2 0x889 SWAP2 SWAP1 PUSH2 0x3380 JUMP JUMPDEST PUSH2 0x2661 JUMP JUMPDEST PUSH1 0x40 MLOAD PUSH2 0x89B SWAP2 SWAP1 PUSH2 0x32F4 JUMP JUMPDEST PUSH1 0x40 MLOAD DUP1 SWAP2 SUB SWAP1 RETURN JUMPDEST CALLVALUE DUP1 ISZERO PUSH2 0x8B0 JUMPI PUSH1 0x0 DUP1 REVERT JUMPDEST POP PUSH2 0x8B9 PUSH2 0x2694 JUMP JUMPDEST PUSH1 0x40 MLOAD PUSH2 0x8C6 SWAP2 SWAP1 PUSH2 0x32F4 JUMP JUMPDEST PUSH1 0x40 MLOAD DUP1 SWAP2 SUB SWAP1 RETURN JUMPDEST PUSH2 0x2710 DUP2 JUMP JUMPDEST PUSH1 0x0 DUP1 CALLVALUE SWAP1 POP PUSH1 0x0 PUSH2 0x8E5 PUSH2 0x16A4 JUMP JUMPDEST SWAP1 POP PUSH1 0x0 PUSH20 0xFFFFFFFFFFFFFFFFFFFFFFFFFFFFFFFFFFFFFFFF AND DUP2 PUSH20 0xFFFFFFFFFFFFFFFFFFFFFFFFFFFFFFFFFFFFFFFF AND SUB PUSH2 0x92C JUMPI DUP4 SWAP3 POP PUSH2 0x927 DUP5 PUSH2 0x26BA JUMP JUMPDEST PUSH2 0x930 JUMP JUMPDEST DUP1 SWAP3 POP JUMPDEST ORIGIN PUSH20 0xFFFFFFFFFFFFFFFFFFFFFFFFFFFFFFFFFFFFFFFF AND CALLER PUSH20 0xFFFFFFFFFFFFFFFFFFFFFFFFFFFFFFFFFFFFFFFF AND EQ PUSH2 0x99E JUMPI PUSH1 0x40 MLOAD PUSH32 0x8C379A000000000000000000000000000000000000000000000000000000000 DUP2 MSTORE PUSH1 0x4 ADD PUSH2 0x995 SWAP1 PUSH2 0x3769 JUMP JUMPDEST PUSH1 0x40 MLOAD DUP1 SWAP2 SUB SWAP1 REVERT JUMPDEST PUSH8 0xDE0B6B3A7640000 DUP3 LT ISZERO DUP1 ISZERO PUSH2 0x9C0 JUMPI POP PUSH10 0xD3C21BCECCEDA1000000 DUP3 GT ISZERO JUMPDEST PUSH2 0x9FF JUMPI PUSH1 0x40 MLOAD PUSH32 0x8C379A000000000000000000000000000000000000000000000000000000000 DUP2 MSTORE PUSH1 0x4 ADD PUSH2 0x9F6 SWAP1 PUSH2 0x37FB JUMP JUMPDEST PUSH1 0x40 MLOAD DUP1 SWAP2 SUB SWAP1 REVERT JUMPDEST PUSH1 0x0 PUSH1 0xE PUSH1 0x0 CALLER PUSH20 0xFFFFFFFFFFFFFFFFFFFFFFFFFFFFFFFFFFFFFFFF AND PUSH20 0xFFFFFFFFFFFFFFFFFFFFFFFFFFFFFFFFFFFFFFFF AND DUP2 MSTORE PUSH1 0x20 ADD SWAP1 DUP2 MSTORE PUSH1 0x20 ADD PUSH1 0x0 KECCAK256 SWAP1 POP PUSH2 0x12C DUP2 PUSH1 0x0 ADD DUP1 SLOAD SWAP1 POP LT PUSH2 0xA8D JUMPI PUSH1 0x40 MLOAD PUSH32 0x8C379A000000000000000000000000000000000000000000000000000000000 DUP2 MSTORE PUSH1 0x4 ADD PUSH2 0xA84 SWAP1 PUSH2 0x388D JUMP JUMPDEST PUSH1 0x40 MLOAD DUP1 SWAP2 SUB SWAP1 REVERT JUMPDEST PUSH1 0x0 PUSH2 0xAB8 PUSH2 0x2710 PUSH2 0xAAA PUSH2 0x258 DUP8 PUSH2 0x2931 SWAP1 SWAP2 SWAP1 PUSH4 0xFFFFFFFF AND JUMP JUMPDEST PUSH2 0x29AB SWAP1 SWAP2 SWAP1 PUSH4 0xFFFFFFFF AND JUMP JUMPDEST SWAP1 POP PUSH1 0x0 PUSH2 0xAE5 PUSH2 0x2710 PUSH2 0xAD7 PUSH2 0x258 DUP9 PUSH2 0x2931 SWAP1 SWAP2 SWAP1 PUSH4 0xFFFFFFFF AND JUMP JUMPDEST PUSH2 0x29AB SWAP1 SWAP2 SWAP1 PUSH4 0xFFFFFFFF AND JUMP JUMPDEST SWAP1 POP PUSH1 0x0 PUSH2 0xB11 PUSH2 0x2710 PUSH2 0xB03 PUSH1 0x64 DUP10 PUSH2 0x2931 SWAP1 SWAP2 SWAP1 PUSH4 0xFFFFFFFF AND JUMP JUMPDEST PUSH2 0x29AB SWAP1 SWAP2 SWAP1 PUSH4 0xFFFFFFFF AND JUMP JUMPDEST SWAP1 POP PUSH1 0x1 PUSH1 0x0 SWAP1 SLOAD SWAP1 PUSH2 0x100 EXP SWAP1 DIV PUSH20 0xFFFFFFFFFFFFFFFFFFFFFFFFFFFFFFFFFFFFFFFF AND PUSH20 0xFFFFFFFFFFFFFFFFFFFFFFFFFFFFFFFFFFFFFFFF AND PUSH2 0x8FC DUP5 SWAP1 DUP2 ISZERO MUL SWAP1 PUSH1 0x40 MLOAD PUSH1 0x0 PUSH1 0x40 MLOAD DUP1 DUP4 SUB DUP2 DUP6 DUP9 DUP9 CALL SWAP4 POP POP POP POP ISZERO DUP1 ISZERO PUSH2 0xB7B JUMPI RETURNDATASIZE PUSH1 0x0 DUP1 RETURNDATACOPY RETURNDATASIZE PUSH1 0x0 REVERT JUMPDEST POP PUSH1 0x2 PUSH1 0x0 SWAP1 SLOAD SWAP1 PUSH2 0x100 EXP SWAP1 DIV PUSH20 0xFFFFFFFFFFFFFFFFFFFFFFFFFFFFFFFFFFFFFFFF AND PUSH20 0xFFFFFFFFFFFFFFFFFFFFFFFFFFFFFFFFFFFFFFFF AND PUSH2 0x8FC DUP4 SWAP1 DUP2 ISZERO MUL SWAP1 PUSH1 0x40 MLOAD PUSH1 0x0 PUSH1 0x40 MLOAD DUP1 DUP4 SUB DUP2 DUP6 DUP9 DUP9 CALL SWAP4 POP POP POP POP ISZERO DUP1 ISZERO PUSH2 0xBE4 JUMPI RETURNDATASIZE PUSH1 0x0 DUP1 RETURNDATACOPY RETURNDATASIZE PUSH1 0x0 REVERT JUMPDEST POP PUSH1 0x3 PUSH1 0x0 SWAP1 SLOAD SWAP1 PUSH2 0x100 EXP SWAP1 DIV PUSH20 0xFFFFFFFFFFFFFFFFFFFFFFFFFFFFFFFFFFFFFFFF AND PUSH20 0xFFFFFFFFFFFFFFFFFFFFFFFFFFFFFFFFFFFFFFFF AND PUSH2 0x8FC DUP3 SWAP1 DUP2 ISZERO MUL SWAP1 PUSH1 0x40 MLOAD PUSH1 0x0 PUSH1 0x40 MLOAD DUP1 DUP4 SUB DUP2 DUP6 DUP9 DUP9 CALL SWAP4 POP POP POP POP ISZERO DUP1 ISZERO PUSH2 0xC4D JUMPI RETURNDATASIZE PUSH1 0x0 DUP1 RETURNDATACOPY RETURNDATASIZE PUSH1 0x0 REVERT JUMPDEST POP CALLER PUSH20 0xFFFFFFFFFFFFFFFFFFFFFFFFFFFFFFFFFFFFFFFF AND PUSH32 0x2899DC8C12DEF1CAA9ACCB64257CF2FD9F960F21BB27A560A757EAE3C2EC43C1 PUSH2 0xCAB DUP4 PUSH2 0xC9D DUP7 DUP9 PUSH2 0x2A09 SWAP1 SWAP2 SWAP1 PUSH4 0xFFFFFFFF AND JUMP JUMPDEST PUSH2 0x2A09 SWAP1 SWAP2 SWAP1 PUSH4 0xFFFFFFFF AND JUMP JUMPDEST PUSH1 0x40 MLOAD PUSH2 0xCB8 SWAP2 SWAP1 PUSH2 0x3228 JUMP JUMPDEST PUSH1 0x40 MLOAD DUP1 SWAP2 SUB SWAP1 LOG2 PUSH1 0x0 DUP1 PUSH20 0xFFFFFFFFFFFFFFFFFFFFFFFFFFFFFFFFFFFFFFFF AND DUP6 PUSH1 0x2 ADD PUSH1 0x0 SWAP1 SLOAD SWAP1 PUSH2 0x100 EXP SWAP1 DIV PUSH20 0xFFFFFFFFFFFFFFFFFFFFFFFFFFFFFFFFFFFFFFFF AND PUSH20 0xFFFFFFFFFFFFFFFFFFFFFFFFFFFFFFFFFFFFFFFF AND EQ DUP1 ISZERO PUSH2 0xD66 JUMPI POP PUSH1 0x0 PUSH1 0xE PUSH1 0x0 DUP11 PUSH20 0xFFFFFFFFFFFFFFFFFFFFFFFFFFFFFFFFFFFFFFFF AND PUSH20 0xFFFFFFFFFFFFFFFFFFFFFFFFFFFFFFFFFFFFFFFF AND DUP2 MSTORE PUSH1 0x20 ADD SWAP1 DUP2 MSTORE PUSH1 0x20 ADD PUSH1 0x0 KECCAK256 PUSH1 0x0 ADD DUP1 SLOAD SWAP1 POP GT JUMPDEST DUP1 ISZERO PUSH2 0xD9E JUMPI POP CALLER PUSH20 0xFFFFFFFFFFFFFFFFFFFFFFFFFFFFFFFFFFFFFFFF AND DUP9 PUSH20 0xFFFFFFFFFFFFFFFFFFFFFFFFFFFFFFFFFFFFFFFF AND EQ ISZERO JUMPDEST ISZERO PUSH2 0xDE7 JUMPI DUP8 DUP6 PUSH1 0x2 ADD PUSH1 0x0 PUSH2 0x100 EXP DUP2 SLOAD DUP2 PUSH20 0xFFFFFFFFFFFFFFFFFFFFFFFFFFFFFFFFFFFFFFFF MUL NOT AND SWAP1 DUP4 PUSH20 0xFFFFFFFFFFFFFFFFFFFFFFFFFFFFFFFFFFFFFFFF AND MUL OR SWAP1 SSTORE POP JUMPDEST PUSH1 0x4 PUSH1 0x0 SWAP1 SLOAD SWAP1 PUSH2 0x100 EXP SWAP1 DIV PUSH20 0xFFFFFFFFFFFFFFFFFFFFFFFFFFFFFFFFFFFFFFFF AND PUSH20 0xFFFFFFFFFFFFFFFFFFFFFFFFFFFFFFFFFFFFFFFF AND DUP6 PUSH1 0x2 ADD PUSH1 0x0 SWAP1 SLOAD SWAP1 PUSH2 0x100 EXP SWAP1 DIV PUSH20 0xFFFFFFFFFFFFFFFFFFFFFFFFFFFFFFFFFFFFFFFF AND PUSH20 0xFFFFFFFFFFFFFFFFFFFFFFFFFFFFFFFFFFFFFFFF AND SUB PUSH2 0xE8E JUMPI PUSH2 0xE87 PUSH1 0x64 PUSH2 0xE79 PUSH1 0x16 DUP11 PUSH2 0x2931 SWAP1 SWAP2 SWAP1 PUSH4 0xFFFFFFFF AND JUMP JUMPDEST PUSH2 0x29AB SWAP1 SWAP2 SWAP1 PUSH4 0xFFFFFFFF AND JUMP JUMPDEST SWAP1 POP PUSH2 0x13B0 JUMP JUMPDEST PUSH1 0x0 JUMPDEST PUSH1 0xC DUP2 LT ISZERO PUSH2 0x13AE JUMPI PUSH1 0x0 PUSH2 0xEDE PUSH2 0x2710 PUSH2 0xED0 PUSH1 0x10 DUP6 PUSH1 0xC DUP2 LT PUSH2 0xEB9 JUMPI PUSH2 0xEB8 PUSH2 0x38AD JUMP JUMPDEST JUMPDEST PUSH1 0x3 MUL ADD PUSH1 0x0 ADD SLOAD DUP13 PUSH2 0x2931 SWAP1 SWAP2 SWAP1 PUSH4 0xFFFFFFFF AND JUMP JUMPDEST PUSH2 0x29AB SWAP1 SWAP2 SWAP1 PUSH4 0xFFFFFFFF AND JUMP JUMPDEST SWAP1 POP PUSH1 0x0 PUSH20 0xFFFFFFFFFFFFFFFFFFFFFFFFFFFFFFFFFFFFFFFF AND DUP11 PUSH20 0xFFFFFFFFFFFFFFFFFFFFFFFFFFFFFFFFFFFFFFFF AND EQ ISZERO DUP1 ISZERO PUSH2 0xF1D JUMPI POP PUSH1 0x0 DUP2 GT JUMPDEST ISZERO PUSH2 0x1391 JUMPI PUSH1 0x10 DUP3 PUSH1 0xC DUP2 LT PUSH2 0xF36 JUMPI PUSH2 0xF35 PUSH2 0x38AD JUMP JUMPDEST JUMPDEST PUSH1 0x3 MUL ADD PUSH1 0x1 ADD SLOAD PUSH1 0xE PUSH1 0x0 DUP13 PUSH20 0xFFFFFFFFFFFFFFFFFFFFFFFFFFFFFFFFFFFFFFFF AND PUSH20 0xFFFFFFFFFFFFFFFFFFFFFFFFFFFFFFFFFFFFFFFF AND DUP2 MSTORE PUSH1 0x20 ADD SWAP1 DUP2 MSTORE PUSH1 0x20 ADD PUSH1 0x0 KECCAK256 PUSH1 0x4 ADD SLOAD LT ISZERO DUP1 ISZERO PUSH2 0x1014 JUMPI POP PUSH1 0x10 DUP3 PUSH1 0xC DUP2 LT PUSH2 0xF9E JUMPI PUSH2 0xF9D PUSH2 0x38AD JUMP JUMPDEST JUMPDEST PUSH1 0x3 MUL ADD PUSH1 0x2 ADD PUSH1 0x0 SWAP1 SLOAD SWAP1 PUSH2 0x100 EXP SWAP1 DIV PUSH3 0xFFFFFF AND PUSH3 0xFFFFFF AND PUSH1 0xE PUSH1 0x0 DUP13 PUSH20 0xFFFFFFFFFFFFFFFFFFFFFFFFFFFFFFFFFFFFFFFF AND PUSH20 0xFFFFFFFFFFFFFFFFFFFFFFFFFFFFFFFFFFFFFFFF AND DUP2 MSTORE PUSH1 0x20 ADD SWAP1 DUP2 MSTORE PUSH1 0x20 ADD PUSH1 0x0 KECCAK256 PUSH1 0x9 ADD PUSH1 0x0 SWAP1 SLOAD SWAP1 PUSH2 0x100 EXP SWAP1 DIV PUSH3 0xFFFFFF AND PUSH3 0xFFFFFF AND LT ISZERO JUMPDEST ISZERO PUSH2 0x1166 JUMPI DUP10 PUSH20 0xFFFFFFFFFFFFFFFFFFFFFFFFFFFFFFFFFFFFFFFF AND PUSH2 0x8FC DUP3 SWAP1 DUP2 ISZERO MUL SWAP1 PUSH1 0x40 MLOAD PUSH1 0x0 PUSH1 0x40 MLOAD DUP1 DUP4 SUB DUP2 DUP6 DUP9 DUP9 CALL SWAP4 POP POP POP POP ISZERO DUP1 ISZERO PUSH2 0x105F JUMPI RETURNDATASIZE PUSH1 0x0 DUP1 RETURNDATACOPY RETURNDATASIZE PUSH1 0x0 REVERT JUMPDEST POP PUSH2 0x10B5 DUP2 PUSH1 0xE PUSH1 0x0 DUP14 PUSH20 0xFFFFFFFFFFFFFFFFFFFFFFFFFFFFFFFFFFFFFFFF AND PUSH20 0xFFFFFFFFFFFFFFFFFFFFFFFFFFFFFFFFFFFFFFFF AND DUP2 MSTORE PUSH1 0x20 ADD SWAP1 DUP2 MSTORE PUSH1 0x20 ADD PUSH1 0x0 KECCAK256 PUSH1 0x3 ADD SLOAD PUSH2 0x2A09 SWAP1 SWAP2 SWAP1 PUSH4 0xFFFFFFFF AND JUMP JUMPDEST PUSH1 0xE PUSH1 0x0 DUP13 PUSH20 0xFFFFFFFFFFFFFFFFFFFFFFFFFFFFFFFFFFFFFFFF AND PUSH20 0xFFFFFFFFFFFFFFFFFFFFFFFFFFFFFFFFFFFFFFFF AND DUP2 MSTORE PUSH1 0x20 ADD SWAP1 DUP2 MSTORE PUSH1 0x20 ADD PUSH1 0x0 KECCAK256 PUSH1 0x3 ADD DUP2 SWAP1 SSTORE POP DUP2 CALLER PUSH20 0xFFFFFFFFFFFFFFFFFFFFFFFFFFFFFFFFFFFFFFFF AND DUP12 PUSH20 0xFFFFFFFFFFFFFFFFFFFFFFFFFFFFFFFFFFFFFFFF AND PUSH32 0xD41F7E766EEBCC7FF42B11AC8691BDF864DB4AFC0C55E71D629D54EDCE460D98 DUP5 PUSH1 0x40 MLOAD PUSH2 0x1159 SWAP2 SWAP1 PUSH2 0x3228 JUMP JUMPDEST PUSH1 0x40 MLOAD DUP1 SWAP2 SUB SWAP1 LOG4 PUSH2 0x1234 JUMP JUMPDEST DUP1 DUP4 PUSH2 0x1172 SWAP2 SWAP1 PUSH2 0x390B JUMP JUMPDEST SWAP3 POP DUP1 PUSH1 0xE PUSH1 0x0 DUP13 PUSH20 0xFFFFFFFFFFFFFFFFFFFFFFFFFFFFFFFFFFFFFFFF AND PUSH20 0xFFFFFFFFFFFFFFFFFFFFFFFFFFFFFFFFFFFFFFFF AND DUP2 MSTORE PUSH1 0x20 ADD SWAP1 DUP2 MSTORE PUSH1 0x20 ADD PUSH1 0x0 KECCAK256 PUSH1 0x5 ADD PUSH1 0x0 DUP3 DUP3 SLOAD PUSH2 0x11C6 SWAP2 SWAP1 PUSH2 0x390B JUMP JUMPDEST SWAP3 POP POP DUP2 SWAP1 SSTORE POP DUP2 CALLER PUSH20 0xFFFFFFFFFFFFFFFFFFFFFFFFFFFFFFFFFFFFFFFF AND DUP12 PUSH20 0xFFFFFFFFFFFFFFFFFFFFFFFFFFFFFFFFFFFFFFFF AND PUSH32 0x7B92E1AE99C8D93ECE4EF845FD466D392A8EF44005CC85BC06BE6C7420B200C3 DUP5 PUSH1 0x40 MLOAD PUSH2 0x122B SWAP2 SWAP1 PUSH2 0x3228 JUMP JUMPDEST PUSH1 0x40 MLOAD DUP1 SWAP2 SUB SWAP1 LOG4 JUMPDEST PUSH1 0x1 PUSH1 0xE PUSH1 0x0 DUP13 PUSH20 0xFFFFFFFFFFFFFFFFFFFFFFFFFFFFFFFFFFFFFFFF AND PUSH20 0xFFFFFFFFFFFFFFFFFFFFFFFFFFFFFFFFFFFFFFFF AND DUP2 MSTORE PUSH1 0x20 ADD SWAP1 DUP2 MSTORE PUSH1 0x20 ADD PUSH1 0x0 KECCAK256 PUSH1 0x7 ADD DUP4 PUSH1 0xC DUP2 LT PUSH2 0x128A JUMPI PUSH2 0x1289 PUSH2 0x38AD JUMP JUMPDEST JUMPDEST PUSH1 0xA SWAP2 DUP3 DUP3 DIV ADD SWAP2 SWAP1 MOD PUSH1 0x3 MUL DUP3 DUP3 DUP3 SWAP1 SLOAD SWAP1 PUSH2 0x100 EXP SWAP1 DIV PUSH3 0xFFFFFF AND PUSH2 0x12B2 SWAP2 SWAP1 PUSH2 0x393F JUMP JUMPDEST SWAP3 POP PUSH2 0x100 EXP DUP2 SLOAD DUP2 PUSH3 0xFFFFFF MUL NOT AND SWAP1 DUP4 PUSH3 0xFFFFFF AND MUL OR SWAP1 SSTORE POP DUP9 PUSH1 0xE PUSH1 0x0 DUP13 PUSH20 0xFFFFFFFFFFFFFFFFFFFFFFFFFFFFFFFFFFFFFFFF AND PUSH20 0xFFFFFFFFFFFFFFFFFFFFFFFFFFFFFFFFFFFFFFFF AND DUP2 MSTORE PUSH1 0x20 ADD SWAP1 DUP2 MSTORE PUSH1 0x20 ADD PUSH1 0x0 KECCAK256 PUSH1 0x6 ADD PUSH1 0x0 DUP3 DUP3 SLOAD PUSH2 0x1320 SWAP2 SWAP1 PUSH2 0x390B JUMP JUMPDEST SWAP3 POP POP DUP2 SWAP1 SSTORE POP PUSH1 0xE PUSH1 0x0 DUP12 PUSH20 0xFFFFFFFFFFFFFFFFFFFFFFFFFFFFFFFFFFFFFFFF AND PUSH20 0xFFFFFFFFFFFFFFFFFFFFFFFFFFFFFFFFFFFFFFFF AND DUP2 MSTORE PUSH1 0x20 ADD SWAP1 DUP2 MSTORE PUSH1 0x20 ADD PUSH1 0x0 KECCAK256 PUSH1 0x2 ADD PUSH1 0x0 SWAP1 SLOAD SWAP1 PUSH2 0x100 EXP SWAP1 DIV PUSH20 0xFFFFFFFFFFFFFFFFFFFFFFFFFFFFFFFFFFFFFFFF AND SWAP10 POP PUSH2 0x13A0 JUMP JUMPDEST DUP1 DUP4 PUSH2 0x139D SWAP2 SWAP1 PUSH2 0x390B JUMP JUMPDEST SWAP3 POP JUMPDEST POP DUP1 DUP1 PUSH1 0x1 ADD SWAP2 POP POP PUSH2 0xE91 JUMP JUMPDEST POP JUMPDEST PUSH1 0x0 DUP2 GT ISZERO PUSH2 0x14A5 JUMPI PUSH1 0x0 PUSH2 0x13CF PUSH1 0x2 DUP4 PUSH2 0x29AB SWAP1 SWAP2 SWAP1 PUSH4 0xFFFFFFFF AND JUMP JUMPDEST SWAP1 POP PUSH1 0x5 PUSH1 0x0 SWAP1 SLOAD SWAP1 PUSH2 0x100 EXP SWAP1 DIV PUSH20 0xFFFFFFFFFFFFFFFFFFFFFFFFFFFFFFFFFFFFFFFF AND PUSH20 0xFFFFFFFFFFFFFFFFFFFFFFFFFFFFFFFFFFFFFFFF AND PUSH2 0x8FC DUP3 SWAP1 DUP2 ISZERO MUL SWAP1 PUSH1 0x40 MLOAD PUSH1 0x0 PUSH1 0x40 MLOAD DUP1 DUP4 SUB DUP2 DUP6 DUP9 DUP9 CALL SWAP4 POP POP POP POP ISZERO DUP1 ISZERO PUSH2 0x1439 JUMPI RETURNDATASIZE PUSH1 0x0 DUP1 RETURNDATACOPY RETURNDATASIZE PUSH1 0x0 REVERT JUMPDEST POP PUSH1 0x6 PUSH1 0x0 SWAP1 SLOAD SWAP1 PUSH2 0x100 EXP SWAP1 DIV PUSH20 0xFFFFFFFFFFFFFFFFFFFFFFFFFFFFFFFFFFFFFFFF AND PUSH20 0xFFFFFFFFFFFFFFFFFFFFFFFFFFFFFFFFFFFFFFFF AND PUSH2 0x8FC DUP3 SWAP1 DUP2 ISZERO MUL SWAP1 PUSH1 0x40 MLOAD PUSH1 0x0 PUSH1 0x40 MLOAD DUP1 DUP4 SUB DUP2 DUP6 DUP9 DUP9 CALL SWAP4 POP POP POP POP ISZERO DUP1 ISZERO PUSH2 0x14A2 JUMPI RETURNDATASIZE PUSH1 0x0 DUP1 RETURNDATACOPY RETURNDATASIZE PUSH1 0x0 REVERT JUMPDEST POP POP JUMPDEST PUSH1 0x0 DUP6 PUSH1 0x0 ADD DUP1 SLOAD SWAP1 POP SUB PUSH2 0x1596 JUMPI TIMESTAMP DUP6 PUSH1 0x1 ADD DUP2 SWAP1 SSTORE POP PUSH1 0x1 PUSH1 0xE PUSH1 0x0 DUP8 PUSH1 0x2 ADD PUSH1 0x0 SWAP1 SLOAD SWAP1 PUSH2 0x100 EXP SWAP1 DIV PUSH20 0xFFFFFFFFFFFFFFFFFFFFFFFFFFFFFFFFFFFFFFFF AND PUSH20 0xFFFFFFFFFFFFFFFFFFFFFFFFFFFFFFFFFFFFFFFF AND PUSH20 0xFFFFFFFFFFFFFFFFFFFFFFFFFFFFFFFFFFFFFFFF AND DUP2 MSTORE PUSH1 0x20 ADD SWAP1 DUP2 MSTORE PUSH1 0x20 ADD PUSH1 0x0 KECCAK256 PUSH1 0x9 ADD PUSH1 0x0 DUP3 DUP3 DUP3 SWAP1 SLOAD SWAP1 PUSH2 0x100 EXP SWAP1 DIV PUSH3 0xFFFFFF AND PUSH2 0x1542 SWAP2 SWAP1 PUSH2 0x393F JUMP JUMPDEST SWAP3 POP PUSH2 0x100 EXP DUP2 SLOAD DUP2 PUSH3 0xFFFFFF MUL NOT AND SWAP1 DUP4 PUSH3 0xFFFFFF AND MUL OR SWAP1 SSTORE POP PUSH32 0x9FD565CD14C3C391679EB0CAD12A14DCF7534E9D3462BCB9B67A098A9BBBC24A CALLER PUSH1 0x40 MLOAD PUSH2 0x158D SWAP2 SWAP1 PUSH2 0x32F4 JUMP JUMPDEST PUSH1 0x40 MLOAD DUP1 SWAP2 SUB SWAP1 LOG1 JUMPDEST DUP5 PUSH1 0x0 ADD PUSH1 0x40 MLOAD DUP1 PUSH1 0x60 ADD PUSH1 0x40 MSTORE DUP1 DUP10 DUP2 MSTORE PUSH1 0x20 ADD PUSH1 0x0 DUP2 MSTORE PUSH1 0x20 ADD TIMESTAMP DUP2 MSTORE POP SWAP1 DUP1 PUSH1 0x1 DUP2 SLOAD ADD DUP1 DUP3 SSTORE DUP1 SWAP2 POP POP PUSH1 0x1 SWAP1 SUB SWAP1 PUSH1 0x0 MSTORE PUSH1 0x20 PUSH1 0x0 KECCAK256 SWAP1 PUSH1 0x3 MUL ADD PUSH1 0x0 SWAP1 SWAP2 SWAP1 SWAP2 SWAP1 SWAP2 POP PUSH1 0x0 DUP3 ADD MLOAD DUP2 PUSH1 0x0 ADD SSTORE PUSH1 0x20 DUP3 ADD MLOAD DUP2 PUSH1 0x1 ADD SSTORE PUSH1 0x40 DUP3 ADD MLOAD DUP2 PUSH1 0x2 ADD SSTORE POP POP DUP7 DUP6 PUSH1 0x4 ADD PUSH1 0x0 DUP3 DUP3 SLOAD PUSH2 0x1613 SWAP2 SWAP1 PUSH2 0x390B JUMP JUMPDEST SWAP3 POP POP DUP2 SWAP1 SSTORE POP DUP7 PUSH1 0x7 PUSH1 0x0 DUP3 DUP3 SLOAD PUSH2 0x162C SWAP2 SWAP1 PUSH2 0x390B JUMP JUMPDEST SWAP3 POP POP DUP2 SWAP1 SSTORE POP PUSH1 0x8 PUSH1 0x0 DUP2 SLOAD DUP1 SWAP3 SWAP2 SWAP1 PUSH2 0x1646 SWAP1 PUSH2 0x3976 JUMP JUMPDEST SWAP2 SWAP1 POP SSTORE POP CALLER PUSH20 0xFFFFFFFFFFFFFFFFFFFFFFFFFFFFFFFFFFFFFFFF AND PUSH32 0x2CB77763BC1E8490C1A904905C4D74B4269919ACA114464F4BB4D911E60DE364 DUP9 PUSH1 0x40 MLOAD PUSH2 0x1691 SWAP2 SWAP1 PUSH2 0x3228 JUMP JUMPDEST PUSH1 0x40 MLOAD DUP1 SWAP2 SUB SWAP1 LOG2 POP POP POP POP POP POP POP POP POP JUMP JUMPDEST PUSH1 0x0 PUSH1 0xF PUSH1 0x0 CALLER PUSH20 0xFFFFFFFFFFFFFFFFFFFFFFFFFFFFFFFFFFFFFFFF AND PUSH20 0xFFFFFFFFFFFFFFFFFFFFFFFFFFFFFFFFFFFFFFFF AND DUP2 MSTORE PUSH1 0x20 ADD SWAP1 DUP2 MSTORE PUSH1 0x20 ADD PUSH1 0x0 KECCAK256 PUSH1 0x0 SWAP1 SLOAD SWAP1 PUSH2 0x100 EXP SWAP1 DIV PUSH20 0xFFFFFFFFFFFFFFFFFFFFFFFFFFFFFFFFFFFFFFFF AND SWAP1 POP SWAP1 JUMP JUMPDEST PUSH1 0x0 DUP1 PUSH1 0x0 DUP1 PUSH1 0x7 SLOAD PUSH1 0x8 SLOAD PUSH1 0xC PUSH1 0x0 SWAP1 SLOAD SWAP1 PUSH2 0x100 EXP SWAP1 DIV PUSH20 0xFFFFFFFFFFFFFFFFFFFFFFFFFFFFFFFFFFFFFFFF AND PUSH20 0xFFFFFFFFFFFFFFFFFFFFFFFFFFFFFFFFFFFFFFFF AND BALANCE PUSH1 0xA SLOAD SWAP4 POP SWAP4 POP SWAP4 POP SWAP4 POP SWAP1 SWAP2 SWAP3 SWAP4 JUMP JUMPDEST PUSH1 0x0 PUSH1 0xE PUSH1 0x0 DUP4 PUSH20 0xFFFFFFFFFFFFFFFFFFFFFFFFFFFFFFFFFFFFFFFF AND PUSH20 0xFFFFFFFFFFFFFFFFFFFFFFFFFFFFFFFFFFFFFFFF AND DUP2 MSTORE PUSH1 0x20 ADD SWAP1 DUP2 MSTORE PUSH1 0x20 ADD PUSH1 0x0 KECCAK256 PUSH1 0x4 ADD SLOAD SWAP1 POP SWAP2 SWAP1 POP JUMP JUMPDEST PUSH1 0x0 DUP1 PUSH2 0x17B9 PUSH2 0x31EC JUMP JUMPDEST PUSH1 0x0 PUSH1 0xE PUSH1 0x0 DUP7 PUSH20 0xFFFFFFFFFFFFFFFFFFFFFFFFFFFFFFFFFFFFFFFF AND PUSH20 0xFFFFFFFFFFFFFFFFFFFFFFFFFFFFFFFFFFFFFFFF AND DUP2 MSTORE PUSH1 0x20 ADD SWAP1 DUP2 MSTORE PUSH1 0x20 ADD PUSH1 0x0 KECCAK256 SWAP1 POP DUP1 PUSH1 0x2 ADD PUSH1 0x0 SWAP1 SLOAD SWAP1 PUSH2 0x100 EXP SWAP1 DIV PUSH20 0xFFFFFFFFFFFFFFFFFFFFFFFFFFFFFFFFFFFFFFFF AND DUP2 PUSH1 0x3 ADD SLOAD DUP3 PUSH1 0x7 ADD DUP1 PUSH1 0xC DUP1 PUSH1 0x20 MUL PUSH1 0x40 MLOAD SWAP1 DUP2 ADD PUSH1 0x40 MSTORE DUP1 SWAP3 SWAP2 SWAP1 DUP3 PUSH1 0xC DUP1 ISZERO PUSH2 0x188C JUMPI PUSH1 0x20 MUL DUP3 ADD SWAP2 PUSH1 0x0 SWAP1 JUMPDEST DUP3 DUP3 SWAP1 SLOAD SWAP1 PUSH2 0x100 EXP SWAP1 DIV PUSH3 0xFFFFFF AND PUSH3 0xFFFFFF AND DUP2 MSTORE PUSH1 0x20 ADD SWAP1 PUSH1 0x3 ADD SWAP1 PUSH1 0x20 DUP3 PUSH1 0x2 ADD DIV SWAP3 DUP4 ADD SWAP3 PUSH1 0x1 SUB DUP3 MUL SWAP2 POP DUP1 DUP5 GT PUSH2 0x1851 JUMPI SWAP1 POP JUMPDEST POP POP POP POP POP SWAP1 POP SWAP4 POP SWAP4 POP SWAP4 POP POP SWAP2 SWAP4 SWAP1 SWAP3 POP JUMP JUMPDEST PUSH1 0x6 PUSH1 0x0 SWAP1 SLOAD SWAP1 PUSH2 0x100 EXP SWAP1 DIV PUSH20 0xFFFFFFFFFFFFFFFFFFFFFFFFFFFFFFFFFFFFFFFF AND DUP2 JUMP JUMPDEST PUSH1 0x0 PUSH1 0xC PUSH1 0x0 SWAP1 SLOAD SWAP1 PUSH2 0x100 EXP SWAP1 DIV PUSH20 0xFFFFFFFFFFFFFFFFFFFFFFFFFFFFFFFFFFFFFFFF AND SWAP1 POP SWAP1 JUMP JUMPDEST PUSH1 0x3C DUP2 JUMP JUMPDEST PUSH1 0x8 SLOAD DUP2 JUMP JUMPDEST PUSH1 0x0 PUSH1 0xE PUSH1 0x0 CALLER PUSH20 0xFFFFFFFFFFFFFFFFFFFFFFFFFFFFFFFFFFFFFFFF AND PUSH20 0xFFFFFFFFFFFFFFFFFFFFFFFFFFFFFFFFFFFFFFFF AND DUP2 MSTORE PUSH1 0x20 ADD SWAP1 DUP2 MSTORE PUSH1 0x20 ADD PUSH1 0x0 KECCAK256 SWAP1 POP PUSH1 0x0 PUSH2 0x194A CALLER PUSH2 0x2A67 JUMP JUMPDEST SWAP1 POP PUSH1 0x0 DUP1 PUSH1 0x0 PUSH1 0xC PUSH1 0x0 SWAP1 SLOAD SWAP1 PUSH2 0x100 EXP SWAP1 DIV PUSH20 0xFFFFFFFFFFFFFFFFFFFFFFFFFFFFFFFFFFFFFFFF AND PUSH20 0xFFFFFFFFFFFFFFFFFFFFFFFFFFFFFFFFFFFFFFFF AND BALANCE SWAP1 POP PUSH1 0x0 PUSH1 0x2 SWAP1 POP PUSH2 0x19BC PUSH1 0x64 PUSH2 0x19AE PUSH1 0x5 PUSH1 0x7 SLOAD PUSH2 0x2931 SWAP1 SWAP2 SWAP1 PUSH4 0xFFFFFFFF AND JUMP JUMPDEST PUSH2 0x29AB SWAP1 SWAP2 SWAP1 PUSH4 0xFFFFFFFF AND JUMP JUMPDEST DUP3 LT ISZERO PUSH2 0x19C8 JUMPI PUSH1 0x1 SWAP1 POP JUMPDEST PUSH1 0x0 JUMPDEST DUP7 PUSH1 0x0 ADD DUP1 SLOAD SWAP1 POP DUP2 LT ISZERO PUSH2 0x1E13 JUMPI PUSH2 0x1A1A DUP3 PUSH4 0xFFFFFFFF AND DUP9 PUSH1 0x0 ADD DUP4 DUP2 SLOAD DUP2 LT PUSH2 0x19FA JUMPI PUSH2 0x19F9 PUSH2 0x38AD JUMP JUMPDEST JUMPDEST SWAP1 PUSH1 0x0 MSTORE PUSH1 0x20 PUSH1 0x0 KECCAK256 SWAP1 PUSH1 0x3 MUL ADD PUSH1 0x0 ADD SLOAD PUSH2 0x2931 SWAP1 SWAP2 SWAP1 PUSH4 0xFFFFFFFF AND JUMP JUMPDEST DUP8 PUSH1 0x0 ADD DUP3 DUP2 SLOAD DUP2 LT PUSH2 0x1A30 JUMPI PUSH2 0x1A2F PUSH2 0x38AD JUMP JUMPDEST JUMPDEST SWAP1 PUSH1 0x0 MSTORE PUSH1 0x20 PUSH1 0x0 KECCAK256 SWAP1 PUSH1 0x3 MUL ADD PUSH1 0x1 ADD SLOAD LT ISZERO PUSH2 0x1E06 JUMPI DUP7 PUSH1 0x1 ADD SLOAD DUP8 PUSH1 0x0 ADD DUP3 DUP2 SLOAD DUP2 LT PUSH2 0x1A63 JUMPI PUSH2 0x1A62 PUSH2 0x38AD JUMP JUMPDEST JUMPDEST SWAP1 PUSH1 0x0 MSTORE PUSH1 0x20 PUSH1 0x0 KECCAK256 SWAP1 PUSH1 0x3 MUL ADD PUSH1 0x2 ADD SLOAD GT ISZERO PUSH2 0x1B2E JUMPI PUSH2 0x1B27 PUSH1 0x3C PUSH2 0x1B19 PUSH2 0x1ABD DUP11 PUSH1 0x0 ADD DUP6 DUP2 SLOAD DUP2 LT PUSH2 0x1A9C JUMPI PUSH2 0x1A9B PUSH2 0x38AD JUMP JUMPDEST JUMPDEST SWAP1 PUSH1 0x0 MSTORE PUSH1 0x20 PUSH1 0x0 KECCAK256 SWAP1 PUSH1 0x3 MUL ADD PUSH1 0x2 ADD SLOAD TIMESTAMP PUSH2 0x2B32 SWAP1 SWAP2 SWAP1 PUSH4 0xFFFFFFFF AND JUMP JUMPDEST PUSH2 0x1B0B PUSH2 0x2710 PUSH2 0x1AFD DUP13 DUP15 PUSH1 0x0 ADD DUP10 DUP2 SLOAD DUP2 LT PUSH2 0x1ADD JUMPI PUSH2 0x1ADC PUSH2 0x38AD JUMP JUMPDEST JUMPDEST SWAP1 PUSH1 0x0 MSTORE PUSH1 0x20 PUSH1 0x0 KECCAK256 SWAP1 PUSH1 0x3 MUL ADD PUSH1 0x0 ADD SLOAD PUSH2 0x2931 SWAP1 SWAP2 SWAP1 PUSH4 0xFFFFFFFF AND JUMP JUMPDEST PUSH2 0x29AB SWAP1 SWAP2 SWAP1 PUSH4 0xFFFFFFFF AND JUMP JUMPDEST PUSH2 0x2931 SWAP1 SWAP2 SWAP1 PUSH4 0xFFFFFFFF AND JUMP JUMPDEST PUSH2 0x29AB SWAP1 SWAP2 SWAP1 PUSH4 0xFFFFFFFF AND JUMP JUMPDEST SWAP4 POP PUSH2 0x1BBA JUMP JUMPDEST PUSH2 0x1BB7 PUSH1 0x3C PUSH2 0x1BA9 PUSH2 0x1B4D DUP11 PUSH1 0x1 ADD SLOAD TIMESTAMP PUSH2 0x2B32 SWAP1 SWAP2 SWAP1 PUSH4 0xFFFFFFFF AND JUMP JUMPDEST PUSH2 0x1B9B PUSH2 0x2710 PUSH2 0x1B8D DUP13 DUP15 PUSH1 0x0 ADD DUP10 DUP2 SLOAD DUP2 LT PUSH2 0x1B6D JUMPI PUSH2 0x1B6C PUSH2 0x38AD JUMP JUMPDEST JUMPDEST SWAP1 PUSH1 0x0 MSTORE PUSH1 0x20 PUSH1 0x0 KECCAK256 SWAP1 PUSH1 0x3 MUL ADD PUSH1 0x0 ADD SLOAD PUSH2 0x2931 SWAP1 SWAP2 SWAP1 PUSH4 0xFFFFFFFF AND JUMP JUMPDEST PUSH2 0x29AB SWAP1 SWAP2 SWAP1 PUSH4 0xFFFFFFFF AND JUMP JUMPDEST PUSH2 0x2931 SWAP1 SWAP2 SWAP1 PUSH4 0xFFFFFFFF AND JUMP JUMPDEST PUSH2 0x29AB SWAP1 SWAP2 SWAP1 PUSH4 0xFFFFFFFF AND JUMP JUMPDEST SWAP4 POP JUMPDEST PUSH2 0x1BFA DUP3 PUSH4 0xFFFFFFFF AND DUP9 PUSH1 0x0 ADD DUP4 DUP2 SLOAD DUP2 LT PUSH2 0x1BDA JUMPI PUSH2 0x1BD9 PUSH2 0x38AD JUMP JUMPDEST JUMPDEST SWAP1 PUSH1 0x0 MSTORE PUSH1 0x20 PUSH1 0x0 KECCAK256 SWAP1 PUSH1 0x3 MUL ADD PUSH1 0x0 ADD SLOAD PUSH2 0x2931 SWAP1 SWAP2 SWAP1 PUSH4 0xFFFFFFFF AND JUMP JUMPDEST PUSH2 0x1C34 DUP6 DUP10 PUSH1 0x0 ADD DUP5 DUP2 SLOAD DUP2 LT PUSH2 0x1C14 JUMPI PUSH2 0x1C13 PUSH2 0x38AD JUMP JUMPDEST JUMPDEST SWAP1 PUSH1 0x0 MSTORE PUSH1 0x20 PUSH1 0x0 KECCAK256 SWAP1 PUSH1 0x3 MUL ADD PUSH1 0x1 ADD SLOAD PUSH2 0x2A09 SWAP1 SWAP2 SWAP1 PUSH4 0xFFFFFFFF AND JUMP JUMPDEST GT ISZERO PUSH2 0x1CB6 JUMPI PUSH2 0x1CB3 DUP8 PUSH1 0x0 ADD DUP3 DUP2 SLOAD DUP2 LT PUSH2 0x1C53 JUMPI PUSH2 0x1C52 PUSH2 0x38AD JUMP JUMPDEST JUMPDEST SWAP1 PUSH1 0x0 MSTORE PUSH1 0x20 PUSH1 0x0 KECCAK256 SWAP1 PUSH1 0x3 MUL ADD PUSH1 0x1 ADD SLOAD PUSH2 0x1CA5 DUP5 PUSH4 0xFFFFFFFF AND DUP11 PUSH1 0x0 ADD DUP6 DUP2 SLOAD DUP2 LT PUSH2 0x1C85 JUMPI PUSH2 0x1C84 PUSH2 0x38AD JUMP JUMPDEST JUMPDEST SWAP1 PUSH1 0x0 MSTORE PUSH1 0x20 PUSH1 0x0 KECCAK256 SWAP1 PUSH1 0x3 MUL ADD PUSH1 0x0 ADD SLOAD PUSH2 0x2931 SWAP1 SWAP2 SWAP1 PUSH4 0xFFFFFFFF AND JUMP JUMPDEST PUSH2 0x2B32 SWAP1 SWAP2 SWAP1 PUSH4 0xFFFFFFFF AND JUMP JUMPDEST SWAP4 POP JUMPDEST PUSH2 0x1CCA PUSH1 0xA DUP5 PUSH2 0x29AB SWAP1 SWAP2 SWAP1 PUSH4 0xFFFFFFFF AND JUMP JUMPDEST PUSH2 0x1CDD DUP6 DUP8 PUSH2 0x2A09 SWAP1 SWAP2 SWAP1 PUSH4 0xFFFFFFFF AND JUMP JUMPDEST GT PUSH2 0x1D60 JUMPI PUSH2 0x1D1C DUP5 DUP9 PUSH1 0x0 ADD DUP4 DUP2 SLOAD DUP2 LT PUSH2 0x1CFC JUMPI PUSH2 0x1CFB PUSH2 0x38AD JUMP JUMPDEST JUMPDEST SWAP1 PUSH1 0x0 MSTORE PUSH1 0x20 PUSH1 0x0 KECCAK256 SWAP1 PUSH1 0x3 MUL ADD PUSH1 0x1 ADD SLOAD PUSH2 0x2A09 SWAP1 SWAP2 SWAP1 PUSH4 0xFFFFFFFF AND JUMP JUMPDEST DUP8 PUSH1 0x0 ADD DUP3 DUP2 SLOAD DUP2 LT PUSH2 0x1D32 JUMPI PUSH2 0x1D31 PUSH2 0x38AD JUMP JUMPDEST JUMPDEST SWAP1 PUSH1 0x0 MSTORE PUSH1 0x20 PUSH1 0x0 KECCAK256 SWAP1 PUSH1 0x3 MUL ADD PUSH1 0x1 ADD DUP2 SWAP1 SSTORE POP PUSH2 0x1D5A DUP5 DUP7 PUSH2 0x2A09 SWAP1 SWAP2 SWAP1 PUSH4 0xFFFFFFFF AND JUMP JUMPDEST POP PUSH2 0x1E05 JUMP JUMPDEST PUSH2 0x1DBF DUP6 PUSH2 0x1DB1 PUSH2 0x1D7B PUSH1 0xA DUP8 PUSH2 0x29AB SWAP1 SWAP2 SWAP1 PUSH4 0xFFFFFFFF AND JUMP JUMPDEST DUP11 PUSH1 0x0 ADD DUP6 DUP2 SLOAD DUP2 LT PUSH2 0x1D91 JUMPI PUSH2 0x1D90 PUSH2 0x38AD JUMP JUMPDEST JUMPDEST SWAP1 PUSH1 0x0 MSTORE PUSH1 0x20 PUSH1 0x0 KECCAK256 SWAP1 PUSH1 0x3 MUL ADD PUSH1 0x1 ADD SLOAD PUSH2 0x2A09 SWAP1 SWAP2 SWAP1 PUSH4 0xFFFFFFFF AND JUMP JUMPDEST PUSH2 0x2B32 SWAP1 SWAP2 SWAP1 PUSH4 0xFFFFFFFF AND JUMP JUMPDEST DUP8 PUSH1 0x0 ADD DUP3 DUP2 SLOAD DUP2 LT PUSH2 0x1DD5 JUMPI PUSH2 0x1DD4 PUSH2 0x38AD JUMP JUMPDEST JUMPDEST SWAP1 PUSH1 0x0 MSTORE PUSH1 0x20 PUSH1 0x0 KECCAK256 SWAP1 PUSH1 0x3 MUL ADD PUSH1 0x1 ADD DUP2 SWAP1 SSTORE POP PUSH2 0x1DFE PUSH1 0xA DUP5 PUSH2 0x29AB SWAP1 SWAP2 SWAP1 PUSH4 0xFFFFFFFF AND JUMP JUMPDEST SWAP5 POP PUSH2 0x1E13 JUMP JUMPDEST JUMPDEST DUP1 DUP1 PUSH1 0x1 ADD SWAP2 POP POP PUSH2 0x19CB JUMP JUMPDEST POP PUSH1 0x0 DUP5 GT PUSH2 0x1E57 JUMPI PUSH1 0x40 MLOAD PUSH32 0x8C379A000000000000000000000000000000000000000000000000000000000 DUP2 MSTORE PUSH1 0x4 ADD PUSH2 0x1E4E SWAP1 PUSH2 0x3A0A JUMP JUMPDEST PUSH1 0x40 MLOAD DUP1 SWAP2 SUB SWAP1 REVERT JUMPDEST TIMESTAMP DUP7 PUSH1 0x1 ADD DUP2 SWAP1 SSTORE POP CALLER PUSH20 0xFFFFFFFFFFFFFFFFFFFFFFFFFFFFFFFFFFFFFFFF AND PUSH2 0x8FC DUP6 SWAP1 DUP2 ISZERO MUL SWAP1 PUSH1 0x40 MLOAD PUSH1 0x0 PUSH1 0x40 MLOAD DUP1 DUP4 SUB DUP2 DUP6 DUP9 DUP9 CALL SWAP4 POP POP POP POP ISZERO DUP1 ISZERO PUSH2 0x1EA6 JUMPI RETURNDATASIZE PUSH1 0x0 DUP1 RETURNDATACOPY RETURNDATASIZE PUSH1 0x0 REVERT JUMPDEST POP PUSH2 0x1EBC DUP5 PUSH1 0x9 SLOAD PUSH2 0x2A09 SWAP1 SWAP2 SWAP1 PUSH4 0xFFFFFFFF AND JUMP JUMPDEST PUSH1 0x9 DUP2 SWAP1 SSTORE POP CALLER PUSH20 0xFFFFFFFFFFFFFFFFFFFFFFFFFFFFFFFFFFFFFFFF AND PUSH32 0x7084F5476618D8E60B11EF0D7D3F06914655ADB8793E28FF7F018D4C76D505D5 DUP6 PUSH1 0x40 MLOAD PUSH2 0x1F08 SWAP2 SWAP1 PUSH2 0x3228 JUMP JUMPDEST PUSH1 0x40 MLOAD DUP1 SWAP2 SUB SWAP1 LOG2 POP POP POP POP POP POP JUMP JUMPDEST PUSH1 0x2 PUSH1 0x0 SWAP1 SLOAD SWAP1 PUSH2 0x100 EXP SWAP1 DIV PUSH20 0xFFFFFFFFFFFFFFFFFFFFFFFFFFFFFFFFFFFFFFFF AND DUP2 JUMP JUMPDEST PUSH1 0x3 PUSH1 0x0 SWAP1 SLOAD SWAP1 PUSH2 0x100 EXP SWAP1 DIV PUSH20 0xFFFFFFFFFFFFFFFFFFFFFFFFFFFFFFFFFFFFFFFF AND DUP2 JUMP JUMPDEST PUSH1 0x32 DUP2 JUMP JUMPDEST PUSH1 0x60 DUP1 PUSH1 0x60 DUP1 PUSH1 0x0 PUSH1 0xE PUSH1 0x0 DUP10 PUSH20 0xFFFFFFFFFFFFFFFFFFFFFFFFFFFFFFFFFFFFFFFF AND PUSH20 0xFFFFFFFFFFFFFFFFFFFFFFFFFFFFFFFFFFFFFFFF AND DUP2 MSTORE PUSH1 0x20 ADD SWAP1 DUP2 MSTORE PUSH1 0x20 ADD PUSH1 0x0 KECCAK256 SWAP1 POP PUSH1 0x0 PUSH2 0x1FC7 DUP9 DUP9 PUSH2 0x2B32 SWAP1 SWAP2 SWAP1 PUSH4 0xFFFFFFFF AND JUMP JUMPDEST SWAP1 POP DUP2 PUSH1 0x0 ADD DUP1 SLOAD SWAP1 POP DUP2 GT ISZERO PUSH2 0x1FE3 JUMPI DUP2 PUSH1 0x0 ADD DUP1 SLOAD SWAP1 POP SWAP1 POP JUMPDEST PUSH1 0x0 DUP2 PUSH8 0xFFFFFFFFFFFFFFFF DUP2 GT ISZERO PUSH2 0x1FFF JUMPI PUSH2 0x1FFE PUSH2 0x3A2A JUMP JUMPDEST JUMPDEST PUSH1 0x40 MLOAD SWAP1 DUP1 DUP3 MSTORE DUP1 PUSH1 0x20 MUL PUSH1 0x20 ADD DUP3 ADD PUSH1 0x40 MSTORE DUP1 ISZERO PUSH2 0x202D JUMPI DUP2 PUSH1 0x20 ADD PUSH1 0x20 DUP3 MUL DUP1 CALLDATASIZE DUP4 CALLDATACOPY DUP1 DUP3 ADD SWAP2 POP POP SWAP1 POP JUMPDEST POP SWAP1 POP PUSH1 0x0 DUP3 PUSH8 0xFFFFFFFFFFFFFFFF DUP2 GT ISZERO PUSH2 0x204C JUMPI PUSH2 0x204B PUSH2 0x3A2A JUMP JUMPDEST JUMPDEST PUSH1 0x40 MLOAD SWAP1 DUP1 DUP3 MSTORE DUP1 PUSH1 0x20 MUL PUSH1 0x20 ADD DUP3 ADD PUSH1 0x40 MSTORE DUP1 ISZERO PUSH2 0x207A JUMPI DUP2 PUSH1 0x20 ADD PUSH1 0x20 DUP3 MUL DUP1 CALLDATASIZE DUP4 CALLDATACOPY DUP1 DUP3 ADD SWAP2 POP POP SWAP1 POP JUMPDEST POP SWAP1 POP PUSH1 0x0 DUP4 PUSH8 0xFFFFFFFFFFFFFFFF DUP2 GT ISZERO PUSH2 0x2099 JUMPI PUSH2 0x2098 PUSH2 0x3A2A JUMP JUMPDEST JUMPDEST PUSH1 0x40 MLOAD SWAP1 DUP1 DUP3 MSTORE DUP1 PUSH1 0x20 MUL PUSH1 0x20 ADD DUP3 ADD PUSH1 0x40 MSTORE DUP1 ISZERO PUSH2 0x20C7 JUMPI DUP2 PUSH1 0x20 ADD PUSH1 0x20 DUP3 MUL DUP1 CALLDATASIZE DUP4 CALLDATACOPY DUP1 DUP3 ADD SWAP2 POP POP SWAP1 POP JUMPDEST POP SWAP1 POP PUSH1 0x0 DUP5 PUSH8 0xFFFFFFFFFFFFFFFF DUP2 GT ISZERO PUSH2 0x20E6 JUMPI PUSH2 0x20E5 PUSH2 0x3A2A JUMP JUMPDEST JUMPDEST PUSH1 0x40 MLOAD SWAP1 DUP1 DUP3 MSTORE DUP1 PUSH1 0x20 MUL PUSH1 0x20 ADD DUP3 ADD PUSH1 0x40 MSTORE DUP1 ISZERO PUSH2 0x2114 JUMPI DUP2 PUSH1 0x20 ADD PUSH1 0x20 DUP3 MUL DUP1 CALLDATASIZE DUP4 CALLDATACOPY DUP1 DUP3 ADD SWAP2 POP POP SWAP1 POP JUMPDEST POP SWAP1 POP PUSH1 0x0 DUP1 DUP13 SWAP1 POP JUMPDEST DUP14 DUP2 GT ISZERO PUSH2 0x2240 JUMPI DUP8 PUSH1 0x0 ADD PUSH1 0x1 DUP3 PUSH2 0x2137 SWAP2 SWAP1 PUSH2 0x3A59 JUMP JUMPDEST DUP2 SLOAD DUP2 LT PUSH2 0x2148 JUMPI PUSH2 0x2147 PUSH2 0x38AD JUMP JUMPDEST JUMPDEST SWAP1 PUSH1 0x0 MSTORE PUSH1 0x20 PUSH1 0x0 KECCAK256 SWAP1 PUSH1 0x3 MUL ADD PUSH1 0x0 ADD SLOAD DUP7 DUP4 DUP2 MLOAD DUP2 LT PUSH2 0x216D JUMPI PUSH2 0x216C PUSH2 0x38AD JUMP JUMPDEST JUMPDEST PUSH1 0x20 MUL PUSH1 0x20 ADD ADD DUP2 DUP2 MSTORE POP POP DUP8 PUSH1 0x0 ADD PUSH1 0x1 DUP3 PUSH2 0x218A SWAP2 SWAP1 PUSH2 0x3A59 JUMP JUMPDEST DUP2 SLOAD DUP2 LT PUSH2 0x219B JUMPI PUSH2 0x219A PUSH2 0x38AD JUMP JUMPDEST JUMPDEST SWAP1 PUSH1 0x0 MSTORE PUSH1 0x20 PUSH1 0x0 KECCAK256 SWAP1 PUSH1 0x3 MUL ADD PUSH1 0x1 ADD SLOAD DUP6 DUP4 DUP2 MLOAD DUP2 LT PUSH2 0x21C0 JUMPI PUSH2 0x21BF PUSH2 0x38AD JUMP JUMPDEST JUMPDEST PUSH1 0x20 MUL PUSH1 0x20 ADD ADD DUP2 DUP2 MSTORE POP POP DUP8 PUSH1 0x0 ADD PUSH1 0x1 DUP3 PUSH2 0x21DD SWAP2 SWAP1 PUSH2 0x3A59 JUMP JUMPDEST DUP2 SLOAD DUP2 LT PUSH2 0x21EE JUMPI PUSH2 0x21ED PUSH2 0x38AD JUMP JUMPDEST JUMPDEST SWAP1 PUSH1 0x0 MSTORE PUSH1 0x20 PUSH1 0x0 KECCAK256 SWAP1 PUSH1 0x3 MUL ADD PUSH1 0x2 ADD SLOAD DUP4 DUP4 DUP2 MLOAD DUP2 LT PUSH2 0x2213 JUMPI PUSH2 0x2212 PUSH2 0x38AD JUMP JUMPDEST JUMPDEST PUSH1 0x20 MUL PUSH1 0x20 ADD ADD DUP2 DUP2 MSTORE POP POP DUP2 DUP1 PUSH2 0x222A SWAP1 PUSH2 0x3976 JUMP JUMPDEST SWAP3 POP POP DUP1 DUP1 PUSH2 0x2238 SWAP1 PUSH2 0x3A8D JUMP JUMPDEST SWAP2 POP POP PUSH2 0x211E JUMP JUMPDEST POP DUP5 DUP5 DUP5 DUP5 SWAP11 POP SWAP11 POP SWAP11 POP SWAP11 POP POP POP POP POP POP POP POP SWAP4 POP SWAP4 POP SWAP4 POP SWAP4 JUMP JUMPDEST PUSH1 0x0 DUP1 SLOAD SWAP1 PUSH2 0x100 EXP SWAP1 DIV PUSH20 0xFFFFFFFFFFFFFFFFFFFFFFFFFFFFFFFFFFFFFFFF AND PUSH20 0xFFFFFFFFFFFFFFFFFFFFFFFFFFFFFFFFFFFFFFFF AND CALLER PUSH20 0xFFFFFFFFFFFFFFFFFFFFFFFFFFFFFFFFFFFFFFFF AND EQ PUSH2 0x22EB JUMPI PUSH1 0x40 MLOAD PUSH32 0x8C379A000000000000000000000000000000000000000000000000000000000 DUP2 MSTORE PUSH1 0x4 ADD PUSH2 0x22E2 SWAP1 PUSH2 0x3B28 JUMP JUMPDEST PUSH1 0x40 MLOAD DUP1 SWAP2 SUB SWAP1 REVERT JUMPDEST DUP1 PUSH1 0xC PUSH1 0x0 PUSH2 0x100 EXP DUP2 SLOAD DUP2 PUSH20 0xFFFFFFFFFFFFFFFFFFFFFFFFFFFFFFFFFFFFFFFF MUL NOT AND SWAP1 DUP4 PUSH20 0xFFFFFFFFFFFFFFFFFFFFFFFFFFFFFFFFFFFFFFFF AND MUL OR SWAP1 SSTORE POP POP JUMP JUMPDEST PUSH2 0x258 DUP2 JUMP JUMPDEST PUSH1 0x9 SLOAD DUP2 JUMP JUMPDEST PUSH1 0x0 DUP1 PUSH1 0x0 DUP1 PUSH1 0x0 DUP1 PUSH1 0x0 DUP1 PUSH2 0x2350 DUP10 PUSH2 0x2A67 JUMP JUMPDEST SWAP1 POP PUSH1 0x0 PUSH2 0x235D DUP11 PUSH2 0x2B91 JUMP JUMPDEST SWAP1 POP PUSH1 0x0 PUSH2 0x236A DUP12 PUSH2 0x2EF4 JUMP JUMPDEST SWAP1 POP PUSH1 0x0 PUSH2 0x2377 DUP13 PUSH2 0x2FA3 JUMP JUMPDEST SWAP1 POP PUSH1 0x0 PUSH2 0x2384 DUP14 PUSH2 0x2FF2 JUMP JUMPDEST SWAP1 POP PUSH1 0x0 PUSH2 0x2391 DUP15 PUSH2 0x30A5 JUMP JUMPDEST SWAP1 POP PUSH1 0x0 PUSH2 0x239E DUP16 PUSH2 0x31A0 JUMP JUMPDEST SWAP1 POP DUP7 DUP7 DUP7 DUP7 DUP7 DUP7 DUP7 SWAP14 POP SWAP14 POP SWAP14 POP SWAP14 POP SWAP14 POP SWAP14 POP SWAP14 POP POP POP POP POP POP POP POP SWAP2 SWAP4 SWAP6 SWAP8 SWAP1 SWAP3 SWAP5 SWAP7 POP JUMP JUMPDEST PUSH1 0x64 DUP2 JUMP JUMPDEST PUSH1 0x4 PUSH1 0x0 SWAP1 SLOAD SWAP1 PUSH2 0x100 EXP SWAP1 DIV PUSH20 0xFFFFFFFFFFFFFFFFFFFFFFFFFFFFFFFFFFFFFFFF AND DUP2 JUMP JUMPDEST PUSH1 0x7 SLOAD DUP2 JUMP JUMPDEST PUSH1 0x0 PUSH1 0xC PUSH1 0x0 SWAP1 SLOAD SWAP1 PUSH2 0x100 EXP SWAP1 DIV PUSH20 0xFFFFFFFFFFFFFFFFFFFFFFFFFFFFFFFFFFFFFFFF AND PUSH20 0xFFFFFFFFFFFFFFFFFFFFFFFFFFFFFFFFFFFFFFFF AND BALANCE SWAP1 POP SWAP1 JUMP JUMPDEST PUSH10 0xD3C21BCECCEDA1000000 DUP2 JUMP JUMPDEST PUSH1 0x0 DUP1 SLOAD SWAP1 PUSH2 0x100 EXP SWAP1 DIV PUSH20 0xFFFFFFFFFFFFFFFFFFFFFFFFFFFFFFFFFFFFFFFF AND DUP2 JUMP JUMPDEST PUSH1 0xA SLOAD DUP2 JUMP JUMPDEST PUSH1 0x0 DUP1 PUSH1 0xE PUSH1 0x0 DUP5 PUSH20 0xFFFFFFFFFFFFFFFFFFFFFFFFFFFFFFFFFFFFFFFF AND PUSH20 0xFFFFFFFFFFFFFFFFFFFFFFFFFFFFFFFFFFFFFFFF AND DUP2 MSTORE PUSH1 0x20 ADD SWAP1 DUP2 MSTORE PUSH1 0x20 ADD PUSH1 0x0 KECCAK256 SWAP1 POP DUP1 PUSH1 0x1 ADD SLOAD SWAP2 POP POP SWAP2 SWAP1 POP JUMP JUMPDEST PUSH1 0x0 DUP1 PUSH1 0xE PUSH1 0x0 DUP5 PUSH20 0xFFFFFFFFFFFFFFFFFFFFFFFFFFFFFFFFFFFFFFFF AND PUSH20 0xFFFFFFFFFFFFFFFFFFFFFFFFFFFFFFFFFFFFFFFF AND DUP2 MSTORE PUSH1 0x20 ADD SWAP1 DUP2 MSTORE PUSH1 0x20 ADD PUSH1 0x0 KECCAK256 SWAP1 POP PUSH1 0x0 DUP2 PUSH1 0x0 ADD DUP1 SLOAD SWAP1 POP GT DUP1 ISZERO PUSH2 0x25A3 JUMPI POP PUSH2 0x2566 PUSH1 0x2 DUP3 PUSH1 0x0 ADD PUSH1 0x1 DUP5 PUSH1 0x0 ADD DUP1 SLOAD SWAP1 POP PUSH2 0x2535 SWAP2 SWAP1 PUSH2 0x3A59 JUMP JUMPDEST DUP2 SLOAD DUP2 LT PUSH2 0x2546 JUMPI PUSH2 0x2545 PUSH2 0x38AD JUMP JUMPDEST JUMPDEST SWAP1 PUSH1 0x0 MSTORE PUSH1 0x20 PUSH1 0x0 KECCAK256 SWAP1 PUSH1 0x3 MUL ADD PUSH1 0x0 ADD SLOAD PUSH2 0x2931 SWAP1 SWAP2 SWAP1 PUSH4 0xFFFFFFFF AND JUMP JUMPDEST DUP2 PUSH1 0x0 ADD PUSH1 0x1 DUP4 PUSH1 0x0 ADD DUP1 SLOAD SWAP1 POP PUSH2 0x257E SWAP2 SWAP1 PUSH2 0x3A59 JUMP JUMPDEST DUP2 SLOAD DUP2 LT PUSH2 0x258F JUMPI PUSH2 0x258E PUSH2 0x38AD JUMP JUMPDEST JUMPDEST SWAP1 PUSH1 0x0 MSTORE PUSH1 0x20 PUSH1 0x0 KECCAK256 SWAP1 PUSH1 0x3 MUL ADD PUSH1 0x1 ADD SLOAD LT JUMPDEST SWAP2 POP POP SWAP2 SWAP1 POP JUMP JUMPDEST PUSH1 0x1 PUSH1 0x0 SWAP1 SLOAD SWAP1 PUSH2 0x100 EXP SWAP1 DIV PUSH20 0xFFFFFFFFFFFFFFFFFFFFFFFFFFFFFFFFFFFFFFFF AND DUP2 JUMP JUMPDEST PUSH1 0x0 PUSH1 0xE PUSH1 0x0 DUP4 PUSH20 0xFFFFFFFFFFFFFFFFFFFFFFFFFFFFFFFFFFFFFFFF AND PUSH20 0xFFFFFFFFFFFFFFFFFFFFFFFFFFFFFFFFFFFFFFFF AND DUP2 MSTORE PUSH1 0x20 ADD SWAP1 DUP2 MSTORE PUSH1 0x20 ADD PUSH1 0x0 KECCAK256 PUSH1 0x5 ADD SLOAD SWAP1 POP SWAP2 SWAP1 POP JUMP JUMPDEST PUSH2 0x12C DUP2 JUMP JUMPDEST PUSH2 0x258 DUP2 JUMP JUMPDEST PUSH1 0x5 PUSH1 0x0 SWAP1 SLOAD SWAP1 PUSH2 0x100 EXP SWAP1 DIV PUSH20 0xFFFFFFFFFFFFFFFFFFFFFFFFFFFFFFFFFFFFFFFF AND DUP2 JUMP JUMPDEST PUSH1 0xB SLOAD DUP2 JUMP JUMPDEST PUSH8 0xDE0B6B3A7640000 DUP2 JUMP JUMPDEST PUSH1 0xF PUSH1 0x20 MSTORE DUP1 PUSH1 0x0 MSTORE PUSH1 0x40 PUSH1 0x0 KECCAK256 PUSH1 0x0 SWAP2 POP SLOAD SWAP1 PUSH2 0x100 EXP SWAP1 DIV PUSH20 0xFFFFFFFFFFFFFFFFFFFFFFFFFFFFFFFFFFFFFFFF AND DUP2 JUMP JUMPDEST PUSH1 0xC PUSH1 0x0 SWAP1 SLOAD SWAP1 PUSH2 0x100 EXP SWAP1 DIV PUSH20 0xFFFFFFFFFFFFFFFFFFFFFFFFFFFFFFFFFFFFFFFF AND DUP2 JUMP JUMPDEST PUSH1 0x0 CALLER SWAP1 POP PUSH1 0x0 PUSH20 0xFFFFFFFFFFFFFFFFFFFFFFFFFFFFFFFFFFFFFFFF AND DUP3 PUSH20 0xFFFFFFFFFFFFFFFFFFFFFFFFFFFFFFFFFFFFFFFF AND SUB PUSH2 0x2719 JUMPI PUSH1 0x4 PUSH1 0x0 SWAP1 SLOAD SWAP1 PUSH2 0x100 EXP SWAP1 DIV PUSH20 0xFFFFFFFFFFFFFFFFFFFFFFFFFFFFFFFFFFFFFFFF AND SWAP2 POP JUMPDEST DUP2 PUSH20 0xFFFFFFFFFFFFFFFFFFFFFFFFFFFFFFFFFFFFFFFF AND DUP2 PUSH20 0xFFFFFFFFFFFFFFFFFFFFFFFFFFFFFFFFFFFFFFFF AND SUB PUSH2 0x2787 JUMPI PUSH1 0x40 MLOAD PUSH32 0x8C379A000000000000000000000000000000000000000000000000000000000 DUP2 MSTORE PUSH1 0x4 ADD PUSH2 0x277E SWAP1 PUSH2 0x3BBA JUMP JUMPDEST PUSH1 0x40 MLOAD DUP1 SWAP2 SUB SWAP1 REVERT JUMPDEST PUSH1 0x0 PUSH20 0xFFFFFFFFFFFFFFFFFFFFFFFFFFFFFFFFFFFFFFFF AND PUSH1 0xF PUSH1 0x0 DUP4 PUSH20 0xFFFFFFFFFFFFFFFFFFFFFFFFFFFFFFFFFFFFFFFF AND PUSH20 0xFFFFFFFFFFFFFFFFFFFFFFFFFFFFFFFFFFFFFFFF AND DUP2 MSTORE PUSH1 0x20 ADD SWAP1 DUP2 MSTORE PUSH1 0x20 ADD PUSH1 0x0 KECCAK256 PUSH1 0x0 SWAP1 SLOAD SWAP1 PUSH2 0x100 EXP SWAP1 DIV PUSH20 0xFFFFFFFFFFFFFFFFFFFFFFFFFFFFFFFFFFFFFFFF AND PUSH20 0xFFFFFFFFFFFFFFFFFFFFFFFFFFFFFFFFFFFFFFFF AND EQ PUSH2 0x2855 JUMPI PUSH1 0x40 MLOAD PUSH32 0x8C379A000000000000000000000000000000000000000000000000000000000 DUP2 MSTORE PUSH1 0x4 ADD PUSH2 0x284C SWAP1 PUSH2 0x3C26 JUMP JUMPDEST PUSH1 0x40 MLOAD DUP1 SWAP2 SUB SWAP1 REVERT JUMPDEST DUP2 PUSH1 0xF PUSH1 0x0 DUP4 PUSH20 0xFFFFFFFFFFFFFFFFFFFFFFFFFFFFFFFFFFFFFFFF AND PUSH20 0xFFFFFFFFFFFFFFFFFFFFFFFFFFFFFFFFFFFFFFFF AND DUP2 MSTORE PUSH1 0x20 ADD SWAP1 DUP2 MSTORE PUSH1 0x20 ADD PUSH1 0x0 KECCAK256 PUSH1 0x0 PUSH2 0x100 EXP DUP2 SLOAD DUP2 PUSH20 0xFFFFFFFFFFFFFFFFFFFFFFFFFFFFFFFFFFFFFFFF MUL NOT AND SWAP1 DUP4 PUSH20 0xFFFFFFFFFFFFFFFFFFFFFFFFFFFFFFFFFFFFFFFF AND MUL OR SWAP1 SSTORE POP DUP2 PUSH20 0xFFFFFFFFFFFFFFFFFFFFFFFFFFFFFFFFFFFFFFFF AND DUP2 PUSH20 0xFFFFFFFFFFFFFFFFFFFFFFFFFFFFFFFFFFFFFFFF AND PUSH32 0x3F866F0601769EE34CF5FEFEBDB42B8CCE13E8180F26D32FAF3648E1F9E7CDC PUSH1 0x40 MLOAD PUSH1 0x40 MLOAD DUP1 SWAP2 SUB SWAP1 LOG3 POP POP JUMP JUMPDEST PUSH1 0x0 DUP1 DUP4 SUB PUSH2 0x2943 JUMPI PUSH1 0x0 SWAP1 POP PUSH2 0x29A5 JUMP JUMPDEST PUSH1 0x0 DUP3 DUP5 PUSH2 0x2951 SWAP2 SWAP1 PUSH2 0x3C46 JUMP JUMPDEST SWAP1 POP DUP3 DUP5 DUP3 PUSH2 0x2960 SWAP2 SWAP1 PUSH2 0x3CB7 JUMP JUMPDEST EQ PUSH2 0x29A0 JUMPI PUSH1 0x40 MLOAD PUSH32 0x8C379A000000000000000000000000000000000000000000000000000000000 DUP2 MSTORE PUSH1 0x4 ADD PUSH2 0x2997 SWAP1 PUSH2 0x3D5A JUMP JUMPDEST PUSH1 0x40 MLOAD DUP1 SWAP2 SUB SWAP1 REVERT JUMPDEST DUP1 SWAP2 POP POP JUMPDEST SWAP3 SWAP2 POP POP JUMP JUMPDEST PUSH1 0x0 DUP1 DUP3 GT PUSH2 0x29EF JUMPI PUSH1 0x40 MLOAD PUSH32 0x8C379A000000000000000000000000000000000000000000000000000000000 DUP2 MSTORE PUSH1 0x4 ADD PUSH2 0x29E6 SWAP1 PUSH2 0x3DC6 JUMP JUMPDEST PUSH1 0x40 MLOAD DUP1 SWAP2 SUB SWAP1 REVERT JUMPDEST PUSH1 0x0 DUP3 DUP5 PUSH2 0x29FD SWAP2 SWAP1 PUSH2 0x3CB7 JUMP JUMPDEST SWAP1 POP DUP1 SWAP2 POP POP SWAP3 SWAP2 POP POP JUMP JUMPDEST PUSH1 0x0 DUP1 DUP3 DUP5 PUSH2 0x2A18 SWAP2 SWAP1 PUSH2 0x390B JUMP JUMPDEST SWAP1 POP DUP4 DUP2 LT ISZERO PUSH2 0x2A5D JUMPI PUSH1 0x40 MLOAD PUSH32 0x8C379A000000000000000000000000000000000000000000000000000000000 DUP2 MSTORE PUSH1 0x4 ADD PUSH2 0x2A54 SWAP1 PUSH2 0x3E32 JUMP JUMPDEST PUSH1 0x40 MLOAD DUP1 SWAP2 SUB SWAP1 REVERT JUMPDEST DUP1 SWAP2 POP POP SWAP3 SWAP2 POP POP JUMP JUMPDEST PUSH1 0x0 DUP1 PUSH1 0xE PUSH1 0x0 DUP5 PUSH20 0xFFFFFFFFFFFFFFFFFFFFFFFFFFFFFFFFFFFFFFFF AND PUSH20 0xFFFFFFFFFFFFFFFFFFFFFFFFFFFFFFFFFFFFFFFF AND DUP2 MSTORE PUSH1 0x20 ADD SWAP1 DUP2 MSTORE PUSH1 0x20 ADD PUSH1 0x0 KECCAK256 SWAP1 POP PUSH2 0x2AB4 DUP4 PUSH2 0x24C2 JUMP JUMPDEST ISZERO PUSH2 0x2B26 JUMPI PUSH1 0x0 PUSH2 0x2AF8 PUSH1 0x5 PUSH2 0x2AEA PUSH1 0x3C PUSH2 0x2ADC DUP7 PUSH1 0x1 ADD SLOAD TIMESTAMP PUSH2 0x2B32 SWAP1 SWAP2 SWAP1 PUSH4 0xFFFFFFFF AND JUMP JUMPDEST PUSH2 0x29AB SWAP1 SWAP2 SWAP1 PUSH4 0xFFFFFFFF AND JUMP JUMPDEST PUSH2 0x2931 SWAP1 SWAP2 SWAP1 PUSH4 0xFFFFFFFF AND JUMP JUMPDEST SWAP1 POP PUSH1 0x32 DUP2 GT ISZERO PUSH2 0x2B08 JUMPI PUSH1 0x32 SWAP1 POP JUMPDEST PUSH2 0x2B1D DUP2 PUSH1 0xA SLOAD PUSH2 0x2A09 SWAP1 SWAP2 SWAP1 PUSH4 0xFFFFFFFF AND JUMP JUMPDEST SWAP3 POP POP POP PUSH2 0x2B2D JUMP JUMPDEST PUSH1 0xA SLOAD SWAP2 POP POP JUMPDEST SWAP2 SWAP1 POP JUMP JUMPDEST PUSH1 0x0 DUP3 DUP3 GT ISZERO PUSH2 0x2B77 JUMPI PUSH1 0x40 MLOAD PUSH32 0x8C379A000000000000000000000000000000000000000000000000000000000 DUP2 MSTORE PUSH1 0x4 ADD PUSH2 0x2B6E SWAP1 PUSH2 0x3E9E JUMP JUMPDEST PUSH1 0x40 MLOAD DUP1 SWAP2 SUB SWAP1 REVERT JUMPDEST PUSH1 0x0 DUP3 DUP5 PUSH2 0x2B85 SWAP2 SWAP1 PUSH2 0x3A59 JUMP JUMPDEST SWAP1 POP DUP1 SWAP2 POP POP SWAP3 SWAP2 POP POP JUMP JUMPDEST PUSH1 0x0 DUP1 PUSH1 0xE PUSH1 0x0 DUP5 PUSH20 0xFFFFFFFFFFFFFFFFFFFFFFFFFFFFFFFFFFFFFFFF AND PUSH20 0xFFFFFFFFFFFFFFFFFFFFFFFFFFFFFFFFFFFFFFFF AND DUP2 MSTORE PUSH1 0x20 ADD SWAP1 DUP2 MSTORE PUSH1 0x20 ADD PUSH1 0x0 KECCAK256 SWAP1 POP PUSH1 0x0 PUSH2 0x2BE0 DUP5 PUSH2 0x2A67 JUMP JUMPDEST SWAP1 POP PUSH1 0x0 DUP1 PUSH1 0x0 JUMPDEST DUP5 PUSH1 0x0 ADD DUP1 SLOAD SWAP1 POP DUP2 LT ISZERO PUSH2 0x2EE7 JUMPI PUSH2 0x2C32 PUSH1 0x2 DUP7 PUSH1 0x0 ADD DUP4 DUP2 SLOAD DUP2 LT PUSH2 0x2C12 JUMPI PUSH2 0x2C11 PUSH2 0x38AD JUMP JUMPDEST JUMPDEST SWAP1 PUSH1 0x0 MSTORE PUSH1 0x20 PUSH1 0x0 KECCAK256 SWAP1 PUSH1 0x3 MUL ADD PUSH1 0x0 ADD SLOAD PUSH2 0x2931 SWAP1 SWAP2 SWAP1 PUSH4 0xFFFFFFFF AND JUMP JUMPDEST DUP6 PUSH1 0x0 ADD DUP3 DUP2 SLOAD DUP2 LT PUSH2 0x2C48 JUMPI PUSH2 0x2C47 PUSH2 0x38AD JUMP JUMPDEST JUMPDEST SWAP1 PUSH1 0x0 MSTORE PUSH1 0x20 PUSH1 0x0 KECCAK256 SWAP1 PUSH1 0x3 MUL ADD PUSH1 0x1 ADD SLOAD LT ISZERO PUSH2 0x2EDA JUMPI DUP5 PUSH1 0x1 ADD SLOAD DUP6 PUSH1 0x0 ADD DUP3 DUP2 SLOAD DUP2 LT PUSH2 0x2C7B JUMPI PUSH2 0x2C7A PUSH2 0x38AD JUMP JUMPDEST JUMPDEST SWAP1 PUSH1 0x0 MSTORE PUSH1 0x20 PUSH1 0x0 KECCAK256 SWAP1 PUSH1 0x3 MUL ADD PUSH1 0x2 ADD SLOAD GT ISZERO PUSH2 0x2D46 JUMPI PUSH2 0x2D3F PUSH1 0x3C PUSH2 0x2D31 PUSH2 0x2CD5 DUP9 PUSH1 0x0 ADD DUP6 DUP2 SLOAD DUP2 LT PUSH2 0x2CB4 JUMPI PUSH2 0x2CB3 PUSH2 0x38AD JUMP JUMPDEST JUMPDEST SWAP1 PUSH1 0x0 MSTORE PUSH1 0x20 PUSH1 0x0 KECCAK256 SWAP1 PUSH1 0x3 MUL ADD PUSH1 0x2 ADD SLOAD TIMESTAMP PUSH2 0x2B32 SWAP1 SWAP2 SWAP1 PUSH4 0xFFFFFFFF AND JUMP JUMPDEST PUSH2 0x2D23 PUSH2 0x2710 PUSH2 0x2D15 DUP11 DUP13 PUSH1 0x0 ADD DUP10 DUP2 SLOAD DUP2 LT PUSH2 0x2CF5 JUMPI PUSH2 0x2CF4 PUSH2 0x38AD JUMP JUMPDEST JUMPDEST SWAP1 PUSH1 0x0 MSTORE PUSH1 0x20 PUSH1 0x0 KECCAK256 SWAP1 PUSH1 0x3 MUL ADD PUSH1 0x0 ADD SLOAD PUSH2 0x2931 SWAP1 SWAP2 SWAP1 PUSH4 0xFFFFFFFF AND JUMP JUMPDEST PUSH2 0x29AB SWAP1 SWAP2 SWAP1 PUSH4 0xFFFFFFFF AND JUMP JUMPDEST PUSH2 0x2931 SWAP1 SWAP2 SWAP1 PUSH4 0xFFFFFFFF AND JUMP JUMPDEST PUSH2 0x29AB SWAP1 SWAP2 SWAP1 PUSH4 0xFFFFFFFF AND JUMP JUMPDEST SWAP2 POP PUSH2 0x2DD2 JUMP JUMPDEST PUSH2 0x2DCF PUSH1 0x3C PUSH2 0x2DC1 PUSH2 0x2D65 DUP9 PUSH1 0x1 ADD SLOAD TIMESTAMP PUSH2 0x2B32 SWAP1 SWAP2 SWAP1 PUSH4 0xFFFFFFFF AND JUMP JUMPDEST PUSH2 0x2DB3 PUSH2 0x2710 PUSH2 0x2DA5 DUP11 DUP13 PUSH1 0x0 ADD DUP10 DUP2 SLOAD DUP2 LT PUSH2 0x2D85 JUMPI PUSH2 0x2D84 PUSH2 0x38AD JUMP JUMPDEST JUMPDEST SWAP1 PUSH1 0x0 MSTORE PUSH1 0x20 PUSH1 0x0 KECCAK256 SWAP1 PUSH1 0x3 MUL ADD PUSH1 0x0 ADD SLOAD PUSH2 0x2931 SWAP1 SWAP2 SWAP1 PUSH4 0xFFFFFFFF AND JUMP JUMPDEST PUSH2 0x29AB SWAP1 SWAP2 SWAP1 PUSH4 0xFFFFFFFF AND JUMP JUMPDEST PUSH2 0x2931 SWAP1 SWAP2 SWAP1 PUSH4 0xFFFFFFFF AND JUMP JUMPDEST PUSH2 0x29AB SWAP1 SWAP2 SWAP1 PUSH4 0xFFFFFFFF AND JUMP JUMPDEST SWAP2 POP JUMPDEST PUSH2 0x2E0D PUSH1 0x2 DUP7 PUSH1 0x0 ADD DUP4 DUP2 SLOAD DUP2 LT PUSH2 0x2DED JUMPI PUSH2 0x2DEC PUSH2 0x38AD JUMP JUMPDEST JUMPDEST SWAP1 PUSH1 0x0 MSTORE PUSH1 0x20 PUSH1 0x0 KECCAK256 SWAP1 PUSH1 0x3 MUL ADD PUSH1 0x0 ADD SLOAD PUSH2 0x2931 SWAP1 SWAP2 SWAP1 PUSH4 0xFFFFFFFF AND JUMP JUMPDEST PUSH2 0x2E47 DUP4 DUP8 PUSH1 0x0 ADD DUP5 DUP2 SLOAD DUP2 LT PUSH2 0x2E27 JUMPI PUSH2 0x2E26 PUSH2 0x38AD JUMP JUMPDEST JUMPDEST SWAP1 PUSH1 0x0 MSTORE PUSH1 0x20 PUSH1 0x0 KECCAK256 SWAP1 PUSH1 0x3 MUL ADD PUSH1 0x1 ADD SLOAD PUSH2 0x2A09 SWAP1 SWAP2 SWAP1 PUSH4 0xFFFFFFFF AND JUMP JUMPDEST GT ISZERO PUSH2 0x2EC4 JUMPI PUSH2 0x2EC1 DUP6 PUSH1 0x0 ADD DUP3 DUP2 SLOAD DUP2 LT PUSH2 0x2E66 JUMPI PUSH2 0x2E65 PUSH2 0x38AD JUMP JUMPDEST JUMPDEST SWAP1 PUSH1 0x0 MSTORE PUSH1 0x20 PUSH1 0x0 KECCAK256 SWAP1 PUSH1 0x3 MUL ADD PUSH1 0x1 ADD SLOAD PUSH2 0x2EB3 PUSH1 0x2 DUP9 PUSH1 0x0 ADD DUP6 DUP2 SLOAD DUP2 LT PUSH2 0x2E93 JUMPI PUSH2 0x2E92 PUSH2 0x38AD JUMP JUMPDEST JUMPDEST SWAP1 PUSH1 0x0 MSTORE PUSH1 0x20 PUSH1 0x0 KECCAK256 SWAP1 PUSH1 0x3 MUL ADD PUSH1 0x0 ADD SLOAD PUSH2 0x2931 SWAP1 SWAP2 SWAP1 PUSH4 0xFFFFFFFF AND JUMP JUMPDEST PUSH2 0x2B32 SWAP1 SWAP2 SWAP1 PUSH4 0xFFFFFFFF AND JUMP JUMPDEST SWAP2 POP JUMPDEST PUSH2 0x2ED7 DUP3 DUP5 PUSH2 0x2A09 SWAP1 SWAP2 SWAP1 PUSH4 0xFFFFFFFF AND JUMP JUMPDEST SWAP3 POP JUMPDEST DUP1 DUP1 PUSH1 0x1 ADD SWAP2 POP POP PUSH2 0x2BE8 JUMP JUMPDEST POP DUP2 SWAP5 POP POP POP POP POP SWAP2 SWAP1 POP JUMP JUMPDEST PUSH1 0x0 DUP1 PUSH1 0xE PUSH1 0x0 DUP5 PUSH20 0xFFFFFFFFFFFFFFFFFFFFFFFFFFFFFFFFFFFFFFFF AND PUSH20 0xFFFFFFFFFFFFFFFFFFFFFFFFFFFFFFFFFFFFFFFF AND DUP2 MSTORE PUSH1 0x20 ADD SWAP1 DUP2 MSTORE PUSH1 0x20 ADD PUSH1 0x0 KECCAK256 SWAP1 POP PUSH1 0x0 DUP1 PUSH1 0x0 SWAP1 POP JUMPDEST DUP3 PUSH1 0x0 ADD DUP1 SLOAD SWAP1 POP DUP2 LT ISZERO PUSH2 0x2F98 JUMPI PUSH2 0x2F89 DUP4 PUSH1 0x0 ADD DUP3 DUP2 SLOAD DUP2 LT PUSH2 0x2F68 JUMPI PUSH2 0x2F67 PUSH2 0x38AD JUMP JUMPDEST JUMPDEST SWAP1 PUSH1 0x0 MSTORE PUSH1 0x20 PUSH1 0x0 KECCAK256 SWAP1 PUSH1 0x3 MUL ADD PUSH1 0x0 ADD SLOAD DUP4 PUSH2 0x2A09 SWAP1 SWAP2 SWAP1 PUSH4 0xFFFFFFFF AND JUMP JUMPDEST SWAP2 POP DUP1 DUP1 PUSH1 0x1 ADD SWAP2 POP POP PUSH2 0x2F40 JUMP JUMPDEST POP DUP1 SWAP3 POP POP POP SWAP2 SWAP1 POP JUMP JUMPDEST PUSH1 0x0 PUSH1 0xE PUSH1 0x0 DUP4 PUSH20 0xFFFFFFFFFFFFFFFFFFFFFFFFFFFFFFFFFFFFFFFF AND PUSH20 0xFFFFFFFFFFFFFFFFFFFFFFFFFFFFFFFFFFFFFFFF AND DUP2 MSTORE PUSH1 0x20 ADD SWAP1 DUP2 MSTORE PUSH1 0x20 ADD PUSH1 0x0 KECCAK256 PUSH1 0x0 ADD DUP1 SLOAD SWAP1 POP SWAP1 POP SWAP2 SWAP1 POP JUMP JUMPDEST PUSH1 0x0 DUP1 PUSH1 0xE PUSH1 0x0 DUP5 PUSH20 0xFFFFFFFFFFFFFFFFFFFFFFFFFFFFFFFFFFFFFFFF AND PUSH20 0xFFFFFFFFFFFFFFFFFFFFFFFFFFFFFFFFFFFFFFFF AND DUP2 MSTORE PUSH1 0x20 ADD SWAP1 DUP2 MSTORE PUSH1 0x20 ADD PUSH1 0x0 KECCAK256 SWAP1 POP PUSH1 0x0 DUP2 PUSH1 0x3 ADD SLOAD SWAP1 POP PUSH1 0x0 JUMPDEST DUP3 PUSH1 0x0 ADD DUP1 SLOAD SWAP1 POP DUP2 LT ISZERO PUSH2 0x309A JUMPI PUSH2 0x308B DUP4 PUSH1 0x0 ADD DUP3 DUP2 SLOAD DUP2 LT PUSH2 0x306A JUMPI PUSH2 0x3069 PUSH2 0x38AD JUMP JUMPDEST JUMPDEST SWAP1 PUSH1 0x0 MSTORE PUSH1 0x20 PUSH1 0x0 KECCAK256 SWAP1 PUSH1 0x3 MUL ADD PUSH1 0x1 ADD SLOAD DUP4 PUSH2 0x2A09 SWAP1 SWAP2 SWAP1 PUSH4 0xFFFFFFFF AND JUMP JUMPDEST SWAP2 POP DUP1 DUP1 PUSH1 0x1 ADD SWAP2 POP POP PUSH2 0x3042 JUMP JUMPDEST POP DUP1 SWAP3 POP POP POP SWAP2 SWAP1 POP JUMP JUMPDEST PUSH1 0x0 DUP1 PUSH1 0x0 SWAP1 POP PUSH1 0x0 JUMPDEST PUSH1 0xE PUSH1 0x0 DUP6 PUSH20 0xFFFFFFFFFFFFFFFFFFFFFFFFFFFFFFFFFFFFFFFF AND PUSH20 0xFFFFFFFFFFFFFFFFFFFFFFFFFFFFFFFFFFFFFFFF AND DUP2 MSTORE PUSH1 0x20 ADD SWAP1 DUP2 MSTORE PUSH1 0x20 ADD PUSH1 0x0 KECCAK256 POP PUSH1 0xC DUP2 PUSH3 0xFFFFFF AND LT ISZERO PUSH2 0x3196 JUMPI PUSH1 0xE PUSH1 0x0 DUP6 PUSH20 0xFFFFFFFFFFFFFFFFFFFFFFFFFFFFFFFFFFFFFFFF AND PUSH20 0xFFFFFFFFFFFFFFFFFFFFFFFFFFFFFFFFFFFFFFFF AND DUP2 MSTORE PUSH1 0x20 ADD SWAP1 DUP2 MSTORE PUSH1 0x20 ADD PUSH1 0x0 KECCAK256 PUSH1 0x7 ADD DUP2 PUSH3 0xFFFFFF AND PUSH1 0xC DUP2 LT PUSH2 0x3156 JUMPI PUSH2 0x3155 PUSH2 0x38AD JUMP JUMPDEST JUMPDEST PUSH1 0xA SWAP2 DUP3 DUP3 DIV ADD SWAP2 SWAP1 MOD PUSH1 0x3 MUL SWAP1 SLOAD SWAP1 PUSH2 0x100 EXP SWAP1 DIV PUSH3 0xFFFFFF AND PUSH3 0xFFFFFF AND DUP3 PUSH2 0x3181 SWAP2 SWAP1 PUSH2 0x390B JUMP JUMPDEST SWAP2 POP DUP1 DUP1 PUSH2 0x318E SWAP1 PUSH2 0x3EBE JUMP JUMPDEST SWAP2 POP POP PUSH2 0x30AF JUMP JUMPDEST POP DUP1 SWAP2 POP POP SWAP2 SWAP1 POP JUMP JUMPDEST PUSH1 0x0 PUSH1 0xE PUSH1 0x0 DUP4 PUSH20 0xFFFFFFFFFFFFFFFFFFFFFFFFFFFFFFFFFFFFFFFF AND PUSH20 0xFFFFFFFFFFFFFFFFFFFFFFFFFFFFFFFFFFFFFFFF AND DUP2 MSTORE PUSH1 0x20 ADD SWAP1 DUP2 MSTORE PUSH1 0x20 ADD PUSH1 0x0 KECCAK256 PUSH1 0x6 ADD SLOAD SWAP1 POP SWAP2 SWAP1 POP JUMP JUMPDEST PUSH1 0x40 MLOAD DUP1 PUSH2 0x180 ADD PUSH1 0x40 MSTORE DUP1 PUSH1 0xC SWAP1 PUSH1 0x20 DUP3 MUL DUP1 CALLDATASIZE DUP4 CALLDATACOPY DUP1 DUP3 ADD SWAP2 POP POP SWAP1 POP POP SWAP1 JUMP JUMPDEST PUSH1 0x0 DUP2 SWAP1 POP SWAP2 SWAP1 POP JUMP JUMPDEST PUSH2 0x3222 DUP2 PUSH2 0x320F JUMP JUMPDEST DUP3 MSTORE POP POP JUMP JUMPDEST PUSH1 0x0 PUSH1 0x20 DUP3 ADD SWAP1 POP PUSH2 0x323D PUSH1 0x0 DUP4 ADD DUP5 PUSH2 0x3219 JUMP JUMPDEST SWAP3 SWAP2 POP POP JUMP JUMPDEST PUSH1 0x0 DUP1 REVERT JUMPDEST PUSH1 0x0 PUSH20 0xFFFFFFFFFFFFFFFFFFFFFFFFFFFFFFFFFFFFFFFF DUP3 AND SWAP1 POP SWAP2 SWAP1 POP JUMP JUMPDEST PUSH1 0x0 PUSH2 0x3273 DUP3 PUSH2 0x3248 JUMP JUMPDEST SWAP1 POP SWAP2 SWAP1 POP JUMP JUMPDEST PUSH2 0x3283 DUP2 PUSH2 0x3268 JUMP JUMPDEST DUP2 EQ PUSH2 0x328E JUMPI PUSH1 0x0 DUP1 REVERT JUMPDEST POP JUMP JUMPDEST PUSH1 0x0 DUP2 CALLDATALOAD SWAP1 POP PUSH2 0x32A0 DUP2 PUSH2 0x327A JUMP JUMPDEST SWAP3 SWAP2 POP POP JUMP JUMPDEST PUSH1 0x0 PUSH1 0x20 DUP3 DUP5 SUB SLT ISZERO PUSH2 0x32BC JUMPI PUSH2 0x32BB PUSH2 0x3243 JUMP JUMPDEST JUMPDEST PUSH1 0x0 PUSH2 0x32CA DUP5 DUP3 DUP6 ADD PUSH2 0x3291 JUMP JUMPDEST SWAP2 POP POP SWAP3 SWAP2 POP POP JUMP JUMPDEST PUSH1 0x0 PUSH2 0x32DE DUP3 PUSH2 0x3248 JUMP JUMPDEST SWAP1 POP SWAP2 SWAP1 POP JUMP JUMPDEST PUSH2 0x32EE DUP2 PUSH2 0x32D3 JUMP JUMPDEST DUP3 MSTORE POP POP JUMP JUMPDEST PUSH1 0x0 PUSH1 0x20 DUP3 ADD SWAP1 POP PUSH2 0x3309 PUSH1 0x0 DUP4 ADD DUP5 PUSH2 0x32E5 JUMP JUMPDEST SWAP3 SWAP2 POP POP JUMP JUMPDEST PUSH1 0x0 PUSH1 0x80 DUP3 ADD SWAP1 POP PUSH2 0x3324 PUSH1 0x0 DUP4 ADD DUP8 PUSH2 0x3219 JUMP JUMPDEST PUSH2 0x3331 PUSH1 0x20 DUP4 ADD DUP7 PUSH2 0x3219 JUMP JUMPDEST PUSH2 0x333E PUSH1 0x40 DUP4 ADD DUP6 PUSH2 0x3219 JUMP JUMPDEST PUSH2 0x334B PUSH1 0x60 DUP4 ADD DUP5 PUSH2 0x3219 JUMP JUMPDEST SWAP6 SWAP5 POP POP POP POP POP JUMP JUMPDEST PUSH2 0x335D DUP2 PUSH2 0x32D3 JUMP JUMPDEST DUP2 EQ PUSH2 0x3368 JUMPI PUSH1 0x0 DUP1 REVERT JUMPDEST POP JUMP JUMPDEST PUSH1 0x0 DUP2 CALLDATALOAD SWAP1 POP PUSH2 0x337A DUP2 PUSH2 0x3354 JUMP JUMPDEST SWAP3 SWAP2 POP POP JUMP JUMPDEST PUSH1 0x0 PUSH1 0x20 DUP3 DUP5 SUB SLT ISZERO PUSH2 0x3396 JUMPI PUSH2 0x3395 PUSH2 0x3243 JUMP JUMPDEST JUMPDEST PUSH1 0x0 PUSH2 0x33A4 DUP5 DUP3 DUP6 ADD PUSH2 0x336B JUMP JUMPDEST SWAP2 POP POP SWAP3 SWAP2 POP POP JUMP JUMPDEST PUSH1 0x0 PUSH1 0xC SWAP1 POP SWAP2 SWAP1 POP JUMP JUMPDEST PUSH1 0x0 DUP2 SWAP1 POP SWAP3 SWAP2 POP POP JUMP JUMPDEST PUSH1 0x0 DUP2 SWAP1 POP SWAP2 SWAP1 POP JUMP JUMPDEST PUSH1 0x0 PUSH3 0xFFFFFF DUP3 AND SWAP1 POP SWAP2 SWAP1 POP JUMP JUMPDEST PUSH2 0x33E5 DUP2 PUSH2 0x33CD JUMP JUMPDEST DUP3 MSTORE POP POP JUMP JUMPDEST PUSH1 0x0 PUSH2 0x33F7 DUP4 DUP4 PUSH2 0x33DC JUMP JUMPDEST PUSH1 0x20 DUP4 ADD SWAP1 POP SWAP3 SWAP2 POP POP JUMP JUMPDEST PUSH1 0x0 PUSH1 0x20 DUP3 ADD SWAP1 POP SWAP2 SWAP1 POP JUMP JUMPDEST PUSH2 0x3419 DUP2 PUSH2 0x33AD JUMP JUMPDEST PUSH2 0x3423 DUP2 DUP5 PUSH2 0x33B8 JUMP JUMPDEST SWAP3 POP PUSH2 0x342E DUP3 PUSH2 0x33C3 JUMP JUMPDEST DUP1 PUSH1 0x0 JUMPDEST DUP4 DUP2 LT ISZERO PUSH2 0x345F JUMPI DUP2 MLOAD PUSH2 0x3446 DUP8 DUP3 PUSH2 0x33EB JUMP JUMPDEST SWAP7 POP PUSH2 0x3451 DUP4 PUSH2 0x3403 JUMP JUMPDEST SWAP3 POP POP PUSH1 0x1 DUP2 ADD SWAP1 POP PUSH2 0x3432 JUMP JUMPDEST POP POP POP POP POP POP JUMP JUMPDEST PUSH1 0x0 PUSH2 0x1C0 DUP3 ADD SWAP1 POP PUSH2 0x347D PUSH1 0x0 DUP4 ADD DUP7 PUSH2 0x32E5 JUMP JUMPDEST PUSH2 0x348A PUSH1 0x20 DUP4 ADD DUP6 PUSH2 0x3219 JUMP JUMPDEST PUSH2 0x3497 PUSH1 0x40 DUP4 ADD DUP5 PUSH2 0x3410 JUMP JUMPDEST SWAP5 SWAP4 POP POP POP POP JUMP JUMPDEST PUSH2 0x34A8 DUP2 PUSH2 0x3268 JUMP JUMPDEST DUP3 MSTORE POP POP JUMP JUMPDEST PUSH1 0x0 PUSH1 0x20 DUP3 ADD SWAP1 POP PUSH2 0x34C3 PUSH1 0x0 DUP4 ADD DUP5 PUSH2 0x349F JUMP JUMPDEST SWAP3 SWAP2 POP POP JUMP JUMPDEST PUSH2 0x34D2 DUP2 PUSH2 0x320F JUMP JUMPDEST DUP2 EQ PUSH2 0x34DD JUMPI PUSH1 0x0 DUP1 REVERT JUMPDEST POP JUMP JUMPDEST PUSH1 0x0 DUP2 CALLDATALOAD SWAP1 POP PUSH2 0x34EF DUP2 PUSH2 0x34C9 JUMP JUMPDEST SWAP3 SWAP2 POP POP JUMP JUMPDEST PUSH1 0x0 DUP1 PUSH1 0x0 PUSH1 0x60 DUP5 DUP7 SUB SLT ISZERO PUSH2 0x350E JUMPI PUSH2 0x350D PUSH2 0x3243 JUMP JUMPDEST JUMPDEST PUSH1 0x0 PUSH2 0x351C DUP7 DUP3 DUP8 ADD PUSH2 0x336B JUMP JUMPDEST SWAP4 POP POP PUSH1 0x20 PUSH2 0x352D DUP7 DUP3 DUP8 ADD PUSH2 0x34E0 JUMP JUMPDEST SWAP3 POP POP PUSH1 0x40 PUSH2 0x353E DUP7 DUP3 DUP8 ADD PUSH2 0x34E0 JUMP JUMPDEST SWAP2 POP POP SWAP3 POP SWAP3 POP SWAP3 JUMP JUMPDEST PUSH1 0x0 DUP2 MLOAD SWAP1 POP SWAP2 SWAP1 POP JUMP JUMPDEST PUSH1 0x0 DUP3 DUP3 MSTORE PUSH1 0x20 DUP3 ADD SWAP1 POP SWAP3 SWAP2 POP POP JUMP JUMPDEST PUSH1 0x0 DUP2 SWAP1 POP PUSH1 0x20 DUP3 ADD SWAP1 POP SWAP2 SWAP1 POP JUMP JUMPDEST PUSH2 0x357D DUP2 PUSH2 0x320F JUMP JUMPDEST DUP3 MSTORE POP POP JUMP JUMPDEST PUSH1 0x0 PUSH2 0x358F DUP4 DUP4 PUSH2 0x3574 JUMP JUMPDEST PUSH1 0x20 DUP4 ADD SWAP1 POP SWAP3 SWAP2 POP POP JUMP JUMPDEST PUSH1 0x0 PUSH1 0x20 DUP3 ADD SWAP1 POP SWAP2 SWAP1 POP JUMP JUMPDEST PUSH1 0x0 PUSH2 0x35B3 DUP3 PUSH2 0x3548 JUMP JUMPDEST PUSH2 0x35BD DUP2 DUP6 PUSH2 0x3553 JUMP JUMPDEST SWAP4 POP PUSH2 0x35C8 DUP4 PUSH2 0x3564 JUMP JUMPDEST DUP1 PUSH1 0x0 JUMPDEST DUP4 DUP2 LT ISZERO PUSH2 0x35F9 JUMPI DUP2 MLOAD PUSH2 0x35E0 DUP9 DUP3 PUSH2 0x3583 JUMP JUMPDEST SWAP8 POP PUSH2 0x35EB DUP4 PUSH2 0x359B JUMP JUMPDEST SWAP3 POP POP PUSH1 0x1 DUP2 ADD SWAP1 POP PUSH2 0x35CC JUMP JUMPDEST POP DUP6 SWAP4 POP POP POP POP SWAP3 SWAP2 POP POP JUMP JUMPDEST PUSH1 0x0 PUSH1 0x80 DUP3 ADD SWAP1 POP DUP2 DUP2 SUB PUSH1 0x0 DUP4 ADD MSTORE PUSH2 0x3620 DUP2 DUP8 PUSH2 0x35A8 JUMP JUMPDEST SWAP1 POP DUP2 DUP2 SUB PUSH1 0x20 DUP4 ADD MSTORE PUSH2 0x3634 DUP2 DUP7 PUSH2 0x35A8 JUMP JUMPDEST SWAP1 POP DUP2 DUP2 SUB PUSH1 0x40 DUP4 ADD MSTORE PUSH2 0x3648 DUP2 DUP6 PUSH2 0x35A8 JUMP JUMPDEST SWAP1 POP DUP2 DUP2 SUB PUSH1 0x60 DUP4 ADD MSTORE PUSH2 0x365C DUP2 DUP5 PUSH2 0x35A8 JUMP JUMPDEST SWAP1 POP SWAP6 SWAP5 POP POP POP POP POP JUMP JUMPDEST PUSH1 0x0 PUSH1 0xE0 DUP3 ADD SWAP1 POP PUSH2 0x367C PUSH1 0x0 DUP4 ADD DUP11 PUSH2 0x3219 JUMP JUMPDEST PUSH2 0x3689 PUSH1 0x20 DUP4 ADD DUP10 PUSH2 0x3219 JUMP JUMPDEST PUSH2 0x3696 PUSH1 0x40 DUP4 ADD DUP9 PUSH2 0x3219 JUMP JUMPDEST PUSH2 0x36A3 PUSH1 0x60 DUP4 ADD DUP8 PUSH2 0x3219 JUMP JUMPDEST PUSH2 0x36B0 PUSH1 0x80 DUP4 ADD DUP7 PUSH2 0x3219 JUMP JUMPDEST PUSH2 0x36BD PUSH1 0xA0 DUP4 ADD DUP6 PUSH2 0x3219 JUMP JUMPDEST PUSH2 0x36CA PUSH1 0xC0 DUP4 ADD DUP5 PUSH2 0x3219 JUMP JUMPDEST SWAP9 SWAP8 POP POP POP POP POP POP POP POP JUMP JUMPDEST PUSH1 0x0 DUP2 ISZERO ISZERO SWAP1 POP SWAP2 SWAP1 POP JUMP JUMPDEST PUSH2 0x36EB DUP2 PUSH2 0x36D6 JUMP JUMPDEST DUP3 MSTORE POP POP JUMP JUMPDEST PUSH1 0x0 PUSH1 0x20 DUP3 ADD SWAP1 POP PUSH2 0x3706 PUSH1 0x0 DUP4 ADD DUP5 PUSH2 0x36E2 JUMP JUMPDEST SWAP3 SWAP2 POP POP JUMP JUMPDEST PUSH1 0x0 DUP3 DUP3 MSTORE PUSH1 0x20 DUP3 ADD SWAP1 POP SWAP3 SWAP2 POP POP JUMP JUMPDEST PUSH32 0x7478206F726967696E203D206D73672E73656E64657200000000000000000000 PUSH1 0x0 DUP3 ADD MSTORE POP JUMP JUMPDEST PUSH1 0x0 PUSH2 0x3753 PUSH1 0x16 DUP4 PUSH2 0x370C JUMP JUMPDEST SWAP2 POP PUSH2 0x375E DUP3 PUSH2 0x371D JUMP JUMPDEST PUSH1 0x20 DUP3 ADD SWAP1 POP SWAP2 SWAP1 POP JUMP JUMPDEST PUSH1 0x0 PUSH1 0x20 DUP3 ADD SWAP1 POP DUP2 DUP2 SUB PUSH1 0x0 DUP4 ADD MSTORE PUSH2 0x3782 DUP2 PUSH2 0x3746 JUMP JUMPDEST SWAP1 POP SWAP2 SWAP1 POP JUMP JUMPDEST PUSH32 0x74686520616D6F756E74206D757374207665206265747765656E206D696E2061 PUSH1 0x0 DUP3 ADD MSTORE PUSH32 0x6E64206D617820616D6F756E7473000000000000000000000000000000000000 PUSH1 0x20 DUP3 ADD MSTORE POP JUMP JUMPDEST PUSH1 0x0 PUSH2 0x37E5 PUSH1 0x2E DUP4 PUSH2 0x370C JUMP JUMPDEST SWAP2 POP PUSH2 0x37F0 DUP3 PUSH2 0x3789 JUMP JUMPDEST PUSH1 0x40 DUP3 ADD SWAP1 POP SWAP2 SWAP1 POP JUMP JUMPDEST PUSH1 0x0 PUSH1 0x20 DUP3 ADD SWAP1 POP DUP2 DUP2 SUB PUSH1 0x0 DUP4 ADD MSTORE PUSH2 0x3814 DUP2 PUSH2 0x37D8 JUMP JUMPDEST SWAP1 POP SWAP2 SWAP1 POP JUMP JUMPDEST PUSH32 0x4D6178696D756D20333030206465706F736974732066726F6D20616464726573 PUSH1 0x0 DUP3 ADD MSTORE PUSH32 0x7300000000000000000000000000000000000000000000000000000000000000 PUSH1 0x20 DUP3 ADD MSTORE POP JUMP JUMPDEST PUSH1 0x0 PUSH2 0x3877 PUSH1 0x21 DUP4 PUSH2 0x370C JUMP JUMPDEST SWAP2 POP PUSH2 0x3882 DUP3 PUSH2 0x381B JUMP JUMPDEST PUSH1 0x40 DUP3 ADD SWAP1 POP SWAP2 SWAP1 POP JUMP JUMPDEST PUSH1 0x0 PUSH1 0x20 DUP3 ADD SWAP1 POP DUP2 DUP2 SUB PUSH1 0x0 DUP4 ADD MSTORE PUSH2 0x38A6 DUP2 PUSH2 0x386A JUMP JUMPDEST SWAP1 POP SWAP2 SWAP1 POP JUMP JUMPDEST PUSH32 0x4E487B7100000000000000000000000000000000000000000000000000000000 PUSH1 0x0 MSTORE PUSH1 0x32 PUSH1 0x4 MSTORE PUSH1 0x24 PUSH1 0x0 REVERT JUMPDEST PUSH32 0x4E487B7100000000000000000000000000000000000000000000000000000000 PUSH1 0x0 MSTORE PUSH1 0x11 PUSH1 0x4 MSTORE PUSH1 0x24 PUSH1 0x0 REVERT JUMPDEST PUSH1 0x0 PUSH2 0x3916 DUP3 PUSH2 0x320F JUMP JUMPDEST SWAP2 POP PUSH2 0x3921 DUP4 PUSH2 0x320F JUMP JUMPDEST SWAP3 POP DUP3 DUP3 ADD SWAP1 POP DUP1 DUP3 GT ISZERO PUSH2 0x3939 JUMPI PUSH2 0x3938 PUSH2 0x38DC JUMP JUMPDEST JUMPDEST SWAP3 SWAP2 POP POP JUMP JUMPDEST PUSH1 0x0 PUSH2 0x394A DUP3 PUSH2 0x33CD JUMP JUMPDEST SWAP2 POP PUSH2 0x3955 DUP4 PUSH2 0x33CD JUMP JUMPDEST SWAP3 POP DUP3 DUP3 ADD SWAP1 POP PUSH3 0xFFFFFF DUP2 GT ISZERO PUSH2 0x3970 JUMPI PUSH2 0x396F PUSH2 0x38DC JUMP JUMPDEST JUMPDEST SWAP3 SWAP2 POP POP JUMP JUMPDEST PUSH1 0x0 PUSH2 0x3981 DUP3 PUSH2 0x320F JUMP JUMPDEST SWAP2 POP PUSH32 0xFFFFFFFFFFFFFFFFFFFFFFFFFFFFFFFFFFFFFFFFFFFFFFFFFFFFFFFFFFFFFFFF DUP3 SUB PUSH2 0x39B3 JUMPI PUSH2 0x39B2 PUSH2 0x38DC JUMP JUMPDEST JUMPDEST PUSH1 0x1 DUP3 ADD SWAP1 POP SWAP2 SWAP1 POP JUMP JUMPDEST PUSH32 0x5573657220686173206E6F206469766964656E64730000000000000000000000 PUSH1 0x0 DUP3 ADD MSTORE POP JUMP JUMPDEST PUSH1 0x0 PUSH2 0x39F4 PUSH1 0x15 DUP4 PUSH2 0x370C JUMP JUMPDEST SWAP2 POP PUSH2 0x39FF DUP3 PUSH2 0x39BE JUMP JUMPDEST PUSH1 0x20 DUP3 ADD SWAP1 POP SWAP2 SWAP1 POP JUMP JUMPDEST PUSH1 0x0 PUSH1 0x20 DUP3 ADD SWAP1 POP DUP2 DUP2 SUB PUSH1 0x0 DUP4 ADD MSTORE PUSH2 0x3A23 DUP2 PUSH2 0x39E7 JUMP JUMPDEST SWAP1 POP SWAP2 SWAP1 POP JUMP JUMPDEST PUSH32 0x4E487B7100000000000000000000000000000000000000000000000000000000 PUSH1 0x0 MSTORE PUSH1 0x41 PUSH1 0x4 MSTORE PUSH1 0x24 PUSH1 0x0 REVERT JUMPDEST PUSH1 0x0 PUSH2 0x3A64 DUP3 PUSH2 0x320F JUMP JUMPDEST SWAP2 POP PUSH2 0x3A6F DUP4 PUSH2 0x320F JUMP JUMPDEST SWAP3 POP DUP3 DUP3 SUB SWAP1 POP DUP2 DUP2 GT ISZERO PUSH2 0x3A87 JUMPI PUSH2 0x3A86 PUSH2 0x38DC JUMP JUMPDEST JUMPDEST SWAP3 SWAP2 POP POP JUMP JUMPDEST PUSH1 0x0 PUSH2 0x3A98 DUP3 PUSH2 0x320F JUMP JUMPDEST SWAP2 POP PUSH1 0x0 DUP3 SUB PUSH2 0x3AAB JUMPI PUSH2 0x3AAA PUSH2 0x38DC JUMP JUMPDEST JUMPDEST PUSH1 0x1 DUP3 SUB SWAP1 POP SWAP2 SWAP1 POP JUMP JUMPDEST PUSH32 0x4F6E6C79206F776E65722063616E2063616C6C20746869732066756E6374696F PUSH1 0x0 DUP3 ADD MSTORE PUSH32 0x6E2E000000000000000000000000000000000000000000000000000000000000 PUSH1 0x20 DUP3 ADD MSTORE POP JUMP JUMPDEST PUSH1 0x0 PUSH2 0x3B12 PUSH1 0x22 DUP4 PUSH2 0x370C JUMP JUMPDEST SWAP2 POP PUSH2 0x3B1D DUP3 PUSH2 0x3AB6 JUMP JUMPDEST PUSH1 0x40 DUP3 ADD SWAP1 POP SWAP2 SWAP1 POP JUMP JUMPDEST PUSH1 0x0 PUSH1 0x20 DUP3 ADD SWAP1 POP DUP2 DUP2 SUB PUSH1 0x0 DUP4 ADD MSTORE PUSH2 0x3B41 DUP2 PUSH2 0x3B05 JUMP JUMPDEST SWAP1 POP SWAP2 SWAP1 POP JUMP JUMPDEST PUSH32 0x43616E6E6F74207365742073656C662061732075706C696E6520706172746E65 PUSH1 0x0 DUP3 ADD MSTORE PUSH32 0x7200000000000000000000000000000000000000000000000000000000000000 PUSH1 0x20 DUP3 ADD MSTORE POP JUMP JUMPDEST PUSH1 0x0 PUSH2 0x3BA4 PUSH1 0x21 DUP4 PUSH2 0x370C JUMP JUMPDEST SWAP2 POP PUSH2 0x3BAF DUP3 PUSH2 0x3B48 JUMP JUMPDEST PUSH1 0x40 DUP3 ADD SWAP1 POP SWAP2 SWAP1 POP JUMP JUMPDEST PUSH1 0x0 PUSH1 0x20 DUP3 ADD SWAP1 POP DUP2 DUP2 SUB PUSH1 0x0 DUP4 ADD MSTORE PUSH2 0x3BD3 DUP2 PUSH2 0x3B97 JUMP JUMPDEST SWAP1 POP SWAP2 SWAP1 POP JUMP JUMPDEST PUSH32 0x55706C696E6520706172746E657220616C726561647920736574000000000000 PUSH1 0x0 DUP3 ADD MSTORE POP JUMP JUMPDEST PUSH1 0x0 PUSH2 0x3C10 PUSH1 0x1A DUP4 PUSH2 0x370C JUMP JUMPDEST SWAP2 POP PUSH2 0x3C1B DUP3 PUSH2 0x3BDA JUMP JUMPDEST PUSH1 0x20 DUP3 ADD SWAP1 POP SWAP2 SWAP1 POP JUMP JUMPDEST PUSH1 0x0 PUSH1 0x20 DUP3 ADD SWAP1 POP DUP2 DUP2 SUB PUSH1 0x0 DUP4 ADD MSTORE PUSH2 0x3C3F DUP2 PUSH2 0x3C03 JUMP JUMPDEST SWAP1 POP SWAP2 SWAP1 POP JUMP JUMPDEST PUSH1 0x0 PUSH2 0x3C51 DUP3 PUSH2 0x320F JUMP JUMPDEST SWAP2 POP PUSH2 0x3C5C DUP4 PUSH2 0x320F JUMP JUMPDEST SWAP3 POP DUP3 DUP3 MUL PUSH2 0x3C6A DUP2 PUSH2 0x320F JUMP JUMPDEST SWAP2 POP DUP3 DUP3 DIV DUP5 EQ DUP4 ISZERO OR PUSH2 0x3C81 JUMPI PUSH2 0x3C80 PUSH2 0x38DC JUMP JUMPDEST JUMPDEST POP SWAP3 SWAP2 POP POP JUMP JUMPDEST PUSH32 0x4E487B7100000000000000000000000000000000000000000000000000000000 PUSH1 0x0 MSTORE PUSH1 0x12 PUSH1 0x4 MSTORE PUSH1 0x24 PUSH1 0x0 REVERT JUMPDEST PUSH1 0x0 PUSH2 0x3CC2 DUP3 PUSH2 0x320F JUMP JUMPDEST SWAP2 POP PUSH2 0x3CCD DUP4 PUSH2 0x320F JUMP JUMPDEST SWAP3 POP DUP3 PUSH2 0x3CDD JUMPI PUSH2 0x3CDC PUSH2 0x3C88 JUMP JUMPDEST JUMPDEST DUP3 DUP3 DIV SWAP1 POP SWAP3 SWAP2 POP POP JUMP JUMPDEST PUSH32 0x536166654D6174683A206D756C7469706C69636174696F6E206F766572666C6F PUSH1 0x0 DUP3 ADD MSTORE PUSH32 0x7700000000000000000000000000000000000000000000000000000000000000 PUSH1 0x20 DUP3 ADD MSTORE POP JUMP JUMPDEST PUSH1 0x0 PUSH2 0x3D44 PUSH1 0x21 DUP4 PUSH2 0x370C JUMP JUMPDEST SWAP2 POP PUSH2 0x3D4F DUP3 PUSH2 0x3CE8 JUMP JUMPDEST PUSH1 0x40 DUP3 ADD SWAP1 POP SWAP2 SWAP1 POP JUMP JUMPDEST PUSH1 0x0 PUSH1 0x20 DUP3 ADD SWAP1 POP DUP2 DUP2 SUB PUSH1 0x0 DUP4 ADD MSTORE PUSH2 0x3D73 DUP2 PUSH2 0x3D37 JUMP JUMPDEST SWAP1 POP SWAP2 SWAP1 POP JUMP JUMPDEST PUSH32 0x536166654D6174683A206469766973696F6E206279207A65726F000000000000 PUSH1 0x0 DUP3 ADD MSTORE POP JUMP JUMPDEST PUSH1 0x0 PUSH2 0x3DB0 PUSH1 0x1A DUP4 PUSH2 0x370C JUMP JUMPDEST SWAP2 POP PUSH2 0x3DBB DUP3 PUSH2 0x3D7A JUMP JUMPDEST PUSH1 0x20 DUP3 ADD SWAP1 POP SWAP2 SWAP1 POP JUMP JUMPDEST PUSH1 0x0 PUSH1 0x20 DUP3 ADD SWAP1 POP DUP2 DUP2 SUB PUSH1 0x0 DUP4 ADD MSTORE PUSH2 0x3DDF DUP2 PUSH2 0x3DA3 JUMP JUMPDEST SWAP1 POP SWAP2 SWAP1 POP JUMP JUMPDEST PUSH32 0x536166654D6174683A206164646974696F6E206F766572666C6F770000000000 PUSH1 0x0 DUP3 ADD MSTORE POP JUMP JUMPDEST PUSH1 0x0 PUSH2 0x3E1C PUSH1 0x1B DUP4 PUSH2 0x370C JUMP JUMPDEST SWAP2 POP PUSH2 0x3E27 DUP3 PUSH2 0x3DE6 JUMP JUMPDEST PUSH1 0x20 DUP3 ADD SWAP1 POP SWAP2 SWAP1 POP JUMP JUMPDEST PUSH1 0x0 PUSH1 0x20 DUP3 ADD SWAP1 POP DUP2 DUP2 SUB PUSH1 0x0 DUP4 ADD MSTORE PUSH2 0x3E4B DUP2 PUSH2 0x3E0F JUMP JUMPDEST SWAP1 POP SWAP2 SWAP1 POP JUMP JUMPDEST PUSH32 0x536166654D6174683A207375627472616374696F6E206F766572666C6F770000 PUSH1 0x0 DUP3 ADD MSTORE POP JUMP JUMPDEST PUSH1 0x0 PUSH2 0x3E88 PUSH1 0x1E DUP4 PUSH2 0x370C JUMP JUMPDEST SWAP2 POP PUSH2 0x3E93 DUP3 PUSH2 0x3E52 JUMP JUMPDEST PUSH1 0x20 DUP3 ADD SWAP1 POP SWAP2 SWAP1 POP JUMP JUMPDEST PUSH1 0x0 PUSH1 0x20 DUP3 ADD SWAP1 POP DUP2 DUP2 SUB PUSH1 0x0 DUP4 ADD MSTORE PUSH2 0x3EB7 DUP2 PUSH2 0x3E7B JUMP JUMPDEST SWAP1 POP SWAP2 SWAP1 POP JUMP JUMPDEST PUSH1 0x0 PUSH2 0x3EC9 DUP3 PUSH2 0x33CD JUMP JUMPDEST SWAP2 POP PUSH3 0xFFFFFF DUP3 SUB PUSH2 0x3EDE JUMPI PUSH2 0x3EDD PUSH2 0x38DC JUMP JUMPDEST JUMPDEST PUSH1 0x1 DUP3 ADD SWAP1 POP SWAP2 SWAP1 POP JUMP INVALID LOG2 PUSH5 0x6970667358 0x22 SLT KECCAK256 0x5E 0xC0 SWAP13 0xD3 CREATE 0xE LT SWAP15 PUSH24 0xACB524A6413E878659C416DE572C08A9586F2CAFDDBA2464 PUSH20 0x6F6C634300081600330000000000000000000000 "},"methodIdentifiers":{"DEPOSITS_MAX()":"aef18c25","Dev_Fee()":"5a18719c","INVEST_MAX_AMOUNT()":"7d8cb7a2","INVEST_MIN_AMOUNT()":"e262113e","MARKETING_FEE()":"af3e2122","MAX_HOLD_PERCENT()":"44767308","PERCENTS_DIVIDER()":"01c234a8","PROJECT_FEE()":"48d44bd1","TIME_STEP()":"32bc298c","contractAddress()":"f6b4dfb4","contractCreationTime()":"cea3e530","contractPercent()":"9bb57718","defaultAddress()":"5c101693","devAdress()":"40653d3d","getContractAddress()":"32a2c5d0","getContractBalance()":"6f9fb98a","getSiteStats()":"1dba5b08","getTotalDepositAmount(address)":"27f9c4c1","getTotalMissedAmount(address)":"a8899d63","getUplinePartner()":"1d47c1a4","getUserDeposits(address,uint256,uint256)":"4698b883","getUserLastDeposit(address)":"9c11957d","getUserReferralsStats(address)":"2ba285e6","getUserStats(address)":"4e43603a","invest(address)":"03f9c793","isActive(address)":"9f8a13d7","marketingAddress()":"a5ece941","nAddress1()":"bc1d720d","nAddress2()":"2d369c90","owner()":"8da5cb5b","projectAddress()":"3cf96af1","setContractAddress(address)":"477bddaa","totalInvestAmount()":"665db73d","totalInvestCount()":"32e1c733","totalWithdrawn()":"4b319713","uplinePartners(address)":"e956a7c7","withdraw()":"3ccfd60b"}}}}}